:020000040000FA
:0414000083EF2EF058
:06140800000115D81100DF
:10141800D8CF1CF1E0CF1DF101011E6F00011BD8D0
:1014280001011E511DC1E0FF1CC1D8FF1000E9CF0A
:1014380000F1EACF01F1F3CF02F1F4CF03F1EAECC6
:101448000EF09E9203C1F4FF02C1F3FF00C1E9FF51
:1014580001C1EAFF1200E9CF1FF1EACF20F1F3CF73
:1014680021F1F4CF22F1F6CF23F1F7CF24F1F8CF11
:1014780025F1F5CF26F1F40ED76E500ED66EF29404
:1014880042EC2EF026C1F5FF23C1F6FF24C1F7FF79
:1014980025C1F8FF22C1F4FF21C1F3FF1FC1E9FFF5
:1014A80020C1EAFF1200386F396B110E3A6F08D06D
:1014B80039373B373851395D3BB1D880D8B0396FAF
:1014C800363737373A2FF4D7365112003B6B3C6B1F
:1014D800190E3D6F0DD03B373C3705E239513B5D66
:1014E8003A513C5905E339513B5F3A513C5BD8804E
:1014F8003637373738373D2FEED7365112000101CE
:10150800386F396B100E3A6F3637373739373B3704
:101518003851395D3BB1D880D8B0396F3A2FF4D7FC
:10152800395112003B6B3C6B180E3D6F363737371D
:1015380038373B373C3705E239513B5D3A513C5926
:1015480004E339513B5F3A513C5B3D2FEFD73B51A8
:101558001200274906D027C1E9FFEA6AEE2A000EE1
:10156800EF220001120001011A511B6F1200010144
:1015780019511B6F1200010118511B6F1200136FD4
:10158800166F156B146B196B1251186F176B175177
:101598001427185115231951162311511427000E19
:1015A80015231623145112005E6F5F6B5E515F6145
:1015B8000ED0606B616BB80E605D0B0E615905E271
:1015C8000000602B000E6123F6D75F2BEFD71200C7
:1015D8000101186F9E9618C1C9FF9EA6FED7C9CFF4
:1015E80019F1195112009280928292849286809AFF
:1015F800929A818093909382818493948186939622
:1016080081989398938A828094908292949282840B
:101618009494829C949C829E949E838095908382CD
:10162800959283849594839695969588958A838CCC
:10163800959C838E959E848E9680849296928494AF
:1016480096941200700ED36E400E9B6E280EC26EDA
:101658003D0EC16E48691B0E496FC280C69A400E86
:10166800C76EC66AC68A080ED56EF40ED76E500EBF
:10167800D66EF194F29AF294D58EF28C5E0ECB6E01
:10168800380ECA6E9F829E929D92CA84D08EF28E28
:101698000E0E0E01D26FFF6B0C0EBA6EBA9ABA9884
:1016A800BB6ABB0E776E030E766E7684120ED76F0A
:1016B8000C0EB46EB49AB498B56A120092928082F5
:1016C800120092821200D88083B8D8901200D88075
:1016D80084B0D8901200D88083BAD8901200D890DD
:1016E80080B6D880120084841200849412008194F9
:1016F8008186818012008184819681801200818494
:101708008186819012008194819681801200818463
:101718008196819012008194818681901200819433
:101728008196819012008184818681801200010156
:10173800296F29510FE0010A0FE0030A0FE0010A9F
:101748000FE0070A0FE0010A0FE0030A0FE0010AA1
:101758000FE010D0CCDF0FD0CEDF0DD0D0DF0BD014
:10176800D2DF09D0D4DF07D0D6DF05D0D8DF03D049
:10177800DADF01D0D8DF1200286F69A103D0275122
:10178800D6DF02D02851D3DF697112000001605101
:1017980005E0010A0CE0030A1CE02CD07FCF68F1B9
:1017A8007FCF61F07FCF62F0010E606F23D061516F
:1017B800621103E06107000E625B615162111AE178
:1017C8007FCF68F17FCF61F07FCF62F0020E606F4C
:1017D80011D06151621103E06107000E625B615133
:1017E800621108E17FCF68F17FCF61F07FCF62F0AF
:1017F800010E606F1200286F0001635105E0010AB5
:1018080012E0030A1CE02DD00101275190DF285374
:1018180004E0080E0001646F03D0010E0001646F3C
:10182800010E636F1ED0642F1CD0070E80DF285373
:10183800000102E1070E646F020E636F12D0646745
:10184800640764670ED00101275171DF285304E053
:10185800080E0001646F03D0010E0001646F010ED1
:10186800636F12000101276F27A3B49A27B3B48AC4
:1018780027A1B49827B1B488D8902731B56ED890ED
:10188800B53212008290120082801200839E060EEA
:101898009FDE838E839E980E9BDE838E000112004E
:1018A800839E050E95DE000E93DE316F838E120047
:1018B800839E060E8DDE838E839ED80E89DE27C119
:1018C80018F128C119F129C11AF14DDE81DE27C1AD
:1018D80018F128C119F129C11AF149DE79DE27C1A9
:1018E80018F128C119F129C11AF145DE71DE838E7C
:1018F8000001D6DF0001E8B0FCD71200839E030E7A
:1019080067DE04C118F105C119F106C11AF12BDE11
:101918005FDE04C118F105C119F106C11AF127DE0D
:1019280057DE04C118F105C119F106C11AF123DE09
:101938004FDE000E4DDE076F838E00011200156F1B
:10194800839E030E45DE11C118F112C119F113C1AE
:101958001AF109DE3DDE11C118F112C119F113C1E6
:101968001AF105DE35DE11C118F112C119F113C1E2
:101978001AF101DE2DDE176B155117610CD0000E20
:1019880027DE166F010EEA6E17511425E96E16C18F
:10199800EFFF172BF1D7838E1200306F839E060E50
:1019A80017DE838E839E020E13DE2DC118F12EC121
:1019B80019F12FC11AF1D7DD0BDE2DC118F12EC197
:1019C80019F12FC11AF1D3DD03DE2DC118F12EC193
:1019D80019F12FC11AF1CFDDFBDD3051F9DD838E0E
:1019E8005FDFE8B0FDD712002B6F2C6B2B512C61F9
:1019F80013D027C12DF128C12EF129C12FF1010ED5
:101A0800EA6E2C512A25E96EEF50C7DF272B000E0E
:101A1800282329232C2BEAD71200666B200E666137
:101A280007D001EE6AF06651E926EF68662BF6D713
:101A38006A6B030E6B6F170E6C6F6D6B030E6E6F18
:101A4800020E6F6F030E706F716B726B736F746B36
:101A5800040E756F0F0E766F776B090E786F796BC2
:101A68007A6B7B6B666B200E666107D001EE8AF09D
:101A78006651E926EF68662BF6D71200AAC16AF10B
:101A8800ABC16BF1ACC16CF1ADC16DF1AEC16EF122
:101A9800AFC16FF1B0C170F1B1C171F1B2C172F1F2
:101AA800B3C173F1B6C174F1B7C175F1B8C176F1BC
:101AB800BBC177F1BCC178F1796B7A6B7B6BBDC127
:101AC80089F112000001E2DE0101276B286B296B06
:101AD8000001EEDE0101276B286B296B6A0E2A6F65
:101AE800200E82DF200E276F286B296B8A0E2A6F43
:101AF800200E7AD7BEC118F1BFC119F1C0C11AF1C1
:101B08003ADD796FBEC118F1BFC119F1C0C11AF130
:101B18002EDD7A6FBEC118F1BFC119F1C0C11AF12B
:101B280022DD7B6FCFD7AA6B030EAB6F170EAC6F9E
:101B3800AD6B030EAE6F020EAF6F030EB06FB16BDD
:101B4800B26BB36F0A0DF3CFB4F1F4CFB5F1B66B46
:101B5800040EB76F0F0EB86FBB6B090EBC6FC76B67
:101B68001200116B126B136B6A0E146F200EE7DEF6
:101B7800200E116F126B136B8A0E146F200EDFDEAE
:101B88008951640A08E089516E0A05E089516F0A93
:101B980002E0640E896F89C1BDF17851090A13E02A
:101BA8003CDFBDC189F18EDF116B126B136B6A0EBE
:101BB800146F200EC4DE200E116F126B136B8A0E89
:101BC800146F200EBCDE65A16AC1AAF16BC1ABF12E
:101BD8006CC1ACF16DC1ADF16EC1AEF16FC1AFF1C9
:101BE80070C1B0F171C1B1F172C1B2F173C1B3F199
:101BF80074C1B6F175C1B7F176C1B8F177C1BBF15F
:101C080078C1BCF179C162F17AC163F17BC164F139
:101C1800B2C1C6F1AEC1C4F1B0510A0DF3CFC2F1E1
:101C2800F4CFC3F1B3510A0DF3CFB4F1F4CFB5F14A
:101C3800B629C16FAA51030A02E0BB2D04D0C46BB8
:101C4800010EC56FC66B62C111F163C112F1645117
:101C580096DC14C1BEF115C1BFF116C1C0F1120066
:101C68008386C282C2B2FED7C4CF67F0839668511A
:101C7800676102D067C068F06851675D03E368C0B8
:101C880067F000D0DB0E676503D0050E656F1BD0CB
:101C9800D60E676503D0040E656F15D0D00E676544
:101CA80003D0030E656F0FD0CB0E676503D0020E0D
:101CB800656F09D0C50E676503D0010E656F03D047
:101CC800C50E6765656B1200056F060DF3CF09F148
:101CD800F4CF0AF10451100DF3CF08F1076B066B2E
:101CE80009510625116F0A510721126F000E0821AC
:101CF800136F0B0E146F060E22DE0BC111F10CC10F
:101D080012F10D513CDC14C16BF015C16CF016C119
:101D18006DF00EC111F10FC112F1105130DC14C178
:101D28006EF015C16FF016C170F0120001012D6F31
:101D3800C46702D000011200080E00017D6107D0BF
:101D4800EA6A710E7D25E96E2DC1EFFF7D2B120029
:101D58000101C46702D00001120000017D6769819A
:101D68009D8212000101046B04BF03D0080E0461B8
:101D780007D0EA6A710E0425E96EEF68042BF4D7E0
:101D880000017D6B7C6B6991796B9D921200056FE8
:101D9800045105E0010A05E0030A08E009D0056BD3
:101DA80007D0D8900533D890053302D0D8900533A2
:101DB80005A3BA9A05B3BA8A05A1BA9805B1BA8833
:101DC800D8900531BB6ED890BB32120079510BE028
:101DD800010A11E0030A1BE0010A26E0070A33E0C2
:101DE800010A4EE057D069A155D07DDC7A6B7B6B38
:101DF800010E796F4FD07A2B000E7B23210E7A5D6E
:101E0800030E7B5947E37C6B020E796F43D0C1C147
:101E180004F1EA6A710E7C25E96EEF50010154DF86
:101E2800030E0001796F36D06BC004F16CC005F168
:101E38006DC006F163DD6A6F6B2B000E6C236D239A
:101E4800040E796F27D0C4C104F16A5101019FDFE4
:101E580000016E516B5D6F516C5970516D590DE2F7
:101E68006BC004F16CC005F16DC006F147DD6A6F07
:101E78006B2B000E6C236D230DD0050E796F0AD0E5
:101E88007D057C6104D07C2B020E796F03D02DDC9C
:101E980069DF796B12002D6F2D5139E0010A3AE0A4
:101EA800030A3BE0010A3CE0070A3DE0010A3EE084
:101EB800030A3FE0010A40E00F0A41E0010A42E05C
:101EC800030A43E0010A44E0070A45E0010A46E044
:101ED800030A47E0010A48E01F0A49E0010A4AE00C
:101EE800030A4BE0010A4CE0070A4DE00A0A4EE0FB
:101EF800360A4FE01A0A50E00E0A51E07A0A52E018
:101F0800160A53E00A0A54E03E0A55E057D0570E25
:101F18002E6F56D0340E2E6F53D0530E2E6F50D0D6
:101F28004F0E2E6F4DD01F0E2E6F4AD01D0E2E6FE6
:101F380047D0450E2E6F44D0410E2E6F41D00E0E65
:101F48002E6F3ED02E0E2E6F3BD04C0E2E6F38D0FB
:101F5800110E2E6F35D0510E2E6F32D04D0E2E6FC2
:101F68002FD0200E2E6F2CD0170E2E6F29D0460E94
:101F78002E6F26D0420E2E6F23D00F0E2E6F20D03C
:101F88002F0E2E6F1DD0520E2E6F1AD04E0E2E6FA2
:101F980017D01E0E2E6F14D0180E2E6F11D0470EAC
:101FA8002E6F0ED0430E2E6F0BD0100E2E6F08D052
:101FB800300E2E6F05D0230E2E6F02D0440E2E6FDA
:101FC8002E511200296F150E296106D0295163DFA1
:101FD8002A6FACDE010120D029C136F1376B0A0E19
:101FE80057EC0AF036C12BF10A0E2B03F3CF2BF175
:101FF8002B5305E02B514FDF2A6F98DE010129C1D1
:1020080036F1376B0A0E83EC0AF02C6F2C5304E080
:1020180042DF2A6F8BDE01011200BC5121E0010A68
:1020280022E0030A25E0010A26E0070A27E0010A60
:1020380028E0030A2BE0010A2CE00F0A2DE0010A30
:102048002EE0030A2FE0010A30E0070A33E0010A14
:1020580038E0030A39E0010A3AE01F0A3BE03ED0C3
:102068001C0E64DE3BD0190E61DE500E5FDE36D0EA
:102078000C0E5CDE33D0040E59DE30D04A0E56DE2C
:102088002DD03E0E53DE050E51DE28D0000E4EDE5A
:1020980025D00B0E4BDE22D0250E48DE1FD0010EB8
:1020A80045DE1CD0550E42DE19D0540E3FDE4B0ED5
:1020B8003DDE14D0540E3ADE4B0E38DE500E36DEBE
:1020C8000DD00D0E33DE0AD0480E30DE07D0310EAB
:1020D8002DDE04D0140E2ADE3D0E28DE1200030E7B
:1020E80025DE6551050A0BE0010A10E0070A13E036
:1020F800010A16E0030A19E0010A1CE01FD0340E99
:1021080015DE230E13DE350E11DE18D0100E0EDE8E
:10211800350E0CDE13D0470E09DE350E07DE0ED065
:102128001E0E04DE350E02DE09D0520EFFDD350E1E
:10213800FDDD04D04C0EFADD350EF8DD1200286FF7
:10214800285107E0010A09E0030A0BE0010A0DE043
:102158000FD0260EEBDD01010BD0290EE7DD0101C2
:1021680007D03C0EE3DD010103D0240EDFDD0101C1
:102178001200286F285304E0330ED8DD010103D084
:10218800320ED4DD01011200286F285107E0010A40
:1021980009E0030A0BE0010A0DE00FD0320EC6DD9C
:1021A80001010BD0270EC2DD010107D02A0EBEDDCA
:1021B800010103D0210EBADD01011200286F285158
:1021C80005E0010A07E0030A0BE00FD00A0EAEDDB6
:1021D80001010BD0020EAADD530EA8DD010105D0C6
:1021E800020EA4DD4F0EA2DD01011200286F285156
:1021F80005E0010A07E0030A09E00BD0320E96DD7C
:10220800010107D0270E92DD010103D0210E8EDDDA
:1022180001011200340E000189DD360E87DD570EEC
:1022280085DD570E83D5490E81DD060E7FDD73EC03
:102238000BF003E3080E7ADD02D0150E77D51200F5
:102248000101B55109E15B0EB46106D0B451BADEA3
:102258002C0E6CDD01010ED0B4C136F1B5C137F1D9
:102268003C0E57EC0AF036C17FFF7F50ABDE220EE2
:102278005DDD01011200286F285304E0090E56DDC8
:10228800010103D0130E52DD01011200286F2853FB
:1022980004E0320E4BDD010103D0270E47DD0101BA
:1022A8001200286F285304E0210E40DD010103D0FD
:1022B800270E3CDD010112002C6F838083928394EA
:1022C8002B51ECEC0AF0838483822C5303E02C51CD
:1022D800D8EF0AF012005C6F83808392839459517F
:1022E800ECEC0AF083845D6B5B515D610AD0010EF2
:1022F800EA6E5D515A25E96EEF50ECEC0AF05D2B61
:10230800F3D783825C5303E05C51D8EF0AF01200E4
:10231800546F556B51C156F1576B52C158F12A0E83
:10232800596F550E5A6F040E5B6F000ED4DF556B54
:1023380053C156F1576B54C158F12B0E596F550EB6
:102348005A6F040E5B6F000EC6D7010E2B6F0A0E74
:10235800B3DF110E2B6F0A0EAFDF550E276F3A0E43
:10236800596F270E5A6F010E5B6F000EB4DF276B93
:10237800360E596F270E5A6F010E5B6F000EABDFDA
:10238800516BEF0E526F536BC3DF210E2B6F000E94
:1023980093DF130E2B6F000E8FDF280E2B6F000EAE
:1023A8008BD72DC118F12EC119F11A6BBBEC0AF0AD
:1023B800326F2DC118F12EC119F11A6BBFEC0AF05A
:1023C800336F2C512A03F3CF34F1F4CF35F129C1FF
:1023D80051F129052A25526F2BC153F12B052C25C4
:1023E80097DF8380839283942C0EECEC0AF083842D
:1023F8002F6B306B316B315112E13551305D04E395
:102408000EE134512F610BD03251ECEC0AF033510C
:10241800ECEC0AF02F2B000E30233123ECD783820B
:102428001200296BF00E2A6F2B6B2C6F27C12DF130
:1024380028C12EF1B6DF000112007FCF18F17FCF3F
:1024480019F11A6BBBEC0AF07F6E7FCF18F17FCFC2
:1024580019F11A6BBFEC0AF07F6E7FCF51F17FCF75
:1024680052F17FCF53F17F5053DF8380839283945F
:102478002C0EECEC0AF083847F50ECEC0AF07F50D1
:10248800ECEC0AF083821200486B496B4A6B40C13E
:1024980018F141C119F11A6BBBEC0AF04B6F40C13E
:1024A80018F141C119F11A6BBFEC0AF04C6F42C127
:1024B80018F143C119F11A6BBBEC0AF04D6F42C118
:1024C80018F143C119F11A6BBFEC0AF04E6F3D5178
:1024D8003C03F3CF4FF1F4CF50F13AC151F13A0533
:1024E8003C25526F3BC153F13B053D2511DF8380ED
:1024F800839283942C0EECEC0AF08384456B466B34
:102508004F51455D505146592BE248670CD049510F
:102518003E25516F4A513F21526F86EC2EF0476F8E
:10252800492B000E4A23800E4715446FD890473731
:10253800482B080E486301D0486B445307E04B51C1
:10254800ECEC0AF04C51ECEC0AF006D04D51ECECF6
:102558000AF04E51ECEC0AF0452B000E4623D0D77A
:10256800838212007F6A7F6A7F6A7F507F02F3CF7F
:102578007FFFF4CF7FFF7F6A7F6A00017F507F5C17
:102588007F507F5833E27F5008E17F507F240EEC64
:1025980052F07F6E7F2A000E7F22800E7F147F6E9E
:1025A800D8907F367F2A080E7F6201D07F6A7FCF5E
:1025B80036F17FCF37F17F5083EC0AF0000A000133
:1025C80003E17F6A7F2A01D07F2A7F500BE07FCF0B
:1025D8007FFF7FCF7FFF7FCF7FFF7FCF7FFF01010F
:1025E8002CDF00017F2A000E7F22C8D712007F6EE1
:1025F8007F50010117E0010A29E0030A3BE0010AC4
:102608004DE0070A5FE0010A71E0030AD8B482D0FE
:10261800010AD8B493D00F0AD8B4A4D0010AD8B408
:10262800B5D0C8D07FCF3AF17FCF3BF10B0E3C6FCE
:102638000C0E3D6F260E3E6F090E3F6F590E406F10
:10264800CE0E416F426B436B1FDFC5D07FCF3AF18F
:102658007FCF3BF10B0E3C6F0C0E3D6F370E3E6F7C
:10266800090E3F6F590E406FCE0E416F426B436BA0
:102678000BDFB1D07FCF3AF17FCF3BF10B0E3C6F30
:102688000C0E3D6F480E3E6F090E3F6F590E406F9E
:10269800CE0E416F426B436BF7DE9DD07FCF3AF190
:1026A8007FCF3BF10B0E3C6F0C0E3D6F590E3E6F0A
:1026B800090E3F6F590E406FCE0E416F426B436B50
:1026C800E3DE89D07FCF3AF17FCF3BF10B0E3C6F31
:1026D8000C0E3D6F6A0E3E6F090E3F6F590E406F2C
:1026E800CE0E416F426B436BCFDE75D07FCF3AF190
:1026F8007FCF3BF10B0E3C6F0C0E3D6F7B0E3E6F98
:10270800090E3F6F590E406FCE0E416F426B436BFF
:10271800BBDE61D07FCF3AF17FCF3BF10B0E3C6F30
:102728000C0E3D6F8C0E3E6F090E3F6F590E406FB9
:10273800CE0E416F426B436BA7DE4DD07FCF3AF18F
:102748007FCF3BF10B0E3C6F0C0E3D6F9D0E3E6F25
:10275800090E3F6F590E406FCE0E416F426B436BAF
:1027680093DE39D07FCF3AF17FCF3BF10B0E3C6F30
:102778000C0E3D6FAE0E3E6F090E3F6F590E406F47
:10278800CE0E416F426B436B7FDE25D07FCF3AF18F
:102798007FCF3BF10B0E3C6F0C0E3D6FBF0E3E6FB3
:1027A800090E3F6F590E406FCE0E416F426B436B5F
:1027B8006BDE11D07FCF3AF17FCF3BF10B0E3C6F30
:1027C8000C0E3D6FCE0E3E6F2B0E3F6F406B416B74
:1027D800426B436B59DE1200366F365113E0010A23
:1027E80014E0030A15E0010A16E0070A17E0010AD7
:1027F80018E0030A19E0010A1AE00F0A1BE0010AAF
:102808001CE01ED01B0E376F1CD00F0E376F19D06F
:10281800180E376F16D0170E376F13D01C0E376F80
:1028280010D0170E376F0DD0190E376F0AD0190E4A
:10283800376F07D0180E376F04D0180E376F01D0D6
:10284800376B37511200386F385117E0010A29E009
:10285800030A3AE0010A4CE0070A5EE0010A70E068
:10286800030AD8B481D0010AD8B492D00F0AD8B4D8
:10287800A3D0010AD8B4B4D0C6D036C13AF137C112
:102888003BF11B0E3C6F110E3D6FD00E3E6F090ED3
:102898003F6F590E406FCE0E416F426B436BF4DDB4
:1028A800B2D036C13AF137C13BF10F0E3C6F110E71
:1028B8003D6F0A0E3E6F3F6F590E406FCE0E416F4F
:1028C800426B436BE1DD9FD036C13AF137C13BF132
:1028D800180E3C6F110E3D6F2A0E3E6F0A0E3F6FA9
:1028E800590E406FCE0E416F426B436BCDDD8BD0DE
:1028F80036C13AF137C13BF1170E3C6F110E3D6FEF
:102908005E0E3E6F0A0E3F6F590E406FCE0E416F3E
:10291800426B436BB9DD77D036C13AF137C13BF131
:102928001C0E3C6F110E3D6F8F0E3E6F0A0E3F6FEF
:10293800590E406FCE0E416F426B436BA5DD63D0DD
:1029480036C13AF137C13BF1170E3C6F110E3D6F9E
:10295800CB0E3E6F0A0E3F6F590E406FCE0E416F81
:10296800426B436B91DD4FD036C13AF137C13BF131
:10297800190E3C6F110E3D6FFC0E3E6F0A0E3F6F35
:10298800590E406FCE0E416F426B436B7DDD3BD0DD
:1029980036C13AF137C13BF1190E3C6F110E3D6F4C
:1029A800320E3E6F0B0E3F6F590E406FCE0E416FC9
:1029B800426B436B69DD27D036C13AF137C13BF131
:1029C800180E3C6F110E3D6F680E3E6F0B0E3F6F79
:1029D800590E406FCE0E416F426B436B55DD13D0DD
:1029E80036C13AF137C13BF1180E3C6F110E3D6FFD
:1029F8009C0E3E6F0B0E3F6F590E406FCE0E416F0F
:102A0800426B436B41DD120039A103D0376B386B41
:102A180002D037693869365116E0010A26E0030A00
:102A280037E0010A49E0070A5BE0010A6DE0030AA2
:102A38007FE0010AD8B490D00F0AD8B4A1D0010A17
:102A4800D8B4B2D0C5D034C13AF135C13BF1290E62
:102A58003C6F2D0E3D6F3E6B3F6B37C140F138C167
:102A680041F1426B436B10DDC6D034C13AF135C138
:102A78003BF1290E3C6F2D0E3D6FE70E3E6F3F6B0D
:102A880037C140F138C141F1426B436BFDDCB3D033
:102A980034C13AF135C13BF1290E3C6F2D0E3D6F23
:102AA800CE0E3E6F010E3F6F37C140F138C141F184
:102AB800426B436BE9DC9FD034C13AF135C13BF13D
:102AC800290E3C6F2D0E3D6FB50E3E6F020E3F6F07
:102AD80037C140F138C141F1426B436BD5DC8BD033
:102AE80034C13AF135C13BF1290E3C6F2D0E3D6FD3
:102AF8009C0E3E6F030E3F6F37C140F138C141F164
:102B0800426B436BC1DC77D034C13AF135C13BF13C
:102B1800290E3C6F2D0E3D6F830E3E6F040E3F6FE6
:102B280037C140F138C141F1426B436BADDC63D032
:102B380034C13AF135C13BF1290E3C6F2D0E3D6F82
:102B48006A0E3E6F050E3F6F37C140F138C141F143
:102B5800426B436B99DC4FD034C13AF135C13BF13C
:102B6800290E3C6F2D0E3D6F510E3E6F060E3F6FC6
:102B780037C140F138C141F1426B436B85DC3BD032
:102B880034C13AF135C13BF1290E3C6F2D0E3D6F32
:102B9800380E3E6F070E3F6F37C140F138C141F123
:102BA800426B436B71DC27D034C13AF135C13BF13C
:102BB800290E3C6F2D0E3D6F1F0E3E6F080E3F6FA6
:102BC80037C140F138C141F1426B436B5DDC13D032
:102BD80034C13AF135C13BF1110E3C6F0F0E3D6F18
:102BE800060E3E6F090E3F6F37C140F138C141F103
:102BF800426B436B49DC120034A103D0326B336B58
:102C080002D032693369315117E0010A29E0030A19
:102C18003BE0010A4EE0070A61E0010A74E0030A9A
:102C2800D8B486D0010AD8B498D00F0AD8B4AAD09C
:102C3800010AD8B4BCD0CFD02FC13AF130C13BF192
:102C4800240E3C6F340E3D6FCD0E3E6F3D0E3F6F30
:102C580032C140F133C141F1426B436B15DCBBD04B
:102C68002FC13AF130C13BF1240E3C6F340E3D6F59
:102C7800B80E3E6F3E0E3F6F32C140F133C141F195
:102C8800426B436B01DCA7D02FC13AF130C13BF155
:102C9800240E3C6F340E3D6FA30E3E6F3F0E3F6F08
:102CA80032C140F133C141F1426B436B48EC12F041
:102CB80092D02FC13AF130C13BF1240E3C6F340E53
:102CC8003D6F8E0E3E6F400E3F6F32C140F133C1F3
:102CD80041F1426B436B48EC12F07DD02FC13AF1C1
:102CE80030C13BF1240E3C6F340E3D6F790E3E6FC0
:102CF800410E3F6F32C140F133C141F1426B436B2A
:102D080048EC12F068D02FC13AF130C13BF1240EE3
:102D18003C6F340E3D6F640E3E6F420E3F6F32C102
:102D280040F133C141F1426B436B48EC12F053D090
:102D38002FC13AF130C13BF1240E3C6F340E3D6F88
:102D48004F0E3E6F430E3F6F32C140F133C141F128
:102D5800426B436B48EC12F03ED02FC13AF130C1C0
:102D68003BF1240E3C6F340E3D6F3A0E3E6F440E1D
:102D78003F6F32C140F133C141F1426B436B48ECC4
:102D880012F029D02FC13AF130C13BF1240E3C6F2B
:102D9800340E3D6F250E3E6F450E3F6F32C140F138
:102DA80033C141F1426B436B48EC12F014D02FC190
:102DB8003AF130C13BF1240E3C6F340E3D6F100EDA
:102DC8003E6F460E3F6F32C140F133C141F1426B55
:102DD800436B48EC12F01200090E276F275137E0B9
:102DE800010A35E0030A33E0010A31E0070A2FE05F
:102DF800010A2DE0030A2BE0010A29E00F0A27E067
:102E0800010A25E10F0E3A6F1C0E3B6FD20E3C6F84
:102E1800B90E3D6FB80E3E6F0E0E3F6FE00E406F5D
:102E28004169426B436B48EC12F0120E3A6F6B0E1D
:102E38003B6FCD0E3C6F140E3D6FB10E3E6F210EF1
:102E48003F6F40694169426B436B48EC12F01200D6
:102E58000101276F1C0E3A6F150E3B6F3A0E3C6F3F
:102E6800180E3D6F9F0E3E6F330E3F6F40694169EC
:102E7800426B436B48EC12F02751010A0BE0030A3E
:102E88002FE0010A78E0070AD8B4EBD0010AD8B4D9
:102E980085D147D2440E3A6F210E3B6F090E3C6F25
:102EA8003D6F4E0E3E6F340E3F6F406BF80E416F14
:102EB800426B436B48EC12F0470E3A6F180E3B6FAB
:102EC800090E3C6F0A0E3D6F590E3E6F340E3F6F70
:102ED800406BF80E416F426B436B48EC12F021D205
:102EE8003C0E3A6F210E3B6F090E3C6F3D6F4E0E44
:102EF8003E6F340E3F6FE00E406F4169426B436B8B
:102F080048EC12F03F0E3A6F180E3B6F090E3C6FFB
:102F18000A0E3D6F590E3E6F340E3F6FE00E406F44
:102F28004169426B436B48EC12F0440E3A6F210E34
:102F38003B6F090E3C6F3D6F4E0E3E6F340E3F6F78
:102F4800E00E406F4169426B436B48EC12F0470E4C
:102F58003A6F180E3B6F090E3C6F0A0E3D6F590E03
:102F68003E6F340E3F6FE00E406F4169426B436B1A
:102F780048EC12F0D6D1340E3A6F210E3B6F090E91
:102F88003C6F3D6F4E0E3E6F340E3F6FE00E406F4C
:102F9800070E416F426B436B48EC12F0370E3A6FE5
:102FA800180E3B6F090E3C6F0A0E3D6F590E3E6FAF
:102FB800340E3F6FE00E406F070E416F426B436B5C
:102FC80048EC12F03C0E3A6F210E3B6F090E3C6F35
:102FD8003D6F4E0E3E6F340E3F6FE00E406F070E92
:102FE800416F426B436B48EC12F03F0E3A6F180E7C
:102FF8003B6F090E3C6F0A0E3D6F590E3E6F340E43
:103008003F6FE00E406F070E416F426B436B48EC19
:1030180012F0440E3A6F210E3B6F090E3C6F3D6F64
:103028004E0E3E6F340E3F6FE00E406F070E416F3D
:10303800426B436B48EC12F0470E3A6F180E3B6F29
:10304800090E3C6F0A0E3D6F590E3E6F340E3F6FEE
:10305800E00E406F070E416F426B436B48EC12F075
:1030680060D12C0E3A6F210E3B6F090E3C6F3D6FFD
:103078004E0E3E6F340E3F6FE00E406F070E416FED
:10308800426B436B48EC12F02F0E3A6F180E3B6FF1
:10309800090E3C6F0A0E3D6F590E3E6F340E3F6F9E
:1030A800E00E406F070E416F426B436B48EC12F025
:1030B800340E3A6F210E3B6F090E3C6F3D6F4E0E7A
:1030C8003E6F340E3F6FE00E406F070E416F426B4C
:1030D800436B48EC12F0370E3A6F180E3B6F090E2F
:1030E8003C6F0A0E3D6F590E3E6F340E3F6FE00E77
:1030F800406F070E416F426B436B48EC12F03C0E79
:103108003A6F210E3B6F090E3C6F3D6F4E0E3E6FBE
:10311800340E3F6FE00E406F070E416F426B436BFA
:1031280048EC12F03F0E3A6F180E3B6F090E3C6FD9
:103138000A0E3D6F590E3E6F340E3F6FE00E406F22
:10314800070E416F426B436B48EC12F0440E3A6F26
:10315800210E3B6F090E3C6F3D6F4E0E3E6F340ED5
:103168003F6FE00E406F070E416F426B436B48ECB8
:1031780012F0470E3A6F180E3B6F090E3C6F0A0E9D
:103188003D6F590E3E6F340E3F6FE00E406F070ED5
:10319800416F426B436B48EC12F0C3D0240E3A6F78
:1031A800210E3B6F090E3C6F3D6F4E0E3E6F340E85
:1031B8003F6FE00E406F070E416F426B436B48EC68
:1031C80012F0270E3A6F180E3B6F090E3C6F0A0E6D
:1031D8003D6F590E3E6F340E3F6FE00E406F070E85
:1031E800416F426B436B48EC12F02C0E3A6F210E84
:1031F8003B6F090E3C6F3D6F4E0E3E6F340E3F6FB6
:10320800E00E406F070E416F426B436B48EC12F0C3
:103218002F0E3A6F180E3B6F090E3C6F0A0E3D6F6A
:10322800590E3E6F340E3F6FE00E406F070E416F30
:10323800426B436B48EC12F0340E3A6F210E3B6F31
:10324800090E3C6F3D6F4E0E3E6F340E3F6FE00E21
:10325800406F070E416F426B436B48EC12F0370E1C
:103268003A6F180E3B6F090E3C6F0A0E3D6F590EF0
:103278003E6F340E3F6FE00E406F070E416F426B9A
:10328800436B48EC12F03C0E3A6F210E3B6F090E6F
:103298003C6F3D6F4E0E3E6F340E3F6FE00E406F39
:1032A800070E416F426B436B48EC12F03F0E3A6FCA
:1032B800180E3B6F090E3C6F0A0E3D6F590E3E6F9C
:1032C800340E3F6FE00E406F070E416F426B436B49
:1032D80048EC12F0440E3A6F210E3B6F090E3C6F1A
:1032E8003D6F4E0E3E6F340E3F6FE00E406F070E7F
:1032F800416F426B436B48EC12F0470E3A6F180E61
:103308003B6F090E3C6F0A0E3D6F590E3E6F340E2F
:103318003F6FE00E406F070E416F426B436B48EC06
:1033280012F012000001A3AB15D0960E01013A6FFE
:10333800190E3B6F430E3C6F140E3D6F260E3E6F09
:10334800350E3F6F406BF80E416F426B436B48EC94
:1033580012F027D0960E01013A6F190E3B6F430EFB
:103368003C6F140E3D6F260E3E6F350E3F6F406B5F
:10337800416B426B436B48EC12F0960E3A6F190E94
:103388003B6F420E3C6F100E3D6FA10E3E6F340E28
:103398003F6FE00E406F070E416F426B436B48EF83
:1033A80012F01200BB2D16D02B0E3A6F3B0E3B6F5E
:1033B800180E3C6F080E3D6F0A0E3E6F250E3F6FCC
:1033C800E00E406F070E416F690E426F4A0E436F61
:1033D80048EF12F01200276F275107E0010A18E0A2
:1033E800030A29E0010A3AE04BD0100E3A6F5E0E4C
:1033F8003B6F530E3C6F140E3D6FF30E3E6F350E50
:103408003F6F40694169426B436B48EC12F038D01A
:103418000C0E3A6F5F0E3B6F5B0E3C6F120E3D6FEA
:10342800C30E3E6F360E3F6F40694169426B436B76
:1034380048EC12F025D0020E3A6F610E3B6F6C0E0D
:103448003C6F0F0E3D6F900E3E6F370E3F6F406919
:103458004169426B436B48EC12F012D00F0E3A6F81
:103468005E0E3B6F550E3C6F140E3D6F5B0E3E6F4C
:10347800380E3F6F40694169426B436B48EC12F06C
:1034880012000101AD5321E0890E296F610E2A6FE8
:103498005F0E2B6F120E2C6F2D6B2E6BD5EC11F06F
:1034A800910E3A6F610E3B6F500E3C6F100E3D6FE0
:1034B800A50E3E6F3B0E3F6F690E406F4A0E416F7F
:1034C800426B436B48EC12F066D00001975198119B
:1034D80043E0A3A921D0890E0101296F610E2A6F4B
:1034E8005F0E2B6F120E2C6F2D6B2E6BD5EC11F01F
:1034F8008E0E3A6F5F0E3B6F560E3C6F120E3D6F8D
:10350800E30E3E6F3A0E3F6FE00E406F4169426B2B
:10351800436B48EC12F03FD0890E0101296F610E10
:103528002A6F5F0E2B6F120E2C6F2D6B2E6BD5EC46
:1035380011F0890E3A6F5F0E3B6F610E3C6F120EF1
:103548003D6F080E3E6F3A0E3F6F40694169426B0E
:10355800436B48EC12F01FD0890E0101296F610EF0
:103568002A6F5F0E2B6F120E2C6F2D6B2E6BD5EC06
:1035780011F0950E3A6F5F0E3B6F480E3C6F120EBE
:103588003D6F650E3E6F390E3F6F40694169426B72
:10359800436B48EF12F0120027C136F128C137F10A
:1035A8003C0E010157EC0AF036C129F127C136F16A
:1035B80028C137F13C0E83EC0AF02A6F29C136F195
:1035C800376B0A0E57EC0AF036C12BF129C136F1D8
:1035D800376B0A0E83EC0AF02C6F2AC136F1376B71
:1035E8000A0E57EC0AF036C12DF12AC136F1376BB5
:1035F8000A0E83EC0AF02E6F1D0E2F6FA60E306F89
:103608002BC131F1349100EC16F0470E2F6FA60E46
:10361800306F2CC131F1349100EC16F0730E3A6F13
:10362800B00E3B6F0A0E3C6F1E0E3D6FA70E3E6F2D
:103638003D0E3F6F40694169426B436B48EC12F0A5
:10364800850E2F6FA60E306F2DC131F1349100EC2D
:1036580016F0AF0E2F6FA60E306F2EC131F13491D8
:1036680000EF16F03A6B3B6BF00E3C6F7A0E3D6F35
:10367800230E3E6F250E3F6F690E406F4A0E416F55
:10368800426B436B48EC12F01F0E3A6F080E3B6F0B
:10369800350E3C6F070E3D6F700E3E6F330E3F6F59
:1036A800690E406F4A0E416F426B436B48EC12F053
:1036B800A00E3A6F080E3B6F350E3C6F090E3D6F3A
:1036C800650E3E6F340E3F6F690E406F4A0E416FB4
:1036D800426B436B48EC12F0260E3A6F510E3B6F6B
:1036E800240E3C6F080E3D6FCE0E3E6F350E3F6FB9
:1036F800690E406F4A0E416F426B436B48EC12F003
:10370800A10E3A6F510E3B6F340E3C6F080E3D6FA1
:10371800300E3E6F390E3F6F690E406F4A0E416F93
:10372800426B436B48EC12F01F0E3A6F890E3B6FE9
:10373800B00E3C6F100E3D6F460E3E6F3C0E3F6F55
:10374800690E406F4A0E416F426B436B48EC12F0B2
:10375800000165512CEC17F0E5DD24DEAA513BDEB3
:1037680090DE8FC027F190C028F116D7316F410A3B
:1037780063E0030A69E0010A6FE0070A75E0010ADD
:103788007BE0030AD8B480D0010AD8B485D00F0AE8
:10379800D8B48AD0010AD8B48FD0030AD8B494D048
:1037A800010AD8B498D0070AD8B49DD0010AD8B471
:1037B800A2D0030AD8B4A7D0010AD8B4ACD01F0A43
:1037C800D8B4B1D0020AD8B4B6D0010AD8B4BBD0A4
:1037D800070AD8B4C0D0010AD8B4C5D0030AD8B4EF
:1037E800CAD0010AD8B4CFD00F0AD8B4D4D0010AAD
:1037F800D8B4D9D0790AD8B4DED0100AD8B4E3D076
:10380800010AD8B4E8D0030AD8B4ECD0010AD8B475
:10381800F1D0070AD8B4F5D0010AD8B4FAD0030A0F
:10382800D8B4FED0010AD8B403D10F0AD8B408D14D
:10383800010AD8B40DD113D1D00E0001806F0B0E40
:10384800816F110E826F0BD1E80E0001806F0B0E95
:10385800816F0F0E826F03D1FD0E0001806F0B0E7A
:10386800816F0F0E826FFBD0120E0001806F0C0E5D
:10387800816F0F0E826FF3D0270E0001806F0C0E40
:10388800816F0E0E826FEBD03B0E0001806F0C0E25
:10389800816F0E0E826FE3D04F0E0001806F0C0E09
:1038A800816F110E826FDBD0670E0001806F0C0EE6
:1038B800816F100E826FD3D07E0E0001806F0C0EC8
:1038C800816F070E826FCBD0880E0001806F0C0EBF
:1038D800816F826FC4D0990E0001806F0C0E816FCA
:1038E8000E0E826FBCD0AD0E0001806F0C0E816F82
:1038F8000E0E826FB4D0C10E0001806F0C0E816F66
:10390800150E826FACD0DE0E0001806F0C0E816F39
:103918000F0E826FA4D0F30E0001806F0C0E816F22
:10392800110E826F9CD00B0E0001806F0D0E816FFF
:103938000F0E826F94D0200E0001806F0D0E816FE4
:10394800100E826F8CD0370E0001806F0D0E816FC4
:103958000F0E826F84D04C0E0001806F0D0E816FA8
:10396800100E826F7CD0630E0001806F0D0E816F88
:103978000F0E826F74D0780E0001806F0D0E816F6C
:10398800110E826F6CD0900E0001806F0D0E816F4A
:103998001A0E826F64D0B40E0001806F0D0E816F15
:1039A800100E826F5CD0CB0E0001806F0D0E816F00
:1039B800100E826F54D0490E0001806F240E816F63
:1039C800080E826F4CD0E20E0001806F0D0E816FE1
:1039D800110E826F44D0FA0E0001806F0D0E816FB8
:1039E800826F3DD00C0E0001806F0E0E816F0F0E9E
:1039F800826F35D0210E0001806F0E0E816F826FAD
:103A08002ED0350E0001806F0E0E816F120E826F60
:103A180026D04E0E0001806F0E0E816F826F1FD070
:103A2800620E0001806F0E0E816F0F0E826F17D02D
:103A3800770E0001806F0E0E816F110E826F0FD00E
:103A48008E0E0001806F0E0E816F0F0E826F07D0F1
:103A5800A30E0001806F0E0E816F0F0E826F0001A2
:103A680012002D6B2E6B2F6B2F6B2C512F6110D0EA
:103A78002F512A25316F000E2B21326F0FEC52F097
:103A880075DE825101012D27020E2D272F2BEDD730
:103A9800020E2D5F2D51F0082E6FD8902E332F6B0C
:103AA8002C512F6144D02F512A25316F000E2B2124
:103AB800326F0FEC52F05ADE010130B108D0490ED6
:103AC8000001806317D0240E816314D001012EC138
:103AD8003AF129C13BF182C03CF10B0E3D6F80C029
:103AE8003EF181C03FF1406B416B426B436B48EC48
:103AF80012F015D02EC13AF129C13BF182C03CF138
:103B08000B0E01013D6F80C03EF181C03FF1590E9F
:103B1800406FCE0E416F426B436B48EC12F00001D0
:103B2800825101012E27020E2E272F2BB9D7120002
:103B3800BEC136F1BFC137F1C0C138F1E80E396FE7
:103B4800030E3A6F6AEC0AF036C128F137C129F141
:103B5800BEC136F1BFC137F1C0C138F1E80E396FC7
:103B6800030E3A6F96EC0AF03BC12AF13CC12BF1E7
:103B780028C136F129C137F1640E57EC0AF036C175
:103B88002CF128C136F129C137F1640E83EC0AF013
:103B98002D6F2DC136F1376B0A0E57EC0AF036C17E
:103BA8002EF12DC136F1376B0A0E83EC0AF02F6F18
:103BB8002AC136F12BC137F1640E57EC0AF036C131
:103BC80030F12AC136F12BC137F1640E83EC0AF0CB
:103BD800316F31C136F1376B0A0E57EC0AF036C136
:103BE80032F131C136F1376B0A0E83EC0AF0336FCC
:103BF800346B2C51F0EC13F03427060E34272E5179
:103C0800F0EC13F03427060E34272F51F0EC13F0A4
:103C18003427060E34273051F0EC13F03427060E03
:103C280034273251F0EC13F03427060E3427335181
:103C3800F0EC13F034273451F008356FD890353351
:103C480035C136F17C0E376F2C5127EC14F02C510E
:103C5800F0EC13F03527060E352735C136F17C0E0A
:103C6800376F2E5127EC14F02E51F0EC13F0352756
:103C7800060E352735C136F17C0E376F2F5127ECEC
:103C880014F02F51F0EC13F03527060E352735C107
:103C980036F17C0E376F305127EC14F03051F0ECD0
:103CA80013F03527060E352735C136F17C0E376FF0
:103CB800325127EC14F03251F0EC13F03527060E90
:103CC800352735C136F17C0E376F335127EF14F0A5
:103CD8000C0E01013A6F3B6FD80E3C6F060E3D6F1C
:103CE800B20E3E6F230E3F6F670E406FD50E416FC9
:103CF800426B436B48EC12F00C0E3A6F460E3B6F6A
:103D0800D80E3C6F060E3D6F550E3E6F240E3F6F6A
:103D1800670E406FD50E416F426B436B48EC12F053
:103D28000C0E3A6FBD0E3B6FD80E3C6F060E3D6F02
:103D3800B20E3E6F230E3F6F670E406FD50E416F78
:103D4800426B436B48EC12F00C0E3A6FE00E3B6F7F
:103D5800D80E3C6F060E3D6F550E3E6F240E3F6F1A
:103D6800670E406FD50E416F426B436B48EC12F003
:103D78001E0E296F2A6B2B6B0B0E2C6F309171DE88
:103D88002F0E296F0C0E2A6F2B6B040E2C6F30919F
:103D980068DECC0E296F5C0E2A6F2B6B060E2C6F1B
:103DA80030915FD60C0E01013A6F3B6FD80E3C6F15
:103DB800060E3D6FB20E3E6F230E3F6F670E406FCB
:103DC800D50E416F426B436B48EC12F00C0E3A6F04
:103DD800460E3B6FD80E3C6F060E3D6F550E3E6F7C
:103DE800240E3F6F670E406FD50E416F426B436BD9
:103DF80048EC12F00C0E3A6FBD0E3B6FD80E3C6FBC
:103E0800060E3D6FB20E3E6F230E3F6F670E406F7A
:103E1800D50E416F426B436B48EC12F00C0E3A6FB3
:103E2800E00E3B6FD80E3C6F060E3D6F550E3E6F91
:103E3800240E3F6F670E406FD50E416F426B436B88
:103E480048EC12F0289109D8CC0E296F110E2A6F70
:103E58002B6B070E2C6F309104D628A103D0BDC060
:103E680027F102D0BCC027F127512CE0010A36E027
:103E7800030A40E0010A4AE0070A5FE0010A73E02A
:103E8800030AD8B487D0010AD8B490D00F0AD8B49E
:103E980099D0010AD8B4A2D0030AD8B4B6D0010A7E
:103EA800D8B4BFD0070AD8B4C8D0010AD8B4DCD077
:103EB800030AD8B4E6D0010AD8B4FAD01F0AD8B495
:103EC80004D119D1260E296F820E2A6F2B6B0B0E87
:103ED8002C6F309128B13081C4DD0DD1260E296FA9
:103EE8008E0E2A6F2B6B0A0E2C6F309128B1308101
:103EF800B8DD01D1260E296F990E2A6F2B6B050E9E
:103F08002C6F309128B13081ACDDF5D01E0E296FB1
:103F1800190E2A6F2B6B060E2C6F309128B1308149
:103F2800A0DD2F0E296F200E2A6F2B6B060E2C6F2B
:103F3800309128B1308195DDDED01E0E296F270E15
:103F48002A6F2B6B070E2C6F309128B1308189DDD9
:103F58002F0E296F2A6F2B6B060E2C6F309128B10C
:103F680030817FDDC8D01E0E296F360E2A6F2B6B6D
:103F7800060E2C6F309128B1308173DD2F0E296F1A
:103F88003D0E2A6F2B6B0A0E2C6F309128B13081B1
:103F980068DDB1D0260E296FC10E2A6F2B6B080E73
:103FA8002C6F309128B130815CDDA5D0260E296FA9
:103FB800CA0E2A6F2B6B090E2C6F309128B13081F5
:103FC80050DD99D0260E296FD40E2A6F2B6B090E5F
:103FD8002C6F309128B1308144DD8DD01E0E296FB1
:103FE800480E2A6F2B6B040E2C6F309128B130814C
:103FF80038DD2F0E296F4D0E2A6F2B6B080E2C6F94
:10400800309128B130812DDD76D0260E296F560EDD
:104018002A6F2B6B0C0E2C6F309128B1308121DD6B
:104028006AD0260E296FF30E2A6F2B6B0B0E2C6F9E
:10403800309128B1308115DD5ED01E0E296FF30E48
:104048002A6F2B6B0B0E2C6F309128B1308109DD54
:104058002F0E296F930E2A6F2B6B050E2C6F309144
:1040680028B13081FEDC47D0260E296F0B0E2A6F4F
:10407800010E2B6F080E2C6F309128B13081F1DCC6
:104088003AD01E0E296F630E2A6F2B6B080E2C6F09
:10409800309128B13081E5DC2F0E296F6C0E2A6F24
:1040A8002B6B070E2C6F309128B13081DADC23D0CE
:1040B800260E296F1D0E2A6F010E2B6F080E2C6F0E
:1040C800309128B13081CDDC16D01E0E296F740EC8
:1040D8002A6F2B6B070E2C6F309128B13081C1DC11
:1040E8002F0E296F7C0E2A6F2B6B050E2C6F3091CB
:1040F80028B13081B6DC12002DA103D0296B2A6BC0
:1041080004D0E00E296F070E2A6F2B6B2C6B2851F9
:104118000EE0010A39E0030A64E0010AD8B48ED03F
:10412800070AD8B4B8D0010AD8B4E2D00DD10C0E21
:104138003A6F540E3B6F060E3C6F0B0E3D6FF80E38
:104148003E6F240E3F6F29C140F12AC141F12BC1B6
:1041580042F12CC143F148EC12F0DE0E3A6F540ED6
:104168003B6F060E3C6F0B0E3D6F010E3E6F250E2A
:104178003F6F29C140F12AC141F12BC142F12CC145
:1041880043F148EC12F0E0D00C0E3A6F650E3B6F2D
:10419800060E3C6F0B0E3D6FF80E3E6F240E3F6F00
:1041A80029C140F12AC141F12BC142F12CC143F18F
:1041B80048EC12F0DE0E3A6F650E3B6F060E3C6F50
:1041C8000B0E3D6F010E3E6F250E3F6F29C140F16A
:1041D8002AC141F12BC142F12CC143F148EC12F044
:1041E800B3D00C0E3A6F760E3B6F060E3C6F0B0E7B
:1041F8003D6FF80E3E6F240E3F6F29C140F12AC172
:1042080041F12BC142F12CC143F148EC12F0DE0E12
:104218003A6F760E3B6F060E3C6F0B0E3D6F010E2C
:104228003E6F250E3F6F29C140F12AC141F12BC1D4
:1042380042F12CC143F148EC12F086D00C0E3A6FD3
:10424800870E3B6F060E3C6F0B0E3D6FF80E3E6FF0
:10425800240E3F6F29C140F12AC141F12BC142F11F
:104268002CC143F148EC12F0DE0E3A6F870E3B6F1B
:10427800060E3C6F0B0E3D6F010E3E6F250E3F6F15
:1042880029C140F12AC141F12BC142F12CC143F1AE
:1042980048EC12F059D00C0E3A6F980E3B6F060E90
:1042A8003C6F0B0E3D6FF80E3E6F240E3F6F29C119
:1042B80040F12AC141F12BC142F12CC143F148EC34
:1042C80012F0DE0E3A6F980E3B6F060E3C6F0B0E27
:1042D8003D6F010E3E6F250E3F6F29C140F12AC187
:1042E80041F12BC142F12CC143F148EC12F02CD022
:1042F8000C0E3A6FA90E3B6F060E3C6F0B0E3D6F0E
:10430800F80E3E6F240E3F6F29C140F12AC141F1DA
:104318002BC142F12CC143F148EC12F0DE0E3A6F8A
:10432800A90E3B6F060E3C6F0B0E3D6F010E3E6FE4
:10433800250E3F6F29C140F12AC141F12BC142F13D
:104348002CC143F148EC12F012000C0E0101296F48
:10435800D80E2A6F4C0E2B6F710E2C6F2D6B2E6B97
:10436800D5EC11F0000100D0BC5124E0010A22E094
:10437800030A20E0010A1EE0070A1CE0010A1AE00D
:10438800030A56E0010A54E00F0A52E0010A50E01D
:10439800030A4EE0010A4CE0070AD8B487D0010AA4
:1043A800D8B484D0030AD8B481D0010A7FE01F0AA8
:1043B8007DE0B2D0540E0101296F820E2A6F2B6B5B
:1043C8000B0E2C6F309135EC1DF0650E296F8E0E9B
:1043D8002A6F2B6B0A0E2C6F309135EC1DF0760E80
:1043E800296F990E2A6F2B6B050E2C6F309135ECC7
:1043F8001DF0870E296F9F0E2A6F2B6B0A0E2C6FEC
:10440800309135EC1DF0980E296FAA0E2A6F2B6B90
:104418000B0E2C6F309135EC1DF0A90E296FB60EDE
:104428002A6F2B6B0A0E2C6F309135EC1DF074D06F
:10443800540E0101296FC10E2A6F2B6B080E2C6FC9
:10444800309135EC1DF0650E296FCA0E2A6F2B6B63
:10445800090E2C6F309135EC1DF0760E296FD40EB5
:104468002A6F2B6B090E2C6F309135EC1DF0870EDF
:10447800296FDE0E2A6F2B6B0A0E2C6F309135ECEC
:104488001DF0980E296FE90E2A6F2B6B090E2C6F01
:10449800309135EC1DF0A90E296FF30E2A6F2B6BA6
:1044A8000B0E2C6F309135EC1DF036D0540E0101F7
:1044B800296F2A692B6B0B0E2C6F309135EC1DF090
:1044C800650E296F0B0E2A6F010E2B6F080E2C6FCD
:1044D800309135EC1DF0760E296F140E2A6F010EFF
:1044E8002B6F080E2C6F309135EC1DF0870E296F5D
:1044F8001D0E2A6F010E2B6F080E2C6F309135ECB4
:104508001DF0980E296F260E2A6F010E2B6F0B0EC9
:104518002C6F309135EC1DF0010112002AC136F1E3
:10452800376B640E57EC0AF036C12BF12AC136F10D
:10453800376B640E83EC0AF02C6F2CC136F1376BA5
:104548000A0E57EC0AF036C12DF12CC136F1376B43
:104558000A0E83EC0AF02E6F030E2F6F020E306FD7
:104568002B6706D02D6704D0010E2F6F306B06D055
:104578002B6704D0020E2F6F010E306F290E2F0308
:10458800F3CF31F1305131273151F008326FD890E3
:1045980032332F51010A05E0030A0FE0010A25E032
:1045A80047D032C134F129C135F12EC136F13991E4
:1045B80033B1398108EC15F03BD032C134F129C14F
:1045C80035F12DC136F1399133B1398108EC15F047
:1045D8002A0E3225346F29C135F12EC136F13991B1
:1045E80033B1398108EC15F023D032C134F129C137
:1045F80035F12BC136F1399133B1398108EC15F019
:104608002A0E3225346F29C135F12DC136F1399181
:1046180033B1398108EC15F0540E3225346F29C1B5
:1046280035F12EC136F1399133B1398108EC15F0E5
:104638001200AA5106E0010A04E0020A02E0010A97
:104648002CE1540E296F320E2A6F010E2B6F050EC6
:104658002C6F309135EC1DF0650E296F380E2A6FDE
:10466800010E2B6F050E2C6F309135EC1DF0760E78
:10467800296F3E0E2A6F010E2B6F070E2C6F30919B
:1046880035EC1DF0870E296F460E2A6F010E2B6F31
:10469800040E2C6F309135EC1DF01200540E296F6A
:1046A800750E2A6F010E2B6F030E2C6F309135ECAF
:1046B8001DF0650E296F710E2A6F2B6B020E2C6F81
:1046C800309135EF1DF0540E296F750E2A6F010ECB
:1046D8002B6F030E2C6F309135EC1DF0650E296F92
:1046E800790E2A6F010E2B6F030E2C6F309135EC6B
:1046F8001DF0760E296F4B0E2A6F010E2B6F060EDA
:104708002C6F309135EC1DF0870E296F7D0E2A6FC6
:10471800010E2B6F040E2C6F309135EF1DF0BD513B
:10472800640A05E00A0A0FE0010A24E044D0540EA6
:10473800296F520E2A6F010E2B6F070E2C6F3091C6
:1047480035EC1DF038D0540E296F520E2A6F010E29
:104758002B6F070E2C6F309135EC1DF0650E296F0D
:104768005A0E2A6F010E2B6F060E2C6F309135EC06
:104778001DF021D0540E296F520E2A6F010E2B6F97
:10478800070E2C6F309135EC1DF0650E296F5A0E0F
:104798002A6F010E2B6F060E2C6F309135EC1DF031
:1047A800760E296F610E2A6F010E2B6F060E2C6F85
:1047B800309135EC1DF01200540E296F750E2A6FDA
:1047C800010E2B6F030E2C6F309135EC1DF0650E2A
:1047D800296F790E2A6F010E2B6F030E2C6F309103
:1047E80035EC1DF0760E296F7D0E2A6F010E2B6FAA
:1047F800040E2C6F309135EF1DF0540E296F680EA2
:104808002A6F010E2B6F040E2C6F309135EC1DF0C2
:10481800650E296F6D0E2A6F010E2B6F070E2C6F18
:10482800309135EF1DF0540E296F790E2A6F010E65
:104838002B6F030E2C6F309135EC1DF0650E296F30
:10484800750E2A6F010E2B6F030E2C6F309135EF0A
:104858001DF0540E296F790E2A6F010E2B6F030E6F
:104868002C6F309135EC1DF0650E296F7D0E2A6F87
:10487800010E2B6F040E2C6F309135EF1DF00001E7
:10488800BC512CE0010A39E0030A50E0010A67E054
:10489800070A70E0010A79E0030AD8B481D0010A56
:1048A800D8B49BD00F0AD8B4A3D0010AD8B4ABD0DF
:1048B800030AD8B4FFD0010AD8B407D1070AD8B47C
:1048C8001DD1010AD8B433D1030AD8B43BD1010AA7
:1048D800D8B471D11F0AD8B472D17BD10101A9DE35
:1048E800AAC136F1376B060E83EC0AF0286F2D91BA
:1048F80003DCAA51A3EC10F06CD15F0E0101296F03
:10490800ABC12AF133910ADE9E0E296F950E2A6FEC
:10491800010E2B6F070E2C6F309135EC1DF0AB514B
:10492800E6EC0FF02C0E9AEC0EF053D15F0E01015D
:10493800296FACC12AF13391F1DD9E0E296F880EE3
:104948002A6F010E2B6F0C0E2C6F309135EC1DF079
:10495800AC51E6EC0FF02B0E9AEC0EF03AD10101B7
:104968009DDEADC128F12D9180EC20F0AD51BDEC5C
:1049780010F02FD10101A7DEAEC128F12D9180ECF6
:1049880020F0AE51C8EC10F024D1010115DFAFC101
:1049980028F12D9180EC20F0AF51FAEC10F019D1EC
:1049A8005F0E0101296F0A0EB003F3CF2AF133918C
:1049B800B5DD9E0E296F8D0E2A6F010E2B6F070E27
:1049C8002C6F309135EC1DF00A0EB003F350E6EC75
:1049D8000FF03F0E9AEC0EF0FCD0010124DFB1C1BC
:1049E80028F12D9180EC20F0B1514AEC11F0F1D072
:1049F80001012FDFB2C128F12D9180EC20F0B251D6
:104A080055EC11F0E6D00101B55127E15B0EB46118
:104A180024D05F0E296FB4C12AF133917FDD9E0E39
:104A2800296F820E2A6F010E2B6F050E2C6F3081B5
:104A380035EC1DF09E0E296F950E2A6F010E2B6F17
:104A4800070E2C6F309135EC1DF0B451E6EC0FF0E9
:104A58002C0E9AEC0EF00101BCD0B4C136F1B5C1F0
:104A680037F13C0E57EC0AF036C128F15F0E296F7A
:104A780028C12AF1339152DD9E0E296F950E2A6FB7
:104A8800010E2B6F070E2C6F308135EC1DF09E0E3A
:104A9800296F820E2A6F010E2B6F050E2C6F309135
:104AA80035EC1DF02851E6EC0FF0220E9AEC0EF0D2
:104AB80001018FD0010133DEB6C128F12D9180ECC0
:104AC80020F0B651E2EC10F084D05F0E0101296F9E
:104AD800B7C12AF1339122DD9E0E296F880E2A6F05
:104AE800010E2B6F0C0E2C6F309135EC1DF0B75169
:104AF800E6EC0FF02B0E9AEC0EF06BD05F0E010176
:104B0800296FB8C12AF1339109DD9E0E296F950EE0
:104B18002A6F010E2B6F070E2C6F309135EC1DF0AC
:104B2800B851E6EC0FF02C0E9AEC0EF052D00101C1
:104B3800B5DDBBC128F12D9180EC20F0BB51BDEC57
:104B480010F047D0290E0101276F27C134F16E0EEE
:104B5800356F010E366F399108EC15F02F0E2727A7
:104B680027C134F18C0E356F0A0E366F399108EC77
:104B780015F0170E272727C134F16E0E356F366BE7
:104B8800399108EC15F02F0E272727C134F16E0E46
:104B9800356F090E366F399108EC15F0340E9AEC22
:104BA8000EF0360E9AEC0EF0570E9AEC0EF02E0E12
:104BB8009AEC0EF00ED001019CEC1DF00AD0010118
:104BC8001CDEC7C128F12D9180EC20F0C7513FECC5
:104BD80011F00101120065512CEC17F000011200D0
:104BE80096EC19F000011200AA51EFEF19F045EC0C
:104BF8001AF0000112008FC027F190C028F1D0EC04
:104C08001AF000011200280E01012B6F000E60EC53
:104C180011F0276B286B15EC12F0010136EC1BF034
:104C2800290E2B6F000E60EC11F000011200C0532A
:104C38000101D8B4A9EC21F0C1C028F12D8180EC84
:104C480020F0C0C028F12D9180EC20F00001120066
:104C5800D6EC1EF000011200F29E7EA102D0BBDF4E
:104C68007E917EA302D0BCDF7E937EA504D0010195
:104C7800BBDF00017E957EA702D0B9DF7E977EA9B3
:104C880002D0B9DF7E997EAB02D0BDDF7E9B7EADC0
:104C980002D0CDDF7E9D7EAF02D0DADF7E9FF28E1E
:104CA8001200836B846B856B866B876B886B120035
:104CB800832B000E8423D00E835D070E845914E3E2
:104CC800836B846B850E0101276FADEC0AF085C0FC
:104CD80036F186C037F13C0E83EC0AF0000A000179
:104CE80003E1872B000E88231200200E9B6307D058
:104CF8004E0E9C6304D017EC11F0ACEF0EF01200CE
:104D08008D6B8E6B0101AB513C0DF3CF8FF0F4CF5F
:104D180090F012008D6B8E6B8F6B906B12008D2B49
:104D2800000E8E23F00E8D5D060E8E5909E38D6BF5
:104D38008E6B8F51901104E08F07000E905B7E8977
:104D48001200896B8A6B8B6B8C6B1200892B000E9F
:104D58008A23D00E895D070E8A5907E3896B8A6B0F
:104D68008B0E0101276FADEF0AF01200A3A704D044
:104D7800010142EC0DF0000101017EEC0DF065EC43
:104D88000BF00001FFD787510101B4630CD000017B
:104D980088510101B56307D0B6EC0EF0370E9AECD6
:104DA8000EF0ACEC0EF0000187510101B45D00017A
:104DB80088510101B55903E2000169A1D7DF00015B
:104DC800120080A40CD0956B966B910E0101276F91
:104DD800ADEC0AF091C093F092C094F007D0916BBB
:104DE800926B950E0101276FADEF0AF012009F51EB
:104DF80005E0010A10E0030A1BE028D0140E9163B5
:104E080025D0926723D034EC0EF04BDF9ADFA06BED
:104E1800010E9F6F1BD0140E956318D0966716D09D
:104E2800A02B020EA06301D0A381020E9F6F0ED0AB
:104E3800140E916305D0926703D0010E9F6F120084
:104E4800E90E955D030E965901E39F6B1200A3B31B
:104E580016D0A3B714D0B35103E1130EB2650FD027
:104E6800010EA4650CD0070EA46109D0A383B6EC8B
:104E78000EF0A00EA56F0F0EA66F070EA46FA4511B
:104E88001EE0010A54E0030AD8B4A3D0010AD8B43A
:104E9800B0D0070AD8B4B2D0010AD8B4BDD0030A3A
:104EA800D8B4BFD0010AD8B4CED00F0AD8B4D8D05D
:104EB800010AD8B4E2D0030AD8B4F6D0FDD0A52BA5
:104EC800000EA623940EA56304D0110EA66301D08C
:104ED8004DDFA3B106D0B80E9163EED00B0E9263EE
:104EE800EBD0A3A704D0040E0101686F03D0020E13
:104EF8000101686FA9EC11F0276B286B15EC12F013
:104F08000101F0EC16F0290E2B6F000E60EC11F089
:104F18000001F3D8390E9AEC0EF0440E9AEC0EF01C
:104F2800ACEC0EF0A56BA66B010EA46F1200A52BBE
:104F3800000EA623D00EA55D070EA659D8A0BCD09A
:104F4800965103E14F0E9565B7D069B1B5D0A3A7C7
:104F58002CD0BC6B280E01012B6F000E60EC11F0F9
:104F6800276B286B15EC12F0BC6BC06B6CEC1EF059
:104F7800A9EC21F0C0C028F12D9180EC20F0290E79
:104F88002B6F000E60EC11F03B0E9AEC0EF02D0E1C
:104F98009AEC0EF0280E9AEC0EF011EC10F0ACEC36
:104FA8000EF06997080EA46F87D00101C4530CE076
:104FB800560E9AEC0EF0440E9AEC0EF0ACEC0EF095
:104FC8006997020EA46F78D000016997070EA46F45
:104FD80073D034EC0EF0010EA86FA96BAA6BAB6B03
:104FE80073EC10F0ACEC0EF0A56BA66B030EA46F7F
:104FF80063D069B161D0040EA46F5ED01C0E9AEC28
:105008000EF00101AA51A3EC10F0ACEC0EF0A56B68
:10501800A66B050EA46F50D069B14ED0060EA46FD2
:105028004BD080B60BD0490E9AEC0EF0060E9AECD7
:105038000EF0150E9AEC0EF0ACEC0EF0A56BA66B0C
:10504800070EA46F39D069B137D07E6B7F6BDBDD7B
:10505800A391699526DEA56BA66B080EA46F2CD0CC
:10506800A50E0101276FADEC0AF0A00E915D0F0EA1
:10507800925922E3090EA46F1FD069856989070E2A
:105088000101686F370E9AEC0EF0ACEC0EF0280EAA
:1050980001012B6F000E60EC11F0276B286B15ECEB
:1050A80012F00A0EA46F08D069B106D0965103E138
:1050B8004F0E956501D05ADE1200A85103E0010A8F
:1050C8000FE01AD034EC0EF06651651903E07E81CA
:1050D80065C066F0A96BAA6BAB6B010EA86F0CD00C
:1050E800A92B000EAA23AB23C00EA95DD40EAA5982
:1050F800010EAB5901E3A86B12000101AF5105E0A5
:10510800010A07E0030A09E00BD0000E36EC0CF0A8
:1051180007D0660E36EC0CF003D0F30E36EC0CF02C
:105128000001A3A707D0F30E36EC0CF0030EC46FF2
:10513800010EC66F010112008B518C110DE18951CE
:105148008A110AE1080EA46307D0D7DF290E2B6F56
:10515800000E60EC11F000018B510101C2631FD0F9
:1051680000018C510101C3631AD0000189518A11D1
:1051780016E10101AF51010A02E0030A10E1C52D51
:105188000AD0000E36EC0CF0280E2B6F000E60ECE7
:1051980011F0000104D00D0E36EC0CF000010001F6
:1051A800120067EC0BF008E3B46BB56BB20E0101AB
:1051B800276FADEC0AF007D0B26BB36BB40E0101E8
:1051C800276FADEF0AF01200AF5105E0010A0EE0BB
:1051D800020A16E01DD0B35103E1140EB26518D0CF
:1051E80069B516D0AE85010EAF6F12D0B55103E187
:1051F800C80EB4650DD069B50BD0AE87AF6B08D0BB
:10520800A45306E0B55103E1C70EB46501D0AF6BF6
:1052180012006BEC0BF008E39D6B9E6B9B0E01017B
:10522800276FADEC0AF007D09B6B9C6B9D0E0101BC
:10523800276FADEF0AF01200AD5109E0010A0DE049
:10524800030A1BE0010A2AE0070A61E06CD048EC77
:105258000CF0A39B010EAD6F66D09C5103E1C80E04
:105268009B6561D0A39146EC0CF01B0E9AEC0EF0F6
:10527800ACEC0EF0020EAD6F56D09E5103E1C80E95
:105288009D6551D069B14FD03BDD0001AE95AE9719
:10529800A38B7E837E89030EAD6F45D09C5102E1BE
:1052A800C90E9B61AE838F519011D8B4A38F030EA2
:1052B800B96301D0AE810101AA51010A07E0030ACE
:1052C80005E0020A0AE0030A08E00FD00001AEB3C5
:1052D80002D0A3AF0AD0A38D08D00001AEB304D08A
:1052E800AEB102D0A3AF01D0A38D0001A3AD1BD0F6
:1052F80048EC0CF01A0E9AEC0EF0ACEC0EF0A39BF6
:10530800A39DAE93A39FAE91040EAD6F0CD09E519A
:1053180003E1C80E9D6507D069B105D0FBDC7E832B
:105328007E89010EAD6F12006FEC0BF008E3996BEC
:105338009A6B970E0101276FADEC0AF007D0976BB7
:10534800986B990E0101276FADEF0AF01200AC516E
:1053580005E0010A0EE0030A16E01DD0985103E1AA
:10536800C80E976503D0020EAC6F15D0010EAC6F56
:1053780012D0985103E1C80E97650DD0A3997E8786
:10538800020EAC6F08D09A5103E1C80E996503D09C
:105398007E87010EAC6F120085510101B96307D0F9
:1053A800000186510101BA6302D00001698B000136
:1053B8001200A3AB0CD0A3B90AD069A31FD069937C
:1053C8000101276B070EC0EC0BF0000117D0A3AB4F
:1053D8000DD0A3A90BD069A311D06993030E0101C5
:1053E800276F070EC0EC0BF0000108D0020E010178
:1053F800686F68C127F1C651FFEF0BF01200915199
:105408009211D8A44ED49B519C11D8A44AD4B2511D
:10541800B311D8A446D41200AA5107E0010A05E046
:10542800020A03E0010A07E00BD00001AEA508D08C
:10543800AE95AE8905D00001AEA702D0AE97AE8971
:1054480000011200699F0101AD05000104E0020E90
:10545800AC6302D0A3A9698F1200B65105E0010A16
:1054680009E0030A17E021D0808AB76BB86B010EF8
:10547800B66F1BD0B70E0101276FADEC0AF0B8511B
:1054880003E11D0EB76511D0809AB76BB86B020E99
:10549800B66F0BD0B70E0101276FADEC0AF0900E76
:1054A800B75D010EB85901E3B66B1200700E975D37
:1054B800170E98590CE3700E9B5D170E9C5907E365
:1054C800700EB25D170EB35902E3AE8BC6D7AEAB02
:1054D8000AD0809AAE9BB76BB86BB66B030EAD6FF4
:1054E800A38DA3897E87B95105E0030A33E0070A33
:1054F8003FE053D0AEA90DD0A3AB02D069BF09D00D
:10550800AE9969B105D0160E9AEC0EF0ACEF0EF01C
:105518001200AEA942D0A3AB40D069AF3ED0AE993D
:105528006CC1ACF169AB05D0699BD8900101B73566
:10553800AC270101AD53000102E1A3897E87ACC10C
:10554800BAF0BB6BBA51BB1102E0808A698D030EB9
:10555800B96F23D0BA51BB1103E0BA07000EBB5B89
:10556800BA51BB111AE1809A699D040EB96F15D022
:10557800F50EB45D010EB55910E39F0E0101BE5D35
:10558800860EBF59010EC05904E2BE2B000EBF2380
:10559800C0230001AE95AE99B96B1200BC5121E051
:1055A800010A22E0030A23E0010A24E0070A25E0B1
:1055B800010A26E0030A27E0010A28E00F0A29E089
:1055C800010A2AE0030A2BE0010A2CE0070A2DE071
:1055D800010A2EE0030A2FE0010A30E01F0A31E039
:1055E80031D0010EBC6F2ED0020EBC6F2BD0030E33
:1055F800BC6F28D0040EBC6F25D0050EBC6F22D01E
:10560800060EBC6F1FD0070EBC6F1CD0080EBC6FF7
:1056180019D0090EBC6F16D00A0EBC6F13D00B0E32
:10562800BC6F10D00C0EBC6F0DD00D0EBC6F0AD025
:105638000E0EBC6F07D00F0EBC6F04D0100EBC6FDF
:1056480001D0BC6B1200296F276102D0272B02D032
:1056580028C127F127511200180EB36114D0090E82
:10566800B36102D0B32B11D0120EB36109D0090E69
:10567800B36303D00C0EB36F08D0060EB32705D062
:10568800180EB36F02D0010EB36F1200BC512DE09B
:10569800010A42E0030A57E0010A6CE0070A7FE0CA
:1056A800010AD8B491D0030AD8B4A3D0010AD8B457
:1056B800B7D00F0AD8B4C9D0010AD8B4DBD0030ACE
:1056C800D8B4EFD0010AD8B417D1070AD8B42AD170
:1056D800010AD8B43ED1030AD8B464D1010AD8B4B7
:1056E80061D11F0AD8B44AD15DD1AAC128F10101FC
:1056F8002D8180EC20F0AAC127F1286B030EA3DFCF
:10570800AA6F1DEC23F0AAC128F12D9180EC20F09E
:10571800AA51A3EC10F046D1ABC127F1010E01014B
:10572800286F3C0E90DFAB6F0C0E296FD80E2A6FD6
:105738005F0E2B6F2D0E2C6F2D6B2E6BD5EC11F091
:1057480043EC24F02FD1ACC127F10A0E0101286FD8
:10575800320E79DFAC6F0C0E296FD80E2A6F5F0EF0
:105768002B6F2D0E2C6F2D6B2E6BD5EC11F043EC9F
:1057780024F018D1ADC128F101012D8180EC20F071
:10578800ADC127F1286B010E5EDFAD6FADC128F109
:105798002D9180EC20F0AD51BDEC10F003D1AEC1DD
:1057A80028F101012D8180EC20F0AEC127F1286B92
:1057B800030E49DFAE6FAEC128F12D9180EC20F0C9
:1057C800AE51C8EC10F0EED0AFC128F101012D8127
:1057D80080EC20F0AFC127F1286B020E34DFAF6FE9
:1057E800AFC128F12D9180EC20F0AF51FAEC10F008
:1057F800D9D0B0C127F1010E0101286F060E23DFB1
:10580800B06F0C0E296FD80E2A6F5F0E2B6F2D0EFE
:105818002C6F2D6B2E6BD5EC11F043EC24F0C2D01D
:10582800B1C128F101012D8180EC20F0B1C127F12F
:10583800286B010E08DFB16FB1C128F12D9180EC02
:1058480020F0B1514AEC11F0ADD0B2C128F10101FC
:105858002D8180EC20F0B2C127F1286B010EF3DE18
:10586800B26FB2C128F12D9180EC20F0B25155EC05
:1058780011F098D00101F0DEB3510A0DF3CFB4F165
:10588800F4CFB5F10C0E296FD80E2A6F5F0E2B6F6F
:105898002D0E2C6F2D6B2E6BD5EC11F043EC24F0F4
:1058A80081D0B6C128F101012D8180EC20F0BD51D5
:1058B800640A05E00A0A0AE0010A0FE014D0B6C13A
:1058C80027F1286B000EBFDEB66F0DD0B6C127F1E9
:1058D800286B010EB8DEB66F06D0B6C127F1286B6B
:1058E800020EB1DEB66FB6C128F12D9180EC20F022
:1058F800B651E2EC10F056D0B7C127F10101286B80
:10590800140EA1DEB76F0C0E296FD80E2A6F5F0E2A
:105918002B6F2D0E2C6F2D6B2E6BD5EC11F043ECED
:1059280024F040D0B8C127F1010E0101286F0F0EF5
:105938008ADEB86F0C0E296FD80E2A6F5F0E2B6F98
:105948002D0E2C6F2D6B2E6BD5EC11F043EC24F043
:1059580029D0BBC128F101012D8180EC20F0BBC109
:1059680027F1286B010E6FDEBB6FBBC128F12D91AB
:1059780080EC20F0BB51BDEC10F014D0C7C128F169
:1059880001012D8180EC20F0C7C127F1286B010EA1
:105998005ADEC76FC7C128F12D9180EC20F0C7519E
:1059A8003FEC11F001011200275100019D5D01013A
:1059B800285100019E5903E30101298102D0010108
:1059C8002991D89029B1D8801200275100019B5DF8
:1059D8000101285100019C5903E30101298102D0EA
:1059E80001012991D89029B1D880120027510001CE
:1059F800955D010128510001965903E301012981B0
:105A080002D001012991D89029B1D88012002751DC
:105A18000001915D010128510001925903E3010140
:105A2800298102D001012991D89029B1D88012008A
:105A3800C45110E0010A1FE0030A48E0010A64E0CB
:105A4800070AD8B488D0010AD8B4ADD0030AD8B4AC
:105A5800BAD0EBD0500E0101276F286BA5DFD8A074
:105A6800E4D0500E276F286BC1DFD8A0DED0010E1E
:105A78000001C46FDAD069B109D0140E0101276F93
:105A8800286BA3DF03E3020E0001C46F000169B1B4
:105A980009D0140E0101276F286BB9DF03E3030E49
:105AA8000001C46F000169B1C0D0AEADBED0E80E30
:105AB8000101276F030E286F77DFD8A0B6D0000149
:105AC800AE9D11EC10F0ACEC0EF0AFD069B1ADD0DA
:105AD800500E0101276F286B67DFD8A0A6D0C0C081
:105AE800C1F0050E0001C06105D0100EBC6102D0E6
:105AF800C02B01D0C06BBCC0BDF050DDAE8D1BEC1F
:105B080026F0010EC46F91D069B18FD069B98DD0DC
:105B1800500E0101276F286B69DFD8A086D0050ECB
:105B2800686F280E2B6F000E60EC11F0276B286B46
:105B380015EC12F0400E9AEC0EF0D6EC1EF043EC89
:105B480024F0290E2B6F000E60EC11F0ACEC0EF077
:105B5800040EC46F6AD069B109D0140E0101276F11
:105B6800286B33DF03E3050E0001C46F000169B140
:105B780009D0140E0101276F286B49DF03E3060ED5
:105B88000001C46F000169B150D0AEAF4ED0E80E2D
:105B98000101276F030E286F07DF47E30001AE9F5F
:105BA800ACEC0EF042D069B140D0500E0101276F25
:105BB800286BFADE3AE3B6EC0EF068DD0001AE8F32
:105BC800040EC46F32D069B130D069B92ED0500EEE
:105BD8000101276F286B0ADF28E3040E686F280E7F
:105BE8002B6F000E60EC11F0276B286B15EC12F090
:105BF8006CEC1EF0A9EC21F0C0C028F12D9180ECCE
:105C080020F0290E2B6F000E60EC11F0280E9AEC94
:105C18000EF0440E9AEC0EF0ACEC0EF00101C74DFC
:105C280097EC0DF0010E0001C46F010112000EEE99
:105C3800BFF0ED6AEA50FDE1E950FBE1EF6AF7ECED
:105C48000AF00F0126EC0BF001016591B5EC0DF09F
:105C580062EC0BF048EC0CF0020E686F000168690A
:105C680069856BEC0BF008E36FEC0BF005E2040EB2
:105C78000101686F0001A387F28A12005CEC26F02C
:105C8800E5EC26F00DEC29F0D5EC28F098EC29F09D
:105C9800C7EC26F0FBEC26F02BEC27F0DDEC29F026
:105CA80079EC26F003EC2AF0A3A703D0C1DE0001AB
:105CB80019D069B517D0A0EC28F0AAEC26F093EC1F
:105CC80026F061EC28F0E8EC28F0ABEC29F020ECA9
:105CD80029F0D0EC29F0010110EC2AF026EC2AF08A
:105CE8005AEC2AF07E517F1109E069BD07D069B1ED
:105CF80005D0AEBB03D030EC26F06983120000015A
:105D080096DFFFD75151200FF66E5D0E5221F76EC8
:105D1800F86A0800F550120000003FF8000001FF83
:105D2800FFC00003FFFFF80007FFFFFE0007FFFFAB
:105D3800FF8007FFFFFFE007FFFFFFF803FFFFFFFC
:105D4800FC03FFFFFFFE03FFFFFFFF81FFFFFFFFD5
:105D5800C0FFFE0FFFE07FFF07FFF07FFF03FFF8A4
:105D68003FFF81FFFC1FFFC0FFFE0FFFE0FFFE07A4
:105D7800FFF07FFF07FFF03FFF83FFF81FFFC1FF22
:105D8800FC0FFFE0FFFE0FFFF07FFF07FFF07FFF34
:105D980083FFF83FFF81FFFC1FFFC0FFFE0FFFE0FE
:105DA8007FFF07FFF07FFF03FFF83FFF83FFF81F28
:105DB800FFC1FFFC0FFFE0FFFE07FFF07FFF07FFBB
:105DC800F03FFF83FFF81FFFFFFFFC0FFFFFFFFE01
:105DD80003FFFFFFFE01FFFFFFFE00FFFFFFFF00C5
:105DE8003FFFFFFF000FFFFFFF0003FFFFFF000063
:105DF800FFFFFE00001FFFFC000000FFE0000000A6
:105E080000000000000000FFC0000001FFF00000DB
:105E180007FFF800000FFFFC00003FFFFE00003FF7
:105E2800FFFF00003FFFFF80003FFFFFC0001FFF94
:105E3800FFE0001FFFFFE0000FFFFFF00007FFFF7C
:105E4800F80003FFFFFC0001FFFFFE0000FFFFFF5B
:105E580000007FFFFF00001E3FFF8000001FFFC003
:105E680000001FFFE000000FFFF0000007FFF00038
:105E78000003FFF8000001FFFC000001FFFE000026
:105E880000FFFF0000007FFF8000003FFF80000050
:105E98001FFFC000000FFFE000000FFFF000000729
:105EA800FFF8000003FFFC0000FFFFFFF800FFFF02
:105EB800FFFE00FFFFFFFF007FFFFFFF803FFFFFA8
:105EC800FFC01FFFFFFFC00FFFFFFFE00FFFFFFF37
:105ED800F007FFFFFFF803FFFFFFFC01FFFFFFFCD8
:105EE800007FFFFFFC00000000000000001FFE0014
:105EF8000000FFFFF00001FFFFFE0003FFFFFF802F
:105F080003FFFFFFE003FFFFFFF803FFFFFFFE01B2
:105F1800FFFFFFFF01FFFFFFFFC0FFFFFFFFE0FFE5
:105F2800FFFFFFF07FFF07FFF83FFF83FFFC1FFF26
:105F3800C1FFFE0FFFE0FFFF07FFE07FFF800000CB
:105F48007FFF800000FFFFC00007FFFFE0007FFF2A
:105F5800FFE003FFFFFFF007FFFFFFF807FFFFFF6A
:105F6800F807FFFFFFF807FFFFFFF807FFFFFFF045
:105F780003FFFFFFE003FFFFFF0001FFFFF8000042
:105F8800FFFF8000007FFF0000007FFF8000003FD0
:105F9800FFFFFFF01FFFFFFFFC0FFFFFFFFE07FFE4
:105FA800FFFFFF83FFFFFFFFC3FFFFFFFFE1FFFFCF
:105FB800FFFFE0FFFFFFFFF07FFFFFFFF83FFFFF5E
:105FC800FFFC0FFFFFFFFC03FFFFFFF80000003F8F
:105FD800FC000001FFFFE00007FFFFFE0007FFFFD6
:105FE800FF8007FFFFFFE007FFFFFFF807FFFFFF46
:105FF800FC07FFFFFFFF03FFFFFFFF81FFFFFFFF1E
:10600800C1FFFE3FFFE0FFFE0FFFF07FFF07FFF835
:106018003FFF03FFFC1FFF81FFFC000000FFFE00A5
:106028000001FFFF00007FFFFF00007FFFFF8000EF
:106038007FFFFF80003FFFFF00001FFFFF00001FE2
:10604800FFFE00000FFFFFC00007FFFFF00001FF89
:10605800FFFC0000FFFFFE00001FFFFF8000003F65
:10606800FFC0FFF01FFFE0FFFC0FFFF0FFFE07FF80
:10607800F87FFF03FFFC3FFF81FFFC1FFFE3FFFEEC
:106088000FFFFFFFFF07FFFFFFFF83FFFFFFFF80FB
:10609800FFFFFFFFC07FFFFFFFC01FFFFFFFC0071D
:1060A800FFFFFFC001FFFFFF80003FFFFE00000170
:1060B800FFF000000000000000000007FFFC0000E7
:1060C8000FFFFF00000FFFFFC0000FFFFFE0000FF2
:1060D800FFFFF00007FFFFF80007FFFFF80007FFCA
:1060E800FFFC0003FFFFFE0003FFFFFF0003FFFFAD
:1060F800FF8001FFFFFF8001FFDFFFC001FFEFFF0F
:10610800E001FFE7FFF000FFE3FFF800FFF1FFFC0D
:1061180000FFF0FFFC007FF0FFFE007FF87FFF002C
:106128007FF83FFF803FFC1FFFC03FFC0FFFC01FF1
:10613800FC0FFFE01FFFFFFFFE0FFFFFFFFF07FF42
:10614800FFFFFFC3FFFFFFFFE3FFFFFFFFF1FFFFBD
:10615800FFFFF8FFFFFFFFF87FFFFFFFFC3FFFFF98
:10616800FFFE0FFFFFFFFF03FFFFFFFE000003FF1F
:10617800F8000001FFFC000001FFFE000000FFFF27
:106188000000007FFF0000003FFF8000001FFFC0ED
:1061980000000FFFC0000000000000000000000029
:1061A800000FFFFFFC001FFFFFFF800FFFFFFFE056
:1061B8000FFFFFFFF007FFFFFFF803FFFFFFFC01E2
:1061C800FFFFFFFE01FFFFFFFF00FFFFFFFF007F54
:1061D800FFFFFF807FFFFFFF803FFFFFFF801FFF64
:1061E8008000000FFF8000000FFFC0000007FFE7DE
:1061F800FF0003FFFFFFE003FFFFFFF801FFFFFFC2
:10620800FE00FFFFFFFF80FFFFFFFFC07FFFFFFFD4
:10621800F03FFFFFFFF81FFFFFFFFC0FFFE3FFFE4C
:1062280007FFF0FFFF03FFF07FFF8000003FFFC084
:1062380000001FFFC000001FFFE07FFE0FFFF07F80
:10624800FF07FFF83FFF83FFFC1FFFE3FFFC0FFF83
:10625800FFFFFE07FFFFFFFF03FFFFFFFF00FFFF3A
:10626800FFFF007FFFFFFF801FFFFFFF8007FFFF8B
:10627800FF8001FFFFFF00003FFFFE000001FFF06D
:10628800000000003FFC000001FFFFE00003FFFFEB
:10629800FC0007FFFFFF0007FFFFFFC007FFFFFF2E
:1062A800F007FFFFFFF807FFFFFFFE03FFFFFFFFF9
:1062B80003FFFFFFFF81FFFF3FFFC0FFFE0FFFE06F
:1062C8007FFF07FFF07FFF83FFF03FFF81FFF81F8D
:1062D800FFC000000FFFE0000007FFF0FC0007FF11
:1062E800FFFFC003FFFFFFF801FFFFFFFE00FFFFF6
:1062F800FFFF807FFFFFFFE03FFFFFFFF03FFFFF53
:10630800FFF81FFFFFFFFE0FFFF0FFFF07FFF03F43
:10631800FF83FFF83FFF81FFFC1FFFC1FFFE0FFF58
:10632800E0FFFE07FFF07FFF03FFF83FFF83FFFC5E
:106338001FFFE3FFFC0FFFFFFFFE07FFFFFFFF014B
:10634800FFFFFFFF00FFFFFFFF803FFFFFFF801FF2
:10635800FFFFFF8003FFFFFF0000FFFFFF00001F9C
:10636800FFFC000000FFE00000000000000001FF4B
:10637800FFFFF003FFFFFFFE01FFFFFFFF81FFFFAD
:10638800FFFFC0FFFFFFFFE07FFFFFFFF03FFFFFC2
:10639800FFF83FFFFFFFF81FFFFFFFFC0FFFFFFFA6
:1063A800FE07FFFFFFFF01FFFFFFFF007FFFFFFF6B
:1063B8008000007FFF8000007FFFC000003FFFC01B
:1063C80000003FFFC000003FFFE000001FFFE000AB
:1063D800001FFFE000001FFFF000000FFFF00000AB
:1063E8000FFFF800000FFFF8000007FFF800000794
:1063F800FFFC000007FFFC000003FFFE000003FF96
:10640800FE000003FFFE000001FFFF000001FFFF88
:10641800000001FFFF000000FFFF800000FFFF8079
:1064280000007FFFC000003FFFC000001FFFC0004A
:10643800000FFFE0000007FFE0000001FFF0000090
:10644800007FF00000001FF000000003E0000000E3
:1064580000007FFC000007FFFFE0000FFFFFFC00CB
:106468000FFFFFFF001FFFFFFFC00FFFFFFFF00F31
:10647800FFFFFFF80FFFFFFFFE07FFFFFFFF03FF10
:10648800FFFFFF81FFFC3FFFC1FFFE0FFFE0FFFEA4
:106498000FFFF07FFF07FFF83FFF83FFF81FFFC1E3
:1064A800FFFC0FFFE0FFFE07FFF9FFFE01FFFFFF04
:1064B800FF00FFFFFFFF001FFFFFFF0007FFFFFEBA
:1064C8000007FFFFFC000FFFFFFF801FFFFFFFE03B
:1064D8001FFFFFFFF80FFFFFFFFC0FFFF0FFFF0795
:1064E800FFF03FFF83FFF81FFFC1FFFC1FFFE1FF25
:1064F800FE0FFFF0FFFF07FFF07FFF83FFF83FFF6E
:10650800C3FFFC1FFFFFFFFE0FFFFFFFFE07FFFF9C
:10651800FFFF01FFFFFFFF80FFFFFFFF803FFFFF3F
:10652800FF800FFFFFFF8003FFFFFF00003FFFFE1C
:10653800000001FFF0000000003FF8000001FFFF2D
:10654800C00007FFFFF80007FFFFFE000FFFFFFF77
:10655800C00FFFFFFFE00FFFFFFFF807FFFFFFFC83
:1065680007FFFFFFFF03FFFFFFFF81FFFE3FFFC1A4
:10657800FFFE0FFFE0FFFE07FFF07FFF03FFF83F7E
:10658800FF83FFFC1FFFC1FFFC0FFFC0FFFE0FFFD3
:10659800E07FFF07FFF07FFF83FFFC7FFFC1FFFF66
:1065A800FFFFE07FFFFFFFE03FFFFFFFF01FFFFF60
:1065B800FFF807FFFFFFFC01FFFFFFFE007FFFFF63
:1065C800FF000FFF7FFF0000003FFF8000001FFF5C
:1065D800C0FFF80FFFE07FFE0FFFF07FFF07FFF01F
:1065E8003FFF83FFF81FFFE7FFFC0FFFFFFFFE07DA
:1065F800FFFFFFFE03FFFFFFFE00FFFFFFFF007F1F
:10660800FFFFFF001FFFFFFF0007FFFFFF0001FF65
:10661800FFFE00003FFFFC000001FFE000000FFE4E
:106628001FFF8FFFEFFFF7FFFBFFFDFFFEFFFEFFE2
:10663800FF7FFFBFFFDFFFEFFFE3FFF0FFE00F8308
:10664800FCFF9EF3DEF3DE7BDE7BCFF9FE0F8007D7
:1066580083F0FE1FC0F81E03C0780F0FF9FF3FE05C
:106668001F87FCFF9CF07E3FDFF3F8F81FFBFF7FDE
:10667800C01F87F9FF39E0FC3F07E03CF79FF3FEB6
:106688003F0007E1FC3F8FF3FC779FFBFF7FE0F0C3
:106698001E03C01FE3FCFF9E03F87F8FF01E7BCF15
:1066A800F9FE1F801F87F9FF3DE781FF3FE7BCF731
:1066B8009FF3FC1F003FCFF9FF1FC0781E07C0F0F3
:1066C8003E0780E01C001F87F9FF3DE7BC7F1FE7FE
:1066D800BCF79FF3FC3F001F07F9FF3DE7BCFF9F96
:1066E800F03CF79FF3FC3F0000FFE001FFFFC07F95
:1066F800FFFC1FC01FC7C0007CF0000FBE0000FFDA
:10670800C0001FF80003FF00007FE0000FBE00017B
:10671800E7C0007C7F003F07FFFFC03FFFF000FF9E
:10672800E00003F01FE0FFC3FF87CF0E1E003C0010
:106738007800F001E003C007800F001E003C0078DD
:1067480000F001FFE01FFFFC7FFFFE7F003E7000AE
:106758001F00001F00003E0003FE00FFFC07FFE0D3
:106768001FF8003F80007E00007C0000FFFFFEFF56
:10677800FFFEFFFFFE0007FFE0FFFFF3FFFFFFE064
:1067880003FC0003E00007C0000F8FFFFE1FFFF0AF
:106798003FFFF80000F80000F00001EF0007DFFFFE
:1067A800FFBFFFFC07FFE00001FC00003FC0000F37
:1067B800FC0001FBC0003F3C000FC3C001F83C00D7
:1067C8007E03C00FC03C01F803C07FFFFFFFFFFF3F
:1067D800FFFFFFFFF00003C000003C000003C00003
:1067E800003C007FFFFCFFFFF9FFFFF3C0000780BC
:1067F800000F00001E00003FFFF07FFFFCFFFFFCC2
:106808000000F80001F00003FE000FFFFFFF7FFF0C
:10681800FC0FFFC001FFE007FFFF0FFFFF8FE00342
:10682800C7C00007C00003E7FFC1FFFFFCFFFFFF71
:106838007F001FBE0003FF0001FF8000FBF001F88E
:10684800FFFFFC3FFFF807FFE000FFFFFFFFFFFF30
:10685800FFFFFFC0000FC0000FC0000FC0000FC037
:10686800000FC0000FC0000F80000F80000F8000D5
:106878000F80000F80000F80000F80000F80000045
:1068880007FFE03FFFFC7FFFFEFC003FF8001FF81A
:10689800001FF8003E7FFFFC1FFFF83FFFFCFC00D5
:1068A8003FF0001FF0001FF8003F7FFFFE3FFFFC96
:1068B80007FFE00007FFE03FFFF87FFFFEFC003E18
:1068C800F8001FF0001FF0001FFC007FFFFFFF7F94
:1068D800FFFF07FF8F00001F00003EF800FEFFFFCC
:1068E800FC7FFFF007FF800003E001F001DC01EF0F
:1068F80000E380E0E0F0787FFC7FFF7803F800E0B9
:10690800FFFDFFFF803F007E00FFFFBFFF7007E035
:106918000FFFFFFFE00FF87FFDE03F800E001C0037
:1069280038007800780E7FFC3FE0FFF1FFFB807FA6
:10693800007E00FC00F803F007E01FFFFBFFC0FF2C
:10694800FFFFFE003800E003FFFFFFF800E003FF51
:10695800FFFFC0FFFFFFFE003800E003FFFFFFB8A6
:1069680000E003800E00000FFC1FFF9E01CE000E0A
:10697800000707FF83FEE00778079FFF83FE00E01C
:1069880007E007E007E007E007FFFFFFFFE007E099
:1069980007E007E007003870E1C3870E1C3870E095
:1069A800007007007007007007007007E0FFFE3FE7
:1069B80080E03F81EE0F38F0E783FC0FF038F0E11C
:1069C800E381EE03C0E003800E003800E003800E90
:1069D800003800E003FFFFFFC0F800FFE00FFF00F2
:1069E8007FFC07FEF07BF3839F9E38FC73C7E1DCD6
:1069F8003F0FC1F83E0EF00FF01FF03F707E70FCA5
:106A080071F873F077E07FC07F80780FF03FFF3C2C
:106A180003DC00EE003F001F800FC00EF00F3FFFA9
:106A280003FE00FFF9FFFB803F007E00FC03FFFF31
:106A38007FF8E001C0038000FFF8FFFEE00EE00EE3
:106A4800E00EE01EFFFCFFF0E0F0E03CE01F001F5E
:106A5800F8FFFDC03B8007F007FF800F8007E00FBD
:106A6800FFFC7FE0FFFFFFFF0380038003800380BC
:106A78000380038003800380038000E00FC01F8031
:106A88003F007E00FC01F803F007F01EFFF87FC00E
:106A9800E003B803DE01C701C3C1E0E0E038E01E4F
:106AA800F0077001F000F800E01C01F80780E70328
:106AB800E039C0FC1C3877070E1CE381CE38E07340
:106AC80087700FC1FC03F03E00780F80F00F781E2E
:106AD8001C3C0F7807E003E007F00E783C3C781E7A
:106AE800F00F00F00F781E3C3C1E780FF007E00313
:106AF800C001C001C001C001C0000FF81FFF9E0106
:106B0800CE007E003F001F800EE00778071FFF03BE
:106B1800FE0007C0FE07F023801C00E007003801D4
:106B2800C00E00700FF8FFF9C038007003E07F87CF
:106B3800F03E007001FFFFFFF81FF3FFFE01C007E2
:106B4800001CFFE3FFC007801FFFF1FF00007C006F
:106B58003F001DC01E700F1C07870781C3FFFFFF82
:106B6800FFC0070001C0FFFFFFFE003800E003FF81
:106B7800EFFFC007001FFFF7FF000FF0FFFFC03F48
:106B8800000E7E1FFFFC03F007E00EFFF8FFC0FFBA
:106B9800FFFFFE003C007800F001E003C007800F13
:106BA800001E003C00003FF1FFFB807F007E01CF0C
:106BB800FF1FFF700FE01FFFF8FFC03FF1FFFB80D2
:106BC8007F007E00FFFFCFFB8007C01FFFF8FF801C
:106BD80000000000000000000000000000000000AD
:106BE800000000000000000000000000000000009D
:106BF800000000000000000000000000000000008D
:106C0800000000000000000000000000000000007C
:106C1800000000000000000000000000000000006C
:106C2800000000000000000000000000000000005C
:106C3800000000000000000000000000000000004C
:106C4800000000000000C00000000000000000007C
:106C5800000000000000000000000000000000002C
:106C680078000000000000000000000000000000A4
:106C7800000000000000000000007F80000000000D
:106C880000000000000000000000000000000000FC
:106C9800000000007FF0000000000000000000007D
:106CA80000000000000000000000000000007FFF5E
:106CB80000000000000000000000000000000000CC
:106CC80000000000000000003FFFF000000000008E
:106CD80000000000000000000000000000000000AC
:106CE80000003FFFFF00000000000000000000005F
:106CF8000000000000000000000000003FFFFFE06F
:106D0800000000000000000000000000000000007B
:106D18000000000000001FFFFFFE00000000000050
:106D2800000000000000000000000000000000005B
:106D38001FFFFFFFE000000000000000000000004F
:106D4800000000000000000000001FFFFFFFFC0023
:106D5800000000000000000000000000000000002B
:106D6800000000001FFF8FC7FFC0000000000000E8
:106D780000000000000000000000000000000FFFFD
:106D880083F07FFC0000000000000000000000000D
:106D980000000000000000000FFFC0FC0FFFC00053
:106DA80000000000000000000000000000000000DB
:106DB80000000FFFC03F00FFF800000000000000C7
:106DC8000000000000000000000000000FFFC00FDE
:106DD800C00FFF800000000000000000000000005D
:106DE80000000000000007FFC003F001FFF80000EA
:106DF800000000000000000000000000000000008B
:106E080007FFE000FC001FFF8000000000000000FA
:106E18000000000000000000000007FFE0003F0045
:106E280001FFF80000000000000000000000000062
:106E38000000000007FFE0000FC0003FFF00000057
:106E4800000000000000000000000000000007FF34
:106E5800E00003F00003FFF0000000000000000065
:106E6800000000000000000003FFF00000FC00002C
:106E78003FFF0000000000000000000000000000CC
:106E8800000003FFF000003F000003FFE0000000E7
:106E980000000000000000000000000003FFF000F8
:106EA800000FC000007FFE0000000000000000008E
:106EB80000000000000001FFF0000003F0000007E0
:106EC800FFE00000000000000000000000000000DB
:106ED80001FFF8000000FC0000007FFE0000000039
