:020000040000FA
:0414000024EF47F09E
:06140800000115D81100DF
:10141800D8CF1DF2E0CF1EF202011F6F00011BD8CA
:1014280002011F511EC2E0FF1DC2D8FF1000E9CF04
:1014380000F2EACF01F2F3CF02F2F4CF03F27FEC2D
:1014480010F09E9203C2F4FF02C2F3FF00C2E9FF4C
:1014580001C2EAFF1200E9CF20F2EACF21F2F3CF6E
:1014680022F2F4CF23F2F6CF24F2F7CF25F2F8CF09
:1014780026F2F5CF27F2F40ED76E500ED66EF29400
:10148800F9EC46F027C2F5FF24C2F6FF25C2F7FFA4
:1014980026C2F8FF23C2F4FF22C2F3FF20C2E9FFED
:1014A80021C2EAFF12003D6F3E6B110E3F6F08D05C
:1014B8003E3740373D513E5D40B1D880D8B03E6F91
:1014C8003B373C373F2FF4D73B511200326B336B1D
:1014D800110E346F0BD0323733373051325D315102
:1014E800335904E3336F3051325FD8802E372F37AA
:1014F800342FF1D72E511200406B416B190E426FF9
:101508000DD04037413705E23E51405D3F514159CA
:1015180005E33E51405F3F51415BD8803B373C3744
:101528003D37422FEED73B5112003D6F3E6B100EF8
:101538003F6F3B373C373E3740373D513E5D40B10A
:10154800D880D8B03E6F3F2FF4D73E511200406B81
:10155800416B180E426F3B373C373D3740374137B8
:1015680005E23E51405D3F51415904E33E51405F21
:101578003F51415B422FEFD740511200284906D016
:1015880028C2E9FFEA6AEE2A000EEF2200011200E3
:1015980002011B511C6F0101120002011A511C6F3C
:1015A80001011200020119511C6F01011200136F91
:1015B800166F156B146B196B1251186F176B175147
:1015C8001427185115231951162311511427000EE9
:1015D800152316231451120002016F6F706B6F519F
:1015E80070610ED0716B726B210E715D020E7259B3
:1015F80005E20000712B000E7223F6D7702BEFD78F
:1016080012000201196FC68A9E9619C2C9FF9EA6CA
:10161800FED7C9CF1AF21A51120092809282928490
:101628009286809A929A93828194939481969396C3
:1016380081989398938A8280949082929492829EC1
:10164800949E8380959083829592838495948386D3
:1016580095969588958A838C959C838E959E848E85
:101668009680849496941200700ED36E400E9B6EF2
:10167800280EC26E3D0EC16E48691B0E496FC280AE
:10168800C69A400EC76EC66AC68A080ED56EF40E94
:10169800D76E500ED66EF194F29AF294D58EF28CE3
:1016A8005E0ECB6E380ECA6E9F829E929D92CA8441
:1016B800D08EF28E0E0E0E01D26FFF6B0C0EBA6E2C
:1016C800BA9ABA98BB6A12009292808212009282E9
:1016D8001200829012008280120084841200849486
:1016E800120081948186120081848196120081946F
:1016F800819612000201286F285105E0010A05E0D1
:10170800030A05E006D0EDDF05D0EEDF03D0EFDFFA
:1017180001D0EDDF000112000001605105E0010A6F
:101728000CE0030A1CE02CD028C200F12AC261F0A8
:101738002BC262F0010E606F23D06151621103E089
:101748006107000E625B615162111AE129C200F162
:101758002CC261F02DC262F0020E606F11D061518F
:10176800621103E06107000E625B6151621108E1DA
:1017780028C200F12AC261F02BC262F0010E606F2C
:1017880012007F6E0001635105E0010A0FE0030AB1
:1017980018E026D07F50AEDF7F5003E0080E646F5C
:1017A80002D0010E646F010E636F1AD0642F18D037
:1017B800020EA0DF7F5002E1070E646F020E636F16
:1017C8000FD06467640764670BD07F5093DF7F5046
:1017D80003E0080E646F02D0010E646F010E636FA0
:1017E8001200839E060E0DDF838E839E980E09DFFE
:1017F800838E00011200839E050E03DF000E01DFB9
:10180800366F838E1200839E060EFBDE838E839EC8
:10181800D80EF7DE2CC219F22DC21AF22EC21BF214
:10182800B7DE0001EEDE2CC219F22DC21AF22EC26A
:101838001BF2B3DE0001E5DE2CC219F22DC21AF24A
:101848002EC21BF2AFDE0001DCDE838E0001D3DF87
:101858000001E8B0FCD71200839E030ED2DE04C25A
:1018680019F205C21AF206C21BF292DE0001C9DEA5
:1018780004C219F205C21AF206C21BF28EDE00017A
:10188800C0DE04C219F205C21AF206C21BF28ADED1
:101898000001B7DE000EB5DE076F838E000112006F
:1018A800166F839E030EADDE11C219F212C21AF230
:1018B80013C21BF26DDE0001A4DE11C219F212C2BE
:1018C8001AF213C21BF269DE00019BDE11C219F283
:1018D80012C21AF213C21BF265DE000192DE186B07
:1018E800165118610DD0000E8CDE176F1851142593
:1018F800E96E000E1521EA6E17C2EFFF182BF0D71C
:10190800838E1200356F839E060E7BDE838E839E48
:10191800020E77DE32C219F233C21AF234C21BF257
:1019280037DE00016EDE32C219F233C21AF234C257
:101938001BF233DE000165DE32C219F233C21AF23D
:1019480034C21BF22FDE00015CDE35515ADE838E75
:1019580052DFE8B0FDD71200306F316B3051316182
:1019680013D02CC232F22DC233F22EC234F2010E41
:10197800EA6E31512F25E96EEF50C4DF2C2B000E93
:101988002D232E23312BEAD712002C6B200E2C612D
:1019980007D001EE01F02C51E926EF682C2BF6D781
:1019A8000101016B1B0E026F010E036F020E046F23
:1019B800030E056F066B010E076F086B096B070EA8
:1019C8000A6F0B6B080E0C6F190E0D6F030E0E6F5E
:1019D8000F6B0A0E106F116B126B710E136F030EE3
:1019E800146F156F050E166F176B186B196B0201C4
:1019F8002C6B200E2C6107D001EE21F02C51E9262A
:101A0800EF682C2BF6D70A0E0101216F040E226F06
:101A18000A0E236F246F040E256F0A0E266F276F98
:101A2800040E286F0A0E296F050E2A6F2B6F2C6F74
:101A38000A0E2D6F040E2E6F0A0E2F6F306F040ED4
:101A4800316F0A0E326F336F040E346F0A0E356F22
:101A5800366F040E376F0A0E386F120077C201F125
:101A68007BC202F17CC203F17DC204F17EC205F1A2
:101A78007FC206F180C207F181C208F182C209F172
:101A880083C20AF184C20BF185C20CF186C20DF142
:101A980087C20EF188C20FF189C210F18AC211F112
:101AA8008BC212F18CC213F18DC214F18EC215F1E2
:101AB8008FC216F19AC219F29BC21AF29CC21BF28B
:101AC80071DD176F9AC219F29BC21AF29CC21BF2FF
:101AD80064DD186F9AC219F29BC21AF29CC21BF2FB
:101AE80057DD196F90C220F1020177510FE0010A0A
:101AF80014E0030A19E0010A1EE0070A23E0010ABC
:101B080028E0030A2DE0010A32E037D078C221F13B
:101B180079C222F17AC223F130D078C224F179C295
:101B280025F17AC226F129D078C227F179C228F1A5
:101B38007AC229F122D078C22AF179C22BF17AC26D
:101B48002CF11BD078C22DF179C22EF17AC22FF177
:101B580014D078C230F179C231F17AC232F10DD0A5
:101B680078C233F179C234F17AC235F106D078C23D
:101B780036F179C237F17AC238F101011200000159
:101B880030DE02012C6B2D6B2E6B00013CDE020156
:101B98002C6B2D6B2E6B010E2F6F200EDDDE200EB1
:101BA8002C6F2D6B2E6B210E2F6F200ED5D69AC25F
:101BB80019F29BC21AF29CC21BF2F4DC176F9AC28C
:101BC80019F29BC21AF29CC21BF2E7DC186F9AC288
:101BD80019F29BC21AF29CC21BF2DADC196FCFDF32
:101BE80001011200010E776303D09D6B9E6B17D025
:101BF80078510A0DF3CF2CF2F4CF2DF279512C271E
:101C0800000E2D23200E2E6F4E0E2F6F2CC230F299
:101C18002DC231F25BDC2EC29DF22FC29EF2120061
:101C28007A510A0DF3CF2CF2F4CF2DF279512C27EB
:101C3800000E2D23200E2E6F4E0E2F6F2CC230F269
:101C48002DC231F243DC2EC29FF22FC2A0F2040E45
:101C58009F5F000EA05B1200776B1B0E7B6F030E5D
:101C68008D6F8E6F050E8F6F010E7C6F020E7D6F6C
:101C7800030E7E6F7F6B010E806F816B826B070E88
:101C8800836F846B080E856F190E866F030E876F3E
:101C9800886B0A0E896F8A6B8B6B710E8C6F77510C
:101CA8000FE0010A14E0030A19E0010A1EE0070A1E
:101CB80021E0010A26E0030A2BE0010A30E035D0D2
:101CC8000A0E786F040E796F0A0E7A6F2ED00A0EFC
:101CD800786F040E796F0A0E7A6F27D00A0E786F24
:101CE800040E796F0A0E7A6F20D0050E786F796F1F
:101CF8007A6F1BD00A0E786F040E796F0A0E7A6F0E
:101D080014D00A0E786F040E796F0A0E7A6F0DD010
:101D18000A0E786F040E796F0A0E7A6F06D00A0ED3
:101D2800786F040E796F0A0E7A6FA66B1200116B2A
:101D3800126B136B010E146F156F200EB1DD200EA0
:101D4800116F126B136B210E146F010E156F200E9D
:101D5800A7DD01012051640A08E020516E0A05E060
:101D680020516F0A02E0640E206F20C190F21351D7
:101D7800710A020116E009DE90C220F100DF116B42
:101D8800126B136B010E146F156F200E89DD200E78
:101D9800116F126B136B210E146F010E156F200E4D
:101DA8007FDD2BA101C177F202C17BF214C18DF254
:101DB80015C18EF216C18FF203C17CF27CC2A1F26A
:101DC80004C17DF205C17EF206C17FF27FC2A2F294
:101DD80007C180F280C2A3F208C181F209C182F270
:101DE8000AC183F20BC184F20CC185F20DC186F2DF
:101DF8000EC187F20FC188F210C189F211C18AF2AF
:101E080012C18BF213C18CF217C128F218C129F242
:101E180019C12AF277510FE0010A14E0030A19E008
:101E2800010A1EE0070A23E0010A28E0030A2DE060
:101E3800010A32E037D021C178F222C179F223C1F8
:101E48007AF230D024C178F225C179F226C17AF22B
:101E580029D027C178F228C179F229C17AF222D093
:101E68002AC178F22BC179F22CC17AF21BD02DC18C
:101E780078F22EC179F22FC17AF214D030C178F2FB
:101E880031C179F232C17AF20DD033C178F234C15E
:101E980079F235C17AF206D036C178F237C179F2D3
:101EA80038C17AF29FDEBCDED8908335926F050E7A
:101EB8008403F3CF93F20001A783D89002018635FB
:101EC800946F140E8703F3CF95F228C211F229C23A
:101ED80012F22A51DBEC0AF014C29AF215C29BF2F4
:101EE80016C29CF289513C0DF3CF98F2F4CF99F2C7
:101EF8000A0E9827000E9923D00E3B6F070E3C6FF1
:101F08008F5157EC0AF03BC296F23CC297F28129F6
:101F1800A46F0A0E7E03F3CFA5F28B4DA16B1200BE
:101F28008386C282C2B2FED7C4CF30F283963051C4
:101F38001200286B030E28610AD0F2DF2B6F02EE25
:101F48002DF02851E9262BC2EFFF282BF3D7286B59
:101F5800030E286134D028C22AF22829296F030EDB
:101F6800296113D002EE2DF02951E926EFCF2BF28B
:101F780002EE2DF02A51E926EFCF2CF22C512B61DD
:101F880002D029C22AF2292BEAD702EE2DF02851D5
:101F9800E926EFCF2BF202EE2DF02A51E926EFCFFA
:101FA8002CF202EE2DF02851E9262CC2EFFF02EEAA
:101FB8002DF02A51E9262BC2EFFF282BC9D72FC2B3
:101FC80069F01200B50E696503D0050E656F19D06A
:101FD800B20E696503D0040E656F13D0AF0E696544
:101FE80003D0030E656F0DD0AC0E696503D0020EE9
:101FF800656F07D0A90E696503D0010E656F01D022
:10200800656B1200056F060DF3CF09F2F4CF0AF2E3
:102018000451100DF3CF08F2076B066B0951062522
:10202800116F0A510721126F000E0821136F0B0E52
:10203800146F020E156F060E33DC0BC211F20CC2C0
:1020480012F20D51DBEC0AF014C26EF015C26FF0FB
:1020580016C270F00EC211F20FC212F21051DBEC70
:102068000AF014C271F015C272F016C273F01200B1
:1020780002012C6FA153D8B41200080E0001806130
:1020880007D0EA6A740E8025E96E2CC2EFFF802B18
:10209800020112000201A16702D000011200000132
:1020A80080676C819D8212000201046B04BF03D01B
:1020B800080E046107D0EA6A740E0425E96EEF6819
:1020C800042BF4D70001806B7F6B6C917C6B9D9225
:1020D8001200056F0453D8B4056B05A3BA9A05B36B
:1020E800BA8A05A1BA9805B1BA88D8900531BB6EED
:1020F800D890BB3212007C510BE0010A12E0030AAF
:102108001CE0010A27E0070A35E0010A51E05BD02C
:102118006CA159D071EC0BF07D6B7E6B010E7C6F5E
:1021280052D07D2B000E7E23210E7D5D030E7E593D
:102138004AE37F6B020E7C6F46D0A4C204F2EA6ABF
:10214800740E7F25E96EEF5002015CDF030E00017B
:102158007C6F39D06EC004F26FC005F270C006F211
:1021680030EC0CF06D6F6E2B000E6F237023040E95
:102178007C6F29D0A1C204F26D510201AADF0001CF
:1021880071516E5D72516F59735170590EE26EC084
:1021980004F26FC005F270C006F230EC0CF06D6FFF
:1021A8006E2B000E6F2370230ED0050E7C6F0BD0A4
:1021B80080057F6104D07F2B020E7C6F04D073EC06
:1021C8000BF072DF7C6B1200030E52DF00016551C9
:1021D800050A0BE0010A0FE0070A13E0010A17E0FD
:1021E800030A1BE0010A1FE023D0330E41DF340E3F
:1021F8003FDF00011DD0120E3BDF340E39DF000136
:1022080017D0450E35DF340E33DF000111D01B0E19
:102218002FDF340E2DDF00010BD0510E29DF340ED5
:1022280027DF000105D0490E23DF340E21DF00012E
:102238001200D15129E0010A2BE0030A2DE0010A1E
:102248002FE0070A31E0010A33E0030A35E0010A0A
:1022580037E00F0A39E0010A3BE0030A3DE0010AD2
:102268003FE0070A41E0010A43E0030A45E0010AAA
:1022780049E01F0A4BE0010A4FE0030A51E0010A56
:1022880053E0070A55E057D0180EF2DE000153D08C
:102298000E0EEEDE00014FD0060EEADE00014BD036
:1022A800050EE6DE000147D0090EE2DE000143D04C
:1022B800080EDEDE00013FD0400EDADE00013BD022
:1022C800410ED6DE000137D0480ED2DE000133D0F1
:1022D800540ECEDE00012FD04F0ECADE00012BD0E7
:1022E800240EC6DE000127D01E0EC2DE000123D058
:1022F8001F0EBEDE00011FD03F0EBADE4D0EB8DE47
:10230800000119D0210EB4DE000115D0210EB0DE77
:102318004D0EAEDE00010FD00F0EAADE00010BD06D
:10232800460EA6DE000107D02F0EA2DE000103D064
:10233800150E9EDE00011200286F28510FE0010AD9
:1023480010E0030A11E0010A12E0070A13E0010A8B
:1023580014E0030A15E0010A16E017D02E0E88DEF5
:1023680014D03A0E85DE11D00A0E82DE0ED0230E6E
:102378007FDE0BD0200E7CDE08D0010E79DE05D082
:10238800070E76DE02D0000E73DE12002C6F2C5181
:1023980039E0010A3AE0030A3BE0010A3CE0070A97
:1023A8003DE0010A3EE0030A3FE0010A40E00F0A6F
:1023B80041E0010A42E0030A43E0010A44E0070A57
:1023C80045E0010A46E0030A47E0010A48E01F0A1F
:1023D80049E0010A4AE0030A4BE0010A4CE0070A17
:1023E8004DE00A0A4EE0360A4FE01A0A50E00E0A9B
:1023F80051E07A0A52E0160A53E00A0A54E03E0A0B
:1024080055E057D0560E2D6F56D0320E2D6F53D043
:10241800520E2D6F50D04C0E2D6F4DD01C0E2D6FBF
:102428004AD0190E2D6F47D0430E2D6F44D03C0E65
:102438002D6F41D0100E2D6F3ED02B0E2D6F3BD03F
:10244800490E2D6F38D0130E2D6F35D0500E2D6FCD
:1024580032D04A0E2D6F2FD01D0E2D6F2CD0160E98
:102468002D6F29D0440E2D6F26D03D0E2D6F23D011
:10247800110E2D6F20D02C0E2D6F1DD0510E2D6FEB
:102488001AD04B0E2D6F17D01B0E2D6F14D0170EB0
:102498002D6F11D0450E2D6F0ED03E0E2D6F0BD027
:1024A800120E2D6F08D02D0E2D6F05D0330E2D6F07
:1024B80002D0420E2D6F2D511200286F150E286183
:1024C80005D0285163DF296FD3DD1ED028C23BF227
:1024D8003C6B0A0E57EC0AF03BC22AF20A0E2A039A
:1024E800F3CF2AF22A5304E02A5150DF296FC0DDC6
:1024F80028C23BF23C6B0A0E99EC0AF02B6F2B5367
:1025080003E044DF296FB4D51200286F285303E095
:10251800310EAEDD02D0300EABD512007F6E7F508B
:10252800000105E0010A07E0030A08E007D0530E9E
:102538009FDD000103D01A0E9BDD000112007F6EA3
:102548007F50000107E0010A09E0030A0BE0010AD5
:102558000DE00FD0300E8CDD00010BD0250E88DD8C
:10256800000107D0270E84DD000103D0220E80DD94
:1025780000011200286F285105E0010A06E0030A4D
:1025880009E00CD00C0E74DD09D0020E71DD520E7C
:102598006FDD04D0020E6CDD4C0E6ADD12007F6E1A
:1025A8007F50000105E0010A07E0030A09E00BD0AB
:1025B800300E5EDD000107D0250E5ADD000103D084
:1025C800220E56DD00011200286F285303E00B0E7F
:1025D8004FDD02D0140E4CD512007F6E7F500001E3
:1025E80004E0300E45DD000103D0250E41DD000179
:1025F80012007F6E7F50000104E0220E39DD0001D9
:1026080003D0250E35DD00011200706FC69A81884F
:102618008392716B080E71610BD0819870AF02D0F4
:10262800828E01D0829E8188D8907037712BF2D724
:102638008382120002016F6F8394E7DF83841200A4
:1026480002016F6F8384E1DF838412002A0EF2DFB8
:102658006851F6DF6751F4DF6A51F2DF6951F0DF44
:102668002B0EE8DF6C51ECDF6B51EADF6E51E8DFCF
:102678006D51E6DF2C0EDEDF050EF0EC0AF02C0EB5
:10268800D9D732512E253C6F33512F213D6F34510C
:1026980030253E6F355131213F6F3751406F3651EC
:1026A800416F2EC267F22FC268F23C05696F000EB7
:1026B8003D596A6F30C26BF231C26CF23E056D6FE4
:1026C800000E3F596E6FC2DF30C23AF231C23BF2A0
:1026D8003E513A5D3F513B5915E22EC238F22FC2A6
:1026E80039F23C51385D3D51395908E24051A8DF73
:1026F8004151A6DF382B000E3923F3D73A2B000EB1
:102708003B23E6D71200586B596B5A6B4C5148253E
:102718005B6F4D5149215C6F4E514A255D6F4F519A
:102728004B215E6F4C514E03F3CF5FF2F4CF60F252
:102738004D514E03F35060274C514F03F35060271F
:102748005351616F5251626F5551636F5451646FA9
:1027580048C267F249C268F25B05696F000E5C59AE
:102768006A6F4AC26BF24BC26CF25D056D6F000E68
:102778005E596E6F6BDF656B666B5F51655D6051AF
:10278800665927E258670CD059515025676F5A513E
:102798005121686F34EC47F0576F592B000E5A23BC
:1027A800800E5715566FD8905737582B080E586318
:1027B80001D0586B565305E0615142DF625140DF4A
:1027C80004D063513DDF64513BDF652B000E662367
:1027D800D4D7120039D842D8110E2CDF050EF0ECF0
:1027E8000AF03A0E27DF550E2BDF2A0E23DF000EE4
:1027F80027DF000E25DF000E23DF770E21DF2B0EEB
:1028080019DF000E1DDF000E1BDF000E19DFEF0EB3
:1028180017DF440E0FDF000E13DFEF0E11DF350E4A
:1028280009DF000E0DDF360E05DF000E09DF530E3F
:1028380001DF200E05DF190EF0EC0AF0290EFADE92
:10284800390EF8DE000112008390010EF0EC0AF058
:102858008380960EF0EC0AF000011200C00EEADE4A
:102868005A0EEEDE5A0EECDEC10EE4DE5A0EE8DE3B
:102878005A0EE6DED00EDEDE100EE2DEB10EDADE35
:10288800EA0EDEDEF00EDCDE000EDADE780ED8DED2
:10289800000ED6DE0C0ED4DE000ED2DE080ED0DE20
:1028A800000ECEDE1C0ECCDE000ECADE1C0EC8DE0C
:1028B800000EC6DE0C0EC4DE000EC2DE080EC0DE40
:1028C800000EBEDE1C0EBCDE000EBADE1C0EB8DE2C
:1028D800000EB6DE000EB4DE0C0EB2DE000EB0DE68
:1028E8005F0EAEDE000EACDE1C0EAADE000EA8DE09
:1028F8001C0EA6DE000EA4DE0C0EA2DE000EA0DE6C
:102908005F0E9EDE000E9CDE1C0E9ADE000E98DE28
:102918001C0E96DE000E94DE000E92DE200E90DE77
:10292800000E8EDE000E8CDE770E8ADE000E88DE4C
:10293800000E86DE000E84DEEF0E82DE000E80DEE4
:10294800000E7EDE000E7CDE100E7ADEB20E72DE27
:10295800130E76DE130E74DE040E72DE040E70DEC5
:10296800130E6EDE040E6CDE040E6ADE130E68DED5
:10297800130E66DE040E64DE040E62DE040E60DEF4
:10298800040E5EDE0F0E5CDE000E5ADE000E58DE10
:102998005E0E56DE000E54DEA60E52DE000E50DE2F
:1029A8005E0E4EDE000E4CDEA90E4ADE000E48DE3C
:1029B8005E0E46DE000E44DE030E42DE000E40DEF2
:1029C8005E0E3EDE000E3CDE000E3ADE000E38DE05
:1029D8005E0E36DE000E34DEA60E32DE000E30DE6F
:1029E8005E0E2EDE000E2CDEA90E2ADE000E28DE7C
:1029F8005E0E26DE000E24DE030E22DE000E20DE32
:102A08005E0E1EDE000E1CDE020E1ADE1F0E18DE23
:102A1800580E16DE750E14DE000E12DE010E10DEE4
:102A2800000E0EDE000E0CDE310E0ADE5A0E08DE37
:102A38001A0E06DED50E04DE3D0E02DE600E00DE46
:102A4800000EFEDD000EFCDD000EFADD000EF8DDE6
:102A5800000EF6DD000EF4DD000EF2DD000EF0DDF6
:102A6800000EEEDD000EECDD000EEADD000EE8DD06
:102A7800000EE6DD000EE4DD000EE2DD000EE0DD16
:102A8800000EDEDD000EDCDD000EDADD000ED8DD26
:102A9800000ED6DD000ED4DD000ED2DD130ED0DD23
:102AA800770ECEDDB30EC6DD000ECADD000EC8DD22
:102AB800000EC6DD030EC4DD020EC2DD010EC0DD50
:102AC800000EBEDD000EBCDD000EBADD140EB8DD52
:102AD800130EB6DD120EB4DD000EB2DD000EB0DD51
:102AE800000EAEDD000EACDD060EAADD050EA8DD7B
:102AF800040EA6DD000EA4DD000EA2DD000EA0DD92
:102B08000F0E9EDD0E0E9CDD0D0E9ADD000E98DD7B
:102B1800000E96DD000E94DD000E92DD000E90DDB5
:102B2800000E8EDD000E8CDDB40E84DD200E88DDF7
:102B3800030E86DDC00E84DD000E82DD080E80DD0A
:102B4800030E7EDD030E7CDD030E7ADD030E78DDD9
:102B5800030E76DD000E74DD0B0E72DD0B0E70DDDC
:102B68000B0E6EDD0B0E6CDD0B0E6ADD0B0E68DDD9
:102B7800140E66DD410E64DD250E62DD520E60DD49
:102B8800360E5EDD630E5CDD410E5ADD140E58DD37
:102B9800520E56DD250E54DD630E52DD360E50DD25
:102BA800140E4EDD410E4CDD250E4ADD520E48DD79
:102BB800360E46DD630E44DD410E42DD140E40DD67
:102BC800520E3EDD250E3CDD630E3ADD360E38DD55
:102BD800000E36DD000E34DD2A0E32DD150E30DD36
:102BE8002A0E2EDD150E2CDD150E2ADD2A0E28DD07
:102BF800150E26DD2A0E24DD000E22DD000E20DD56
:102C0800000E1EDD000E1CDD000E1ADD000E18DDA4
:102C1800000E16DDB50E0EDD000E12DD000E10DD05
:102C2800090E0EDD090E0CDD010E0ADD290E08DD88
:102C3800100E06DD000E04DD010E02DD320E00DD91
:102C4800000EFEDC320EFCDC000EFADC630EF8DC53
:102C5800000EF6DCAD0EF4DC000EF2DC630EF0DCE8
:102C6800000EEEDCAD0EECDC000EEADC000EE8DC5B
:102C7800000EE6DC000EE4DC000EE2DC000EE0DC18
:102C8800000EDEDC000EDCDC000EDADC000ED8DC28
:102C9800000ED6DC000ED4DC000ED2DC000ED0DC38
:102CA800000ECEDC000ECCDC000ECADC020EC8DC46
:102CB800010EC6DC020EC4DC010EC2DC020EC0DC52
:102CC800010EBEDC000EBCDC000EBADC000EB8DC67
:102CD800000EB6DC0B0EB4DC000EB2DC550EB0DC18
:102CE800000EAEDC0B0EACDC000EAADC550EA8DC28
:102CF800000EA6DC000EA4DC000EA2DC000EA0DC98
:102D0800000E9EDC000E9CDC000E9ADC000E98DCA7
:102D1800000E96DC000E94DC000E92DC000E90DCB7
:102D2800000E8EDC000E8CDC000E8ADC010E88DCC6
:102D3800000E86DC010E84DC000E82DC000E80DCD6
:102D4800000E7EDC000E7CDC000E7ADC000E78DCE7
:102D5800000E76DC000E74DC000E72DCB80E6ADC45
:102D6800000E6EDCE70E6CDC300E6ADC000E68DCF0
:102D7800110E66DC110E64DC110E62DC110E60DCD3
:102D8800110E5EDC110E5CDC220E5ADC220E58DCC1
:102D9800220E56DC000E54DC000E52DC220E50DCF3
:102DA800220E4EDC220E4CDC000E4ADC000E48DC03
:102DB800000E46DC000E44DC000E42DC000E40DC57
:102DC800000E3EDC000E3CDC000E3ADCBB0E32DCB2
:102DD800010E36DCC80E34DCC80E32DCC80E30DC1E
:102DE800800E2EDC800E2CDC800E2ADC4C0E28DCBB
:102DF800590E26DC660E24DCBD0E1CDC010E20DC20
:102E0800000E1EDC0A0E1CDC000E1ADC320E18DC6A
:102E1800000E16DC040E14DC010E12DC050E10DCAC
:102E2800050E0EDC000E0CDC000E0ADC000E08DCC1
:102E3800000E06DC000E04DC000E02DC000E00DCD6
:102E4800140E24EC13F0010E24EC13F0000E24EC05
:102E580013F0000E24EC13F0000E24EC13F0100E07
:102E680024EC13F0030E24EC13F0030E24EC13F0FF
:102E7800000E24EC13F0BE0E1EEC13F0000E24EC32
:102E880013F0000E24EC13F0040E24EC13F0010EE2
:102E980024EC13F0040E24EC13F0010E24EC13F0D0
:102EA800040E24EC13F0010E24EC13F0040E24ECB1
:102EB80013F0010E24EC13F0040E24EC13F0010EB1
:102EC80024EC13F0040E24EC13F0010E24EC13F0A0
:102ED800040E24EC13F0010E24EC13F0040E24EC81
:102EE80013F0010E24EC13F0040E24EC13F0010E81
:102EF80024EC13F0000E24EC13F0000E24EC13F075
:102F0800040E24EC13F0010E24EC13F0040E24EC50
:102F180013F0010E24EC13F0040E24EC13F0010E50
:102F280024EC13F0040E24EC13F0010E24EC13F03F
:102F3800040E24EC13F0010E24EC13F0040E24EC20
:102F480013F0010E24EC13F0040E24EC13F0010E20
:102F580024EC13F0040E24EC13F0010E24EC13F00F
:102F6800040E24EC13F0010E24EC13F0000E24ECF4
:102F780013F0000E24EC13F0040E24EC13F0010EF1
:102F880024EC13F0040E24EC13F0010E24EC13F0DF
:102F9800040E24EC13F0010E24EC13F0040E24ECC0
:102FA80013F0010E24EC13F0040E24EC13F0010EC0
:102FB80024EC13F0040E24EC13F0010E24EC13F0AF
:102FC800040E24EC13F0010E24EC13F0040E24EC90
:102FD80013F0010E24EC13F0040E24EC13F0010E90
:102FE80024EC13F0020E24EC13F0020E24EC13F080
:102FF800020E24EC13F0020E24EC13F0020E24EC63
:1030080013F0020E24EC13F0000E24EC13F0000E63
:1030180024EC13F0000E24EC13F0000E24EC13F053
:10302800000E24EC13F0000E24EC13F0000E24EC38
:1030380013F0000E24EC13F0FF0E24EC13F0000E36
:1030480024EC13F0000E24EC13F0000E24EC13F023
:10305800000E24EC13F0000E24EC13F0000E24EC08
:1030680013F0000E24EC13F0000E24EC13F0FF0E06
:1030780024EC13F0000E24EC13F0000E24EC13F0F3
:10308800000E24EC13F0000E24EC13F0000E24ECD8
:1030980013F0000E24EC13F0000E24EC13F0000ED5
:1030A80024EC13F0FF0E24EC13F0000E24EC13F0C4
:1030B800000E24EC13F0000E24EC13F0000E24ECA8
:1030C80013F0040E24EC13F0040E24EC13F0100E8D
:1030D80024EC13F0000E24EC13F0000E24EC13F093
:1030E800000E24EC13F0320E24EC13F0000E24EC46
:1030F80013F0000E24EC13F0000E24EC13F0000E75
:1031080024EC13F0000E24EC13F0000E24EC13F062
:10311800000E24EC13F0000E24EC13F0000E24EC47
:1031280013F0000E24EC13F0000E24EC13F0000E44
:1031380024EC13F0000E24EC13F0000E24EC13F032
:10314800000E24EC13F0000E24EC13F0000E24EC17
:1031580013F0000E24EC13F0000E24EC13F0000E14
:1031680024EC13F0000E24EC13F0320E24EC13F0D0
:10317800000E24EC13F0000E24EC13F0000E24ECE7
:1031880013F0000E24EC13F0000E24EC13F0000EE4
:1031980024EC13F0000E24EC13F0000E24EC13F0D2
:1031A800000E24EC13F0000E24EC13F0000E24ECB7
:1031B80013F0000E24EC13F0000E24EC13F0000EB4
:1031C80024EC13F0000E24EC13F0000E24EC13F0A2
:1031D800000E24EC13F0000E24EC13F0000E24EC87
:1031E80013F0000E24EC13F0000E24EC13F0320E52
:1031F80024EC13F0000E24EC13F0000E24EC13F072
:10320800000E24EC13F0000E24EC13F0000E24EC56
:1032180013F0000E24EC13F0000E24EC13F0000E53
:1032280024EC13F0000E24EC13F0000E24EC13F041
:10323800000E24EC13F0000E24EC13F0000E24EC26
:1032480013F0000E24EC13F0000E24EC13F0000E23
:1032580024EC13F0000E24EC13F0000E24EC13F011
:10326800000E24EC13F0000E24EC13F0000E24ECF6
:1032780013F0000E24EC13F0000E24EC13F0000EF3
:1032880024EC13F0C20E1EEC13F0FC0E24EC13F029
:10329800C30E1EEC13F0000E24EC13F0000E24EC09
:1032A80013F0FF0E24EC13F0070E24EC13F0000EBD
:1032B80024EC13F0000E24EC13F0FF0E24EC13F0B2
:1032C800070E24EC13F0000E24EC13F0000E24EC8F
:1032D80013F0FF0E24EC13F0040E24EC13F0C50ECB
:1032E8001EEC13F0800E24EC13F0050E24EC13F002
:1032F800320E24EC13F0050E24EC13F03F0E24ECF0
:1033080013F0060E24EC13F0510E24EC13F0050E06
:1033180024EC13F0080E24EC13F0050E24EC13F043
:10332800080E24EC13F0060E24EC13F0210E24EC06
:1033380013F0050E24EC13F0DC0E24EC13F0040E4D
:1033480024EC13F0CF0E24EC13F0050E24EC13F04C
:10335800F10E24EC13F0040E24EC13F0B00E24EC60
:1033680013F0040E24EC13F0960E24EC13F0050E63
:1033780024EC13F0C00E24EC13F0040E24EC13F02C
:10338800830E24EC13F0040E24EC13F05E0E24ECF0
:1033980013F0050E24EC13F08E0E24EC13F0040E3B
:1033A80024EC13F0550E24EC13F0040E24EC13F067
:1033B800250E24EC13F0050E24EC13F05B0E24EC20
:1033C80013F0040E24EC13F0250E24EC13F0040E75
:1033D80024EC13F0EB0E24EC13F0040E24EC13F0A1
:1033E800260E24EC13F0040E24EC13F0F40E24EC57
:1033F80013F0030E24EC13F0AF0E24EC13F0040EBC
:1034080024EC13F0EF0E24EC13F0030E24EC13F06D
:10341800C00E24EC13F0030E24EC13F0700E24EC11
:1034280013F0040E24EC13F0B40E24EC13F0030E86
:1034380024EC13F08A0E24EC13F0030E24EC13F0A2
:103448002E0E24EC13F0040E24EC13F0760E24EC6C
:1034580013F0030E24EC13F0500E24EC13F0030EBB
:1034680024EC13F0E80E24EC13F0030E24EC13F014
:10347800340E24EC13F0030E24EC13F0110E24EC9C
:1034880013F0030E24EC13F09D0E24EC13F0030E3E
:1034980024EC13F0EB0E24EC13F0020E24EC13F0E2
:1034A800CE0E24EC13F0020E24EC13F04A0E24EC9A
:1034B80013F0030E24EC13F0C50E24EC13F0020EE7
:1034C80024EC13F0AA0E24EC13F0020E24EC13F0F3
:1034D8001D0E24EC13F0030E24EC13F09B0E24ECC9
:1034E80013F0020E24EC13F0830E24EC13F0020EFA
:1034F80024EC13F0ED0E24EC13F0020E24EC13F080
:103508006C0E24EC13F0020E24EC13F0560E24EC8F
:1035180013F0020E24EC13F0BB0E24EC13F0020E91
:1035280024EC13F0510E24EC13F0020E24EC13F0EB
:103538003D0E24EC13F0020E24EC13F0A00E24EC44
:1035480013F0020E24EC13F0350E24EC13F0020EE7
:1035580024EC13F0230E24EC13F0020E24EC13F0E9
:10356800840E24EC13F0020E24EC13F0160E24EC57
:1035780013F0020E24EC13F0060E24EC13F0020EE6
:1035880024EC13F0660E24EC13F0020E24EC13F076
:10359800F40E24EC13F0010E24EC13F0E60E24ECE8
:1035A80013F0010E24EC13F0470E24EC13F0020E76
:1035B80024EC13F0CD0E24EC13F0010E24EC13F0E0
:1035C800C20E24EC13F0010E24EC13F0250E24ECAB
:1035D80013F0020E24EC13F09C0E24EC13F0010EF1
:1035E80024EC13F0980E24EC13F0010E24EC13F0E5
:1035F800030E24EC13F0020E24EC13F0560E24EC08
:1036080013F0010E24EC13F0640E24EC13F0010EF9
:1036180024EC13F0DE0E24EC13F0010E24EC13F06E
:10362800100E24EC13F0010E24EC13F0300E24ECF1
:1036380013F0010E24EC13F0B90E24EC13F0010E74
:1036480024EC13F0CA0E24EC13F0000E24EC13F053
:10365800FC0E24EC13F0000E24EC13F0940E24EC72
:1036680013F0010E24EC13F0A70E24EC13F0000E57
:1036780024EC13F0E20E24EC13F0000E24EC13F00B
:10368800820E24EC13F0010E24EC13F0000E24EC4F
:1036980013F0000E24EC13F0000E24EC13F0000ECF
:1036A80024EC13F0000E24EC13F0000E24EC13F0BD
:1036B800C60E1EEC13F0FD0E24EC13F0050E24ECE0
:1036C80013F0870E24EC13F0050E24EC13F0C20E51
:1036D80024EC13F0060E24EC13F0B60E24EC13F0D1
:1036E800050E24EC13F0510E24EC13F0050E24EC17
:1036F80013F0790E24EC13F0060E24EC13F0750E7B
:1037080024EC13F0050E24EC13F01C0E24EC13F03B
:10371800050E24EC13F0330E24EC13F0060E24EC03
:1037280013F0380E24EC13F0050E24EC13F0E80E19
:1037380024EC13F0040E24EC13F0ED0E24EC13F03B
:10374800050E24EC13F0FC0E24EC13F0040E24EC0C
:1037580013F0B20E24EC13F0040E24EC13F0A60EB2
:1037680024EC13F0050E24EC13F0C10E24EC13F036
:10377800040E24EC13F07D0E24EC13F0040E24EC5C
:1037880013F0610E24EC13F0050E24EC13F0840EF4
:1037980024EC13F0040E24EC13F0460E24EC13F082
:1037A800040E24EC13F01D0E24EC13F0050E24EC8B
:1037B80013F0470E24EC13F0040E24EC13F00F0E54
:1037C80024EC13F0040E24EC13F0D70E24EC13F0C1
:1037D800040E24EC13F00A0E24EC13F0040E24EC6F
:1037E80013F0D60E24EC13F0030E24EC13F0910E14
:1037F80024EC13F0040E24EC13F0C90E24EC13F09F
:10380800030E24EC13F09A0E24EC13F0030E24ECB0
:1038180013F0480E24EC13F0040E24EC13F0850E7C
:1038280024EC13F0030E24EC13F05B0E24EC13F0DD
:10383800030E24EC13F0FB0E24EC13F0030E24EC1F
:1038480013F03E0E24EC13F0030E24EC13F0180EC4
:1038580024EC13F0030E24EC13F0AA0E24EC13F05E
:10386800030E24EC13F0F10E24EC13F0020E24ECFA
:1038780013F0D10E24EC13F0020E24EC13F0520EC8
:1038880024EC13F0030E24EC13F0CA0E24EC13F00E
:10389800020E24EC13F0AC0E24EC13F0020E24EC10
:1038A80013F0220E24EC13F0030E24EC13F09E0EFA
:1038B80024EC13F0020E24EC13F0830E24EC13F026
:1038C800020E24EC13F0EF0E24EC13F0020E24EC9D
:1038D80013F06E0E24EC13F0020E24EC13F0560EC7
:1038E80024EC13F0020E24EC13F0BA0E24EC13F0BF
:1038F800020E24EC13F0540E24EC13F0020E24EC08
:1039080013F03D0E24EC13F0020E24EC13F09E0E7F
:1039180024EC13F0020E24EC13F0370E24EC13F011
:10392800020E24EC13F0220E24EC13F0020E24EC09
:1039380013F0800E24EC13F0020E24EC13F0190E91
:1039480024EC13F0020E24EC13F0060E24EC13F012
:10395800020E24EC13F05F0E24EC13F0020E24EC9C
:1039680013F0F80E24EC13F0010E24EC13F0E70E1C
:1039780024EC13F0010E24EC13F03D0E24EC13F0AC
:10398800020E24EC13F0D20E24EC13F0010E24ECFA
:1039980013F0C30E24EC13F0010E24EC13F0180EF0
:1039A80024EC13F0020E24EC13F0A60E24EC13F012
:1039B800010E24EC13F09C0E24EC13F0010E24EC01
:1039C80013F0F10E24EC13F0010E24EC13F06F0E3B
:1039D80024EC13F0010E24EC13F06A0E24EC13F01F
:1039E800010E24EC13F0C50E24EC13F0010E24ECA8
:1039F80013F0380E24EC13F0010E24EC13F0380EFB
:103A080024EC13F0010E24EC13F0990E24EC13F0BF
:103A1800010E24EC13F0010E24EC13F0010E24EC3B
:103A280013F0060E24EC13F0010E24EC13F06D0EC7
:103A380024EC13F0010E24EC13F0E60E24EC13F042
:103A4800000E24EC13F0ED0E24EC13F0000E24EC21
:103A580013F0570E24EC13F0010E24EC13F0000EB3
:103A680024EC13F0000E24EC13F0000E24EC13F0F9
:103A7800000E24EC13F0000E24EC13F0000E24ECDE
:103A880013F0D40E1EEC13F0000E24EC13F0780E95
:103A980024EC13F0000E24EC13F0F00E24EC13F0D9
:103AA800000E24EC13F0080E24EC13F0080E24EC9E
:103AB80013F0140E24EC13F0140E24EC13F0000E83
:103AC80024EC13F0000E24EC13F0D50E1EEC13F0CA
:103AD800010E24EC13F0000E24EC13F0370E24EC46
:103AE80013F0000E24EC13F0010E24EC13F0000E7A
:103AF80024EC13F0040E24EC13F0000E24EC13F065
:103B0800BF0E24EC13F0000E24EC13F0040E24EC8A
:103B180013F0000E24EC13F0000E24EC13F0000E4A
:103B280024EC13F0000E24EC13F0000E24EC13F038
:103B3800000E24EC13F0000E24EC13F0000E24EC1D
:103B480013F0000E24EC13F0000E24EC13F0000E1A
:103B580024EC13F0000E24EC13F0000E24EC13F008
:103B6800040E24EC13F0000E24EC13F0BF0E24EC2A
:103B780013F0000E24EC13F0040E24EC13F0000EE6
:103B880024EC13F0010E24EC13F0000E24EC13F0D7
:103B9800370E24EC13F0000E24EC13F0010E24EC85
:103BA80013F0000E24EC13F0000E24EC13F0000EBA
:103BB80024EC13F0050E24EC13F0000E24EC13F0A3
:103BC800000E24EC13F0000E24EC13F0050E24EC88
:103BD80013F0000E24EC13F0EC0E24EC13F0000E9E
:103BE80024EC13F0050E24EC13F0000E24EC13F073
:103BF800000E24EC13F0000E24EC13F0050E24EC58
:103C080013F0000E24EC13F0000E24EC13F0000E59
:103C180024EC13F0D60E1EEC13F0010E24EC13F076
:103C2800000E24EC13F0370E24EC13F0000E24ECF5
:103C380013F0010E24EC13F0000E24EC13F0040E24
:103C480024EC13F0000E24EC13F0BF0E24EC13F058
:103C5800000E24EC13F0040E24EC13F0000E24ECF8
:103C680013F0000E24EC13F0000E24EC13F0000EF9
:103C780024EC13F0000E24EC13F0000E24EC13F0E7
:103C8800000E24EC13F0000E24EC13F0000E24ECCC
:103C980013F0000E24EC13F0000E24EC13F0000EC9
:103CA80024EC13F0000E24EC13F0040E24EC13F0B3
:103CB800000E24EC13F0BF0E24EC13F0000E24ECDD
:103CC80013F0040E24EC13F0000E24EC13F0010E94
:103CD80024EC13F0000E24EC13F0370E24EC13F050
:103CE800000E24EC13F0010E24EC13F0000E24EC6B
:103CF80013F0000E24EC13F0000E24EC13F0050E64
:103D080024EC13F0000E24EC13F0000E24EC13F056
:103D1800000E24EC13F0050E24EC13F0000E24EC36
:103D280013F0EC0E24EC13F0000E24EC13F0050E47
:103D380024EC13F0000E24EC13F0000E24EC13F026
:103D4800000E24EC13F0050E24EC13F0000E24EC06
:103D580013F0000E24EC13F0000E24EC13F0D70E31
:103D68001EEC13F0010E24EC13F0000E24EC13F0FB
:103D7800370E24EC13F0000E24EC13F0010E24ECA3
:103D880013F0000E24EC13F0040E24EC13F0000ED4
:103D980024EC13F0BF0E24EC13F0000E24EC13F007
:103DA800040E24EC13F0000E24EC13F0000E24ECA7
:103DB80013F0000E24EC13F0000E24EC13F0000EA8
:103DC80024EC13F0000E24EC13F0000E24EC13F096
:103DD800000E24EC13F0000E24EC13F0000E24EC7B
:103DE80013F0000E24EC13F0000E24EC13F0000E78
:103DF80024EC13F0040E24EC13F0000E24EC13F062
:103E0800BF0E24EC13F0000E24EC13F0040E24EC87
:103E180013F0000E24EC13F0010E24EC13F0000E46
:103E280024EC13F0370E24EC13F0000E24EC13F0FE
:103E3800010E24EC13F0000E24EC13F0000E24EC19
:103E480013F0000E24EC13F0050E24EC13F0000E12
:103E580024EC13F0000E24EC13F0000E24EC13F005
:103E6800050E24EC13F0000E24EC13F0EC0E24ECF9
:103E780013F0000E24EC13F0050E24EC13F0000EE2
:103E880024EC13F0000E24EC13F0000E24EC13F0D5
:103E9800050E24EC13F0000E24EC13F0000E24ECB5
:103EA80013F0000E24EC13F0D80E1EEC13F0010EE4
:103EB80024EC13F0000E24EC13F0370E24EC13F06E
:103EC800000E24EC13F0010E24EC13F0000E24EC89
:103ED80013F0040E24EC13F0000E24EC13F0BF0EC4
:103EE80024EC13F0000E24EC13F0040E24EC13F071
:103EF800000E24EC13F0000E24EC13F0000E24EC5A
:103F080013F0000E24EC13F0000E24EC13F0000E56
:103F180024EC13F0000E24EC13F0000E24EC13F044
:103F2800000E24EC13F0000E24EC13F0000E24EC29
:103F380013F0000E24EC13F0000E24EC13F0040E22
:103F480024EC13F0000E24EC13F0BF0E24EC13F055
:103F5800000E24EC13F0040E24EC13F0000E24ECF5
:103F680013F0010E24EC13F0000E24EC13F0370EBE
:103F780024EC13F0000E24EC13F0010E24EC13F0E3
:103F8800000E24EC13F0000E24EC13F0000E24ECC9
:103F980013F0050E24EC13F0000E24EC13F0000EC1
:103FA80024EC13F0000E24EC13F0050E24EC13F0AF
:103FB800000E24EC13F0EC0E24EC13F0000E24ECAD
:103FC80013F0050E24EC13F0000E24EC13F0000E91
:103FD80024EC13F0000E24EC13F0050E24EC13F07F
:103FE800000E24EC13F0000E24EC13F0000E24EC69
:103FF80013F0DE0E1EEC13F0000E24EC13F0000E8E
:1040080024EC13F0000E24EC13F0DF0E1EEC13F07A
:10401800FF0E24EC13F0FF0E24EC13F0FF0E24EC3B
:1040280013F0FF0E24EC13F0FF0E24EC13F0FF0E38
:1040380024EC13F0080E24EC13F0080E24EC13F013
:10404800080E24EC13F0080E24EC13F0080E24ECF0
:1040580013F0080E24EC13F0080E24EC13F0080EED
:1040680024EC13F0080E24EC13F0080E24EC13F0E3
:10407800000E24EC13F0060E24EC13F0550E24EC7D
:1040880013F0500E24EC13F0FF0E24EC13F0FF0E87
:1040980024EC13F0080E24EC13F0080E24EC13F0B3
:1040A800080E24EC13F0EE0E1EEC13F0400E24EC78
:1040B80013F0000E24EC13F0000E24EC13F0000EA5
:1040C80024EC13F0000E24EC13F0000E24EC13F093
:1040D800000E24EC13F0000E24EC13F0010E24EC77
:1040E80013F0010E24EC13F0000E24EC13F0000E74
:1040F80024EC13F0000E24EC13F0000E24EC13F063
:10410800000E24EC13F0000E24EC13F0000E24EC47
:1041180013F0000E24EC13F0000E24EC13F0000E44
:1041280024EC13F0000E24EC13F0000E24EC13F032
:10413800000E24EC13F0000E24EC13F0000E24EC17
:1041480013F0000E24EC13F0000E24EC13F0000E14
:1041580024EC13F0000E24EC13F0000E24EC13F002
:10416800000E24EC13F0000E24EC13F0000E24ECE7
:1041780013F0000E24EC13F0000E24EC13F0000EE4
:1041880024EC13F0000E24EC13F0000E24EC13F0D2
:10419800000E24EC13F0000E24EC13F0000E24ECB7
:1041A80013F0000E24EC13F0000E24EC13F0000EB4
:1041B80024EC13F0F00E1EEC13F0750E24EC13F043
:1041C8002A0E24EC13F0700E24EC13F0700E24EC7D
:1041D80013F0700E24EC13F0580E24EC13F02F0E8D
:1041E80024EC13F01C0E24EC13F01C0E24EC13F03A
:1041F8008A0E24EC13F08A0E24EC13F0100E24EC33
:1042080013F0100E24EC13F0750E24EC13F02A0EA4
:1042180024EC13F0700E24EC13F0700E24EC13F061
:10422800700E24EC13F0580E24EC13F0250E24EC39
:1042380013F01C0E24EC13F01C0E24EC13F08A0E61
:1042480024EC13F08A0E24EC13F0100E24EC13F077
:10425800100E24EC13F0F10E1EEC13F0110E24ECEA
:1042680013F06E0E24EC13F0490E24EC13F0D00E6C
:1042780024EC13F0950E24EC13F0150E24EC13F037
:10428800A50E24EC13F0550E24EC13F00E0E24ECBE
:1042980013F0100E24EC13F0C60E24EC13F0F20EFB
:1042A8001EEC13F0750E24EC13F02A0E24EC13F018
:1042B800080E24EC13F0700E24EC13F0700E24ECAE
:1042C80013F0580E24EC13F02F0E24EC13F0030E09
:1042D80024EC13F01A0E24EC13F08A0E24EC13F0DD
:1042E8008A0E24EC13F0100E24EC13F00B0E24ECC1
:1042F80013F0F30E1EEC13F0110E24EC13F0600E05
:1043080024EC13F0410E24EC13F0100E24EC13F0FF
:10431800950E24EC13F0150E24EC13F0A50E24ECE6
:1043280013F0550E24EC13F00E0E24EC13F0100EBF
:1043380024EC13F0F40E1EEC13F00B0E24EC13F027
:10434800000E24EC13F0000E24EC13F0750E24EC90
:1043580013F02A0E24EC13F0780E24EC13F0F00E70
:1043680024EC13F0F00E24EC13F0410E24EC13F0BF
:10437800330E24EC13F0100E24EC13F0950E24ECFD
:1043880013F0150E24EC13F0A50E24EC13F0550EC3
:1043980024EC13F0100E24EC13F00E0E24EC13F0A2
:1043A8000E0E24EC13F0F50E1EEC13F03F0E24EC69
:1043B80013F0530E24EC13F0010E24EC13F0110E3D
:1043C80024EC13F0190E24EC13F00A0E24EC13F06D
:1043D800290E24EC13F0010E24EC13F0030E24EC48
:1043E80013F0050E24EC13F0070E24EC13F0090E5D
:1043F80024EC13F00B0E24EC13F00D0E24EC13F048
:104408000F0E24EC13F0110E24EC13F0000E24EC24
:1044180013F0010E24EC13F0010E24EC13F03F0E00
:1044280024EC13F0530E24EC13F0310E24EC13F0AB
:10443800110E24EC13F0190E24EC13F00A0E24ECE0
:1044480013F0290E24EC13F0010E24EC13F0030EE4
:1044580024EC13F0050E24EC13F0070E24EC13F0F3
:10446800090E24EC13F00B0E24EC13F00D0E24ECC3
:1044780013F00F0E24EC13F0110E24EC13F0010EC0
:1044880024EC13F0100E24EC13F0100E24EC13F0AF
:10449800F60E1EEC13F0000E24EC13F0000E24ECC4
:1044A80013F0000E24EC13F0000E24EC13F0010EB0
:1044B80024EC13F0010E24EC13F0020E24EC13F09C
:1044C800020E24EC13F0020E24EC13F0030E24EC7D
:1044D80013F0040E24EC13F0040E24EC13F0070E72
:1044E80024EC13F0070E24EC13F0080E24EC13F060
:1044F800080E24EC13F0080E24EC13F0020E24EC42
:1045080013F0020E24EC13F0040E24EC13F0040E46
:1045180024EC13F00B0E24EC13F00B0E24EC13F028
:104528000B0E24EC13F00B0E24EC13F04B0E24ECC2
:1045380013F04B0E24EC13F00B0E24EC13F00C0EBE
:1045480024EC13F00C0E24EC13F00D0E24EC13F0F5
:104558000E0E24EC13F0100E24EC13F0030E24ECD2
:1045680013F0040E24EC13F0420E24EC13F0020EA8
:1045780024EC13F0110E24EC13F0000E24EC13F0CD
:10458800F70E1EEC13F0550E24EC13F0550E24EC28
:1045980013F0550E24EC13F0550E24EC13F0440ED2
:1045A80024EC13F0340E24EC13F0230E24EC13F057
:1045B800220E24EC13F0410E24EC13F0340E24ECFC
:1045C80013F0130E24EC13F0110E24EC13F0110E5B
:1045D80024EC13F0110E24EC13F0000E24EC13F06D
:1045E800000E24EC13F0050E24EC13F0000E24EC5E
:1045F80013F0000E24EC13F0020E24EC13F0000E5E
:1046080024EC13F0040E24EC13F0010E24EC13F048
:10461800020E24EC13F0F80E1EEC13F0550E24ECE9
:1046280013F0550E24EC13F0550E24EC13F0550E30
:1046380024EC13F0440E24EC13F0340E24EC13F0A5
:10464800230E24EC13F0220E24EC13F0410E24EC7C
:1046580013F0340E24EC13F0130E24EC13F0110EA7
:1046680024EC13F0110E24EC13F0110E24EC13F0CB
:10467800000E24EC13F0000E24EC13F0050E24ECCD
:1046880013F0000E24EC13F0000E24EC13F0000ECF
:1046980024EC13F0000E24EC13F0000E24EC13F0BD
:1046A800000E24EC13F0000E24EC13F0FE0E1EECAA
:1046B80013F0000E24EC13F0010E24EC13F0020E9C
:1046C80024EC13F0030E24EC13F08E0E1EEC13F002
:1046D800000E24EC13F0000E24EC13F0000E24EC72
:1046E80013F0000E24EC13F0000E24EC13F0000E6F
:1046F80024EC13F0000E24EC13F0000E24EC13F05D
:10470800000E24EC13F0000E24EC13F0000E24EC41
:1047180013F0000E24EC13F0000E24EC13F0000E3E
:1047280024EC13F0000E24EC13F0000E24EC13F02C
:10473800000E24EC13F0000E24EC13F0000E24EC11
:1047480013F0000E24EC13F08F0E1EEC13F0000E85
:1047580024EC13F0000E24EC13F0000E24EC13F0FC
:10476800000E24EC13F0000E24EC13F0000E24ECE1
:1047780013F0000E24EC13F0000E24EC13F0000EDE
:1047880024EC13F0000E24EC13F0000E24EC13F0CC
:10479800000E24EC13F0000E24EC13F0000E24ECB1
:1047A80013F0000E24EC13F0000E24EC13F0000EAE
:1047B80024EC13F0000E24EC13F0000E24EC13F09C
:1047C800000E24EC13F0000E24EC13F0000E24EC81
:1047D80013F0000E24EC13F0000E24EC13F0000E7E
:1047E80024EC13F0000E24EC13F0000E24EC13F06C
:1047F800000E24EC13F0000E24EC13F0000E24EC51
:1048080013F0000E24EC13F0000E24EC13F0000E4D
:1048180024EC13F0900E1EEC13F0000E24EC13F0B1
:10482800000E24EC13F0000E24EC13F0000E24EC20
:1048380013F0000E24EC13F0000E24EC13F0910E8C
:104848001EEC13F0000E24EC13F0000E24EC13F011
:10485800000E24EC13F0000E24EC13F0000E24ECF0
:1048680013F0000E24EC13F0000E24EC13F0000EED
:1048780024EC13F0000E24EC13F0000E24EC13F0DB
:10488800000E24EC13F0000E24EC13F0000E24ECC0
:1048980013F0000E24EC13F0000E24EC13F0000EBD
:1048A80024EC13F0000E24EC13F0000E24EC13F0AB
:1048B800000E24EC13F0000E24EC13F0920E1EEC04
:1048C80013F0000E24EC13F0000E24EC13F0000E8D
:1048D80024EC13F0000E24EC13F0000E24EC13F07B
:1048E800000E24EC13F0000E24EC13F0000E24EC60
:1048F80013F0000E24EC13F0000E24EC13F0000E5D
:1049080024EC13F0000E24EC13F0000E24EC13F04A
:10491800000E24EC13F0000E24EC13F0000E24EC2F
:1049280013F0000E24EC13F0000E24EC13F0000E2C
:1049380024EC13F0000E24EC13F0930E1EEC13F08D
:10494800000E24EC13F0000E24EC13F0000E24ECFF
:1049580013F0000E24EC13F0000E24EC13F0000EFC
:1049680024EC13F0000E24EC13F0000E24EC13F0EA
:10497800000E24EC13F0000E24EC13F0000E24ECCF
:1049880013F0000E24EC13F0000E24EC13F0000ECC
:1049980024EC13F0000E24EC13F0000E24EC13F0BA
:1049A800000E24EC13F0000E24EC13F0000E24EC9F
:1049B80013F0000E24EC13F0940E1EEC13F0000E0E
:1049C80024EC13F0000E24EC13F0000E24EC13F08A
:1049D800000E24EC13F0000E24EC13F0000E24EC6F
:1049E80013F0000E24EC13F0000E24EC13F0000E6C
:1049F80024EC13F0000E24EC13F0000E24EC13F05A
:104A0800000E24EC13F0000E24EC13F0000E24EC3E
:104A180013F0000E24EC13F0000E24EC13F0000E3B
:104A280024EC13F0000E24EC13F0000E24EC13F029
:104A3800000E24EC13F0950E1EEC13F0000E24EC7F
:104A480013F0000E24EC13F0000E24EC13F0000E0B
:104A580024EC13F0000E24EC13F0000E24EC13F0F9
:104A6800000E24EC13F0000E24EC13F0000E24ECDE
:104A780013F0000E24EC13F0000E24EC13F0000EDB
:104A880024EC13F0000E24EC13F0000E24EC13F0C9
:104A9800000E24EC13F0000E24EC13F0000E24ECAE
:104AA80013F0960E1EEC13F0000E24EC13F0000E1B
:104AB80024EC13F0000E24EC13F0000E24EC13F099
:104AC800000E24EC13F0000E24EC13F0000E24EC7E
:104AD80013F0000E24EC13F0000E24EC13F0000E7B
:104AE80024EC13F0000E24EC13F0000E24EC13F069
:104AF800000E24EC13F0000E24EC13F0000E24EC4E
:104B080013F0000E24EC13F0000E24EC13F0970EB3
:104B18001EEC13F0000E24EC13F0000E24EC13F03E
:104B2800000E24EC13F0000E24EC13F0000E24EC1D
:104B380013F0000E24EC13F0000E24EC13F0000E1A
:104B480024EC13F0000E24EC13F0000E24EC13F008
:104B5800000E24EC13F0000E24EC13F0000E24ECED
:104B680013F0000E24EC13F0000E24EC13F0000EEA
:104B780024EC13F0000E24EC13F0980E1EEC13F046
:104B8800000E24EC13F0000E24EC13F0000E24ECBD
:104B980013F0000E24EC13F0000E24EC13F0000EBA
:104BA80024EC13F0000E24EC13F0000E24EC13F0A8
:104BB800000E24EC13F0000E24EC13F0000E24EC8D
:104BC80013F0000E24EC13F0000E24EC13F0000E8A
:104BD80024EC13F0000E24EC13F0000E24EC13F078
:104BE800000E24EC13F0990E1EEC13F0000E24ECCA
:104BF80013F0000E24EC13F0000E24EC13F0000E5A
:104C080024EC13F0000E24EC13F0000E24EC13F047
:104C1800000E24EC13F0000E24EC13F0000E24EC2C
:104C280013F0000E24EC13F0000E24EC13F0000E29
:104C380024EC13F0000E24EC13F0000E24EC13F017
:104C4800000E24EC13F0000E24EC13F0000E24ECFC
:104C580013F09A0E1EEC13F0000E24EC13F0000E65
:104C680024EC13F0000E24EC13F0000E24EC13F0E7
:104C7800000E24EC13F0000E24EC13F0000E24ECCC
:104C880013F0000E24EC13F0000E24EC13F0000EC9
:104C980024EC13F0000E24EC13F0000E24EC13F0B7
:104CA800000E24EC13F0000E24EC13F0000E24EC9C
:104CB80013F0000E24EC13F0000E24EC13F09C0EFD
:104CC8001EEC13F0000E24EC13F0000E24EC13F08D
:104CD800000E24EC13F0000E24EC13F0000E24EC6C
:104CE80013F0000E24EC13F0000E24EC13F0000E69
:104CF80024EC13F0000E24EC13F0000E24EC13F057
:104D0800000E24EC13F0000E24EC13F0000E24EC3B
:104D180013F0000E24EC13F0000E24EC13F0000E38
:104D280024EC13F0000E24EC13F0000E24EC13F026
:104D3800000E24EC13F0000E24EC13F0000E24EC0B
:104D480013F0000E24EC13F0000E24EC13F0000E08
:104D580024EC13F0000E24EC13F0000E24EC13F0F6
:104D6800000E24EC13F0000E24EC13F0000E24ECDB
:104D780013F0000E24EC13F0000E24EC13F0000ED8
:104D880024EC13F0000E24EC13F0000E24EC13F0C6
:104D9800000E24EC13F0000E24EC13F0000E24ECAB
:104DA80013F0000E24EC13F0000E24EC13F0000EA8
:104DB80024EC13F0000E24EC13F0000E24EC13F096
:104DC800000E24EC13F0000E24EC13F0000E24EC7B
:104DD80013F0000E24EC13F0000E24EC13F0000E78
:104DE80024EC13F0000E24EC13F0000E24EC13F066
:104DF800000E24EC13F0000E24EC13F0000E24EC4B
:104E080013F0000E24EC13F0000E24EC13F0000E47
:104E180024EC13F0000E24EC13F0000E24EC13F035
:104E2800000E24EC13F0000E24EC13F0000E24EC1A
:104E380013F0000E24EC13F0000E24EC13F0000E17
:104E480024EC13F0000E24EC13F0000E24EC13F005
:104E5800000E24EC13F0000E24EC13F0000E24ECEA
:104E680013F0000E24EC13F0000E24EC13F0000EE7
:104E780024EC13F0000E24EC13F0000E24EC13F0D5
:104E8800000E24EC13F0000E24EC13F0000E24ECBA
:104E980013F0000E24EC13F0000E24EC13F0000EB7
:104EA80024EC13F0000E24EC13F0000E24EC13F0A5
:104EB800000E24EC13F0000E24EC13F0000E24EC8A
:104EC80013F0000E24EC13F0000E24EC13F0000E87
:104ED80024EC13F0000E24EC13F0000E24EC13F075
:104EE800000E24EC13F0000E24EC13F0000E24EC5A
:104EF80013F0000E24EC13F0000E24EC13F0000E57
:104F080024EC13F09D0E1EEC13F0000E24EC13F0AD
:104F1800000E24EC13F0000E24EC13F0000E24EC29
:104F280013F0000E24EC13F0000E24EC13F0000E26
:104F380024EC13F0000E24EC13F0000E24EC13F014
:104F4800000E24EC13F0000E24EC13F0000E24ECF9
:104F580013F0000E24EC13F0000E24EC13F0000EF6
:104F680024EC13F0000E24EC13F0000E24EC13F0E4
:104F7800000E24EC13F0000E24EC13F0000E24ECC9
:104F880013F0000E24EC13F0000E24EC13F0000EC6
:104F980024EC13F0000E24EC13F0000E24EC13F0B4
:104FA800000E24EC13F0000E24EC13F0000E24EC99
:104FB80013F0000E24EC13F0000E24EC13F0000E96
:104FC80024EC13F0000E24EC13F0000E24EC13F084
:104FD800000E24EC13F0000E24EC13F0000E24EC69
:104FE80013F0000E24EC13F0000E24EC13F0000E66
:104FF80024EC13F0000E24EC13F0000E24EC13F054
:10500800000E24EC13F0000E24EC13F0000E24EC38
:1050180013F0000E24EC13F0000E24EC13F0000E35
:1050280024EC13F0000E24EC13F0000E24EC13F023
:10503800000E24EC13F0000E24EC13F0000E24EC08
:1050480013F0000E24EC13F0000E24EC13F0000E05
:1050580024EC13F0000E24EC13F0000E24EC13F0F3
:10506800000E24EC13F0000E24EC13F0000E24ECD8
:1050780013F0000E24EC13F0000E24EC13F0000ED5
:1050880024EC13F0000E24EC13F0000E24EC13F0C3
:10509800000E24EC13F0000E24EC13F0000E24ECA8
:1050A80013F0000E24EC13F0000E24EC13F0000EA5
:1050B80024EC13F0000E24EC13F0000E24EC13F093
:1050C800000E24EC13F0000E24EC13F0000E24EC78
:1050D80013F0000E24EC13F0000E24EC13F0000E75
:1050E80024EC13F0000E24EC13F0000E24EC13F063
:1050F800000E24EC13F0000E24EC13F0000E24EC48
:1051080013F0000E24EC13F0000E24EC13F0000E44
:1051180024EC13F0000E24EC13F0000E24EC13F032
:10512800000E24EC13F0000E24EC13F0000E24EC17
:1051380013F0000E24EC13F0000E24EC13F0000E14
:1051480024EC13F0000E24EC13F0000E24EC13F002
:10515800000E24EC13F0000E24EC13F0000E24ECE7
:1051680013F0000E24EC13F0000E24EC13F0000EE4
:1051780024EC13F0000E24EC13F0000E24EC13F0D2
:10518800000E24EC13F0000E24EC13F0000E24ECB7
:1051980013F0000E24EC13F0000E24EC13F0000EB4
:1051A80024EC13F0000E24EC13F0000E24EC13F0A2
:1051B800000E24EC13F0000E24EC13F0000E24EC87
:1051C80013F0000E24EC13F0000E24EC13F0000E84
:1051D80024EC13F0000E24EC13F0000E24EC13F072
:1051E800000E24EC13F0000E24EC13F0000E24EC57
:1051F80013F0000E24EC13F0000E24EC13F0000E54
:1052080024EC13F0000E24EC13F0B60E1EEC13F091
:10521800000E24EC13F0020E24EC13F0020E24EC22
:1052280013F0020E24EC13F0020E24EC13F0020E1D
:1052380024EC13F0020E24EC13F0000E24EC13F00F
:105248000F0E24EC13F00F0E24EC13F00F0E24ECC9
:1052580013F00F0E24EC13F00F0E24EC13F00F0EC6
:1052680024EC13F0B90E1EEC13F0000E24EC13F02E
:10527800000E24EC13F0000E24EC13F0000E24ECC6
:1052880013F0000E24EC13F0000E24EC13F0000EC3
:1052980024EC13F0000E24EC13F0000E24EC13F0B1
:1052A800000E24EC13F0000E24EC13F0000E24EC96
:1052B80013F0000E24EC13F0000E24EC13F0000E93
:1052C80024EC13F0000E24EC13F0000E24EC13F081
:1052D800000E24EC13F0000E24EC13F0000E24EC66
:1052E80013F0000E24EC13F0000E24EC13F0000E63
:1052F80024EC13F0000E24EC13F0000E24EC13F051
:10530800000E24EC13F0000E24EC13F0000E24EC35
:1053180013F0000E24EC13F0000E24EC13F0000E32
:1053280024EC13F0000E24EC13F0000E24EC13F020
:10533800000E24EC13F0000E24EC13F0000E24EC05
:1053480013F0000E24EC13F0000E24EC13F0000E02
:1053580024EC13F0000E24EC13F0000E24EC13F0F0
:10536800000E24EC13F0000E24EC13F0000E24ECD5
:1053780013F0000E24EC13F0000E24EC13F0000ED2
:1053880024EC13F0000E24EC13F0000E24EC13F0C0
:10539800000E24EC13F0000E24EC13F0000E24ECA5
:1053A80013F0000E24EC13F0000E24EC13F0000EA2
:1053B80024EC13F0000E24EC13F0000E24EC13F090
:1053C800000E24EC13F0000E24EC13F0000E24EC75
:1053D80013F0000E24EC13F0000E24EC13F0000E72
:1053E80024EC13F0000E24EC13F0000E24EC13F060
:1053F800000E24EC13F0000E24EC13F0000E24EC45
:1054080013F0000E24EC13F0000E24EC13F0000E41
:1054180024EC13F0000E24EC13F0000E24EC13F02F
:10542800000E24EC13F0000E24EC13F0000E24EC14
:1054380013F0000E24EC13F0000E24EC13F0000E11
:1054480024EC13F0000E24EC13F0000E24EC13F0FF
:10545800000E24EC13F0000E24EC13F0000E24ECE4
:1054680013F0000E24EC13F0000E24EC13F0000EE1
:1054780024EC13F0000E24EC13F0000E24EC13F0CF
:10548800000E24EC13F0000E24EC13F0000E24ECB4
:1054980013F0000E24EC13F0000E24EC13F0000EB1
:1054A80024EC13F0000E24EC13F0000E24EC13F09F
:1054B800BC0E1EEC13F0000E24EC13F0010E24ECCD
:1054C80013F0230E24EC13F0450E24EC13F0670EB2
:1054D80024EC13F0010E24EC13F0230E24EC13F04B
:1054E800450E24EC13F0670E24EC13F0000E24ECA8
:1054F80013F0000E24EC13F0000E24EC13F0000E51
:1055080024EC13F0000E24EC13F0000E24EC13F03E
:10551800000E24EC13F0BF0E1EEC13F0000E24EC6A
:1055280013F0000E24EC13F0000E24EC13F0000E20
:1055380024EC13F0000E24EC13F0000E24EC13F00E
:10554800000E24EC13F0000E24EC13F0000E24ECF3
:1055580013F0000E24EC13F0000E24EC13F0000EF0
:1055680024EC13F0000E24EC13F0000E24EC13F0DE
:10557800000E24EC13F0000E24EC13F0000E24ECC3
:1055880013F0000E24EC13F0000E24EC13F0000EC0
:1055980024EC13F0000E24EC13F0000E24EC13F0AE
:1055A800000E24EC13F0000E24EC13F0000E24EC93
:1055B80013F0000E24EC13F0000E24EC13F0000E90
:1055C80024EC13F0000E24EC13F0000E24EC13F07E
:1055D800C80E1EEC13F0000E24EC13F0000E24ECA1
:1055E80013F0000E24EC13F0CF0E1EEC13F0010E96
:1055F80024EC13F0DD0E1EEC13F0000E24EC13F077
:10560800000E24EC13F0000E24EC13F0000E24EC32
:1056180013F0000E24EC13F0000E24EC13F0000E2F
:1056280024EC13F0000E24EC13F0E50E1EEC13F03E
:10563800000E24EC13F0000E24EC13F0000E24EC02
:1056480013F0000E24EC13F0000E24EC13F0000EFF
:1056580024EC13F0E60E1EEC13F08C0E24EC13F081
:10566800000E24EC13F0000E24EC13F0E80E1EECF0
:1056780013F0000E24EC13F0EF0E1EEC13F0000EE6
:1056880024EC13F0110E24EC13F0320E24EC13F07A
:10569800FF0E24EC13F0010E24EC13F0320E24EC70
:1056A80013F0FF0E24EC13F0010E24EC13F0FB0EA4
:1056B8001EEC13F0100E24EC13F0050E24EC13F07E
:1056C800010E24EC13F0000E24EC13F0050E24EC6C
:1056D80013F0000E24EC13F0FC0E1EEC13F0000E79
:1056E80024EC13F0000E24EC13F0000E24EC13F05D
:1056F80000011200486F410A74E0030A78E0010AC9
:105708007DE0070AD8B481D0010AD8B485D0030A4D
:10571800D8B489D0010AD8B48DD00F0AD8B491D0A2
:10572800010AD8B496D0030AD8B49BD0010AD8B4D9
:10573800A0D0070AD8B4A5D0010AD8B4AAD0030AC1
:10574800D8B4AFD0010AD8B4B4D01F0AD8B4B9D0ED
:10575800010AD8B4BED0030AD8B4C3D0010AD8B459
:10576800C8D0070AD8B4CDD0010AD8B4D2D0030A19
:10577800D8B4D7D0010AD8B4DCD00F0AD8B4E1D055
:10578800010AD8B4E6D0030AD8B4EBD0770AD8B463
:10579800F0D00D0AD8B4F5D0100AD8B4FAD0010A5E
:1057A800D8B4FFD0030AD8B404D1010AD8B409D1B7
:1057B800070AD8B40ED1010AD8B413D1030AD8B451
:1057C80018D1010AD8B41DD10F0AD8B422D1010AC0
:1057D800D8B427D1170AD8B42CD1140AD8B431D1E7
:1057E80037D10001846B856B140E866F31D12E0E74
:1057F8000001846F856B100E866F2AD1530E00014D
:10580800846F856B140E866F23D1810E0001846F1F
:10581800856B140E866F1CD1AF0E0001846F856BEB
:10582800100E866F15D1D40E0001846F856B100E93
:10583800866F0ED1F90E0001846F856B140E866F8A
:1058480007D1270E0001846F010E856F100E866F39
:10585800FFD04C0E0001846F010E856F080E866F15
:10586800F7D05F0E0001846F010E856F100E866FF2
:10587800EFD0840E0001846F010E856F140E866FC1
:10588800E7D0B20E0001846F010E856F100E866F8F
:10589800DFD0D70E0001846F010E856F140E866F5E
:1058A800D7D0050E0001846F020E856F100E866F2B
:1058B800CFD02A0E0001846F020E856F140E866FFA
:1058C800C7D0580E0001846F020E856F100E866FC8
:1058D800BFD07D0E0001846F020E856F140E866F97
:1058E800B7D0B00E0001846F020E856F100E866F60
:1058F800AFD0D50E0001846F020E856F100E866F33
:10590800A7D0FA0E0001846F020E856F100E866F05
:105918009FD01F0E0001846F030E856F100E866FD7
:1059280097D0440E0001846F030E856F140E866FA6
:105938008FD0720E0001846F030E856F200E866F64
:1059480087D0BB0E0001846F030E856F140E866F1F
:105958007FD0E90E0001846F030E856F140E866FE9
:1059680077D0170E0001846F040E856F100E866FB6
:105978006FD03C0E0001846F040E856F080E866F91
:1059880067D0D50E0001846F100E856F080E866FE4
:105998005FD04F0E0001846F040E856F100E866F66
:1059A80057D0740E0001846F040E856F100E866F39
:1059B8004FD0990E0001846F040E856F100E866F0C
:1059C80047D0BE0E0001846F040E856F100E866FDF
:1059D8003FD0E30E0001846F040E856F100E866FB2
:1059E80037D0080E0001846F050E856F100E866F84
:1059F8002FD02D0E0001846F050E856F100E866F57
:105A080027D0520E0001846F050E856F100E866F29
:105A18001FD0770E0001846F050E856F100E866FFC
:105A280017D09C0E0001846F050E856F100E866FCF
:105A38000FD0C10E0001846F050E856F080E866FAA
:105A480007D0D40E0001846F050E856F080E866F8F
:105A580002011200486F300A13E0010A19E0030A34
:105A68001FE0010A25E0070A2BE0010A31E0030ADA
:105A780037E0010A3DE00F0A43E0010A49E04FD050
:105A8800E70E0001846F050E856F280E866F47D0DC
:105A9800BA0E0001846F060E856F280E866F3FD000
:105AA8008D0E0001846F070E856F280E866F37D024
:105AB800600E0001846F080E856F280E866F2FD048
:105AC800330E0001846F090E856F280E866F27D06C
:105AD800060E0001846F0A0E856F280E866F1FD090
:105AE800D90E0001846F0A0E856F280E866F17D0B5
:105AF800AC0E0001846F0B0E856F280E866F0FD0D9
:105B08007F0E0001846F0C0E856F280E866F07D0FC
:105B1800520E0001846F0D0E856F280E866F0201EC
:105B28001200436B446B456B466B466B3E514661B6
:105B38001DD047A10AD046513C25486F000E3D2193
:105B4800496F94EC5AF086DF09D046513C25486FDE
:105B5800000E3D21496F94EC5AF0CCDD00018651CE
:105B680002014327040E4327462BE0D7040E435F68
:105B7800790E4361120043517808446FD89044333A
:105B8800030E4415456F455301E04427466B3E51CB
:105B9800466151D047A124D046513C25486F000E9C
:105BA8003D21496F94EC5AF055DF44C248F2496BE5
:105BB8003BC24AF24B6B86C04CF24D6B2A0E4E6FBD
:105BC8004F6B84C050F285C051F23FC252F240C2BE
:105BD80053F241C254F242C255F287EC13F023D07B
:105BE80046513C25486F000E3D21496F94EC5AF010
:105BF80081DD44C248F2496B3BC24AF24B6B86C016
:105C08004CF24D6B120E4E6F4F6B84C050F285C034
:105C180051F23FC252F240C253F241C254F242C260
:105C280055F287EC13F00001865102014427040E57
:105C38004427462BACD712000201296F1C0E2A6F8D
:105C48000001BC5103E0010A1BE032D02AC248F22D
:105C58000201496B29C24AF24B6B400E4C6F4D6BE7
:105C6800200E4E6F4F6B250E506F130E516FE00EC6
:105C7800526F070E536F546B556B87EC13F018D0A7
:105C88002AC248F20201496B29C24AF24B6B400E04
:105C98004C6F4D6B200E4E6F4F6B260E506F140ECF
:105CA800516FE00E526F5369546B556B87EC13F0CC
:105CB800020112002AC23BF22BC23CF23C0E57EC06
:105CC8000AF03BC22CF22AC23BF22BC23CF23C0E39
:105CD80099EC0AF02D6F2CC23BF23C6B0A0E57EC84
:105CE8000AF03BC22EF22CC23BF23C6B0A0E99EC36
:105CF8000AF02F6F2DC23BF23C6B0A0E57EC0AF0EC
:105D08003BC230F22DC23BF23C6B0A0E99EC0AF012
:105D1800316F300E2E25326F300E2F25336F3A0E2D
:105D2800346F300E3025356F300E3125366F29C26D
:105D38003BF2320E3C6F020E3D6F050E3E6F4791EF
:105D48003F694069416B426BECD6296F8FC03BF2CB
:105D580090C03CF291C03DF2E80E3E6F030E3F6FDB
:105D680080EC0AF03BC22AF23CC22BF28FC03BF215
:105D780090C03CF291C03DF2E80E3E6F030E3F6FBB
:105D8800ABEC0AF040C22CF241C22DF22AC23BF21F
:105D98002BC23CF2640E57EC0AF03BC22EF22AC228
:105DA8003BF22BC23CF2640E99EC0AF02F6F2FC223
:105DB8003BF23C6B0A0E57EC0AF03BC230F22FC2A2
:105DC8003BF23C6B0A0E99EC0AF0316F2CC23BF2A5
:105DD8002DC23CF2640E57EC0AF03BC232F22CC2E0
:105DE8003BF22DC23CF2640E99EC0AF0336F33C2D9
:105DF8003BF23C6B0A0E57EC0AF03BC234F233C25A
:105E08003BF23C6B0A0E99EC0AF0356F300E3025E8
:105E1800366F300E3125376F300E3225386F300E21
:105E28003425396F300E35253A6F29C23BF2360ECC
:105E38003C6F020E3D6F050E3E6F47913F6940690A
:105E4800416B426B6ED62AC23BF23C6B0A0E57EC92
:105E58000AF03BC22DF22AC23BF23C6B0A0E99ECC7
:105E68000AF02E6F2DC23BF23C6B0A0E57EC0AF07B
:105E78003BC22FF22DC23BF23C6B0A0E99EC0AF0A2
:105E8800306F2F5304E0300E2F25316F02D0300EC3
:105E9800316F300E3025326F2E0E336F300E2E25B7
:105EA800346F29C23BF2310E3C6F020E3D6F040E77
:105EB8003E6F47912BC23FF22CC240F2416B426BBE
:105EC80030D67FCF3BF202013C6B0A0E57EC0AF04A
:105ED8003BC27FFF7FCF3BF23C6B0A0E99EC0AF086
:105EE8007F6E7FCF3BF23C6B0A0E57EC0AF03BC249
:105EF8007FFF7FCF3BF23C6B0A0E99EC0AF07F6E76
:105F0800300E7F247F6E300E7F247F6E300E7F240C
:105F18007F6E7FCF3BF27F0E3C6F0F0E3D6F030EFF
:105F28003E6F47917FCF3FF27FCF40F2416B426B8C
:105F3800F8D51A0E2C25306F2D51010A13E0030AEB
:105F480032E0020A50E0030A6FE0060AD8B48DD0A6
:105F5800030AD8B4ABD0020AD8B4C9D0030AD8B45B
:105F6800E7D006D12CC23BF2040E3C6F800E3D6F89
:105F7800040E3E6F47912EC23FF22FC240F2416B92
:105F8800426BCFDD30C23BF21C0E3C6F800E3D6F82
:105F9800040E3E6F47912EC23FF22FC240F2416B72
:105FA800426BBFDDE5D02CC23BF23C6B800E3D6FEF
:105FB800030E3E6F47912EC23FF22FC240F2416B53
:105FC800426BAFDD30C23BF2040E3C6F800E3D6F7A
:105FD800040E3E6F47912EC23FF22FC240F2416B32
:105FE800426B9FDDC5D02CC23BF2090E3C6F800E80
:105FF8003D6F030E3E6F47912EC23FF22FC240F213
:10600800416B426B8EDD30C23BF2B00E3C6F800EAE
:106018003D6F040E3E6F47912EC23FF22FC240F2F1
:10602800416B426B7EDDA4D02CC23BF20D0E3C6F5F
:10603800800E3D6F040E3E6F47912EC23FF22FC275
:1060480040F2416B426B6DDD30C23BF2B00E3C6FEB
:10605800800E3D6F040E3E6F47912EC23FF22FC255
:1060680040F2416B426B5DDD83D02CC23BF21C0ECB
:106078003C6F800E3D6F040E3E6F47912EC23FF27B
:106088002FC240F2416B426B4CDD30C23BF2120E24
:106098003C6F800E3D6F040E3E6F47912EC23FF25B
:1060A8002FC240F2416B426B3CDD62D02CC23BF206
:1060B8004E0E3C6F800E3D6F050E3E6F47912EC20F
:1060C8003FF22FC240F2416B426B2BDD30C23BF2F4
:1060D800B00E3C6F800E3D6F040E3E6F47912EC28E
:1060E8003FF22FC240F2416B426B1BDD41D02CC204
:1060F8003BF2170E3C6F800E3D6F040E3E6F4791CA
:106108002EC23FF22FC240F2416B426B0ADD30C211
:106118003BF21C0E3C6F800E3D6F040E3E6F4791A4
:106128002EC23FF22FC240F2416B426BFADC20D004
:106138002CC23BF2910E3C6F800E3D6F030E3E6FFA
:1061480047912EC23FF22FC240F2416B426BE9DC0D
:1061580030C23BF2210E3C6F800E3D6F040E3E6F45
:1061680047912EC23FF22FC240F2416B426BD9DCFD
:1061780012002B6F080E2C6F2CC22EF22F6B29C227
:1061880030F2316B680E326F336B190E346F356B2A
:10619800366B376B45EC13F02A510BE0010A21E00E
:1061A800030A38E0010A4EE0070A65E0010A7CE0CC
:1061B80093D02CC248F2496B29C24AF24B6B680E45
:1061C8004C6F4D6B2BC24EF24F6BD00E506F170EAB
:1061D800516F526BF80E536F546B556B87EC13F07D
:1061E8007BD02CC248F2496B29C24AF24B6B680E2D
:1061F8004C6F4D6B2BC24EF24F6B410E506F1A0E07
:10620800516F200E526FFD0E536F546B556B87EC18
:1062180013F062D02CC248F2496B29C24AF24B6B88
:10622800680E4C6F4D6B2BC24EF24F6BB20E506F17
:106238001C0E516FE00E526F5369546B556B87EC0F
:1062480013F04AD02CC248F2496B29C24AF24B6B70
:10625800680E4C6F4D6B2BC24EF24F6B230E506F76
:106268001F0E516FE00E526F070E536F546B556B34
:1062780087EC13F031D02CC248F2496B29C24AF29C
:106288004B6B680E4C6F4D6B2BC24EF24F6B940EDE
:10629800506F210E516FE00E526F070E536F546B03
:1062A800556B87EC13F018D02CC248F2496B29C201
:1062B8004AF24B6B680E4C6F4D6B2BC24EF24F6B14
:1062C800050E506F240E516FE00E526F070E536F7C
:1062D800546B556B87EC13F01200286B285107E0BC
:1062E800010AD8B490D0030AD8B48DD08CD0380E17
:1062F8001EEC13F02E6B2F6B306B316B780E326FF8
:10630800336BF00E346F356B366B376B45EC13F02F
:1063180000016CAB3BD01C0E0201486F496B2F0E7D
:106328004A6F4B6B400E4C6F4D6B550E4E6F4F6B5B
:10633800270E506F150E516F290E526FA50E536F11
:10634800546B556B87EC13F0950E3B6F260E3C6F24
:10635800800E3D6F040E3E6F4791290E3F6FA50ECC
:10636800406F416B426B95EC2DF0AF0E3B6F3C6973
:10637800800E3D6F020E3E6F4791290E3F6FA50EAE
:10638800406F416B426B95EC2DF03AD00C0E020138
:10639800486F496B2E0E4A6F4B6B600E4C6F4D6BFE
:1063A800570E4E6F4F6B100E506F0F0E516F290E18
:1063B800526FA50E536F546B556B87EC13F0950E07
:1063C8003B6F300E3C6F800E3D6F030E3E6F479162
:1063D800290E3F6FA50E406F416B426B95EC2DF077
:1063E800AF0E3B6F3C69800E3D6F020E3E6F4791CA
:1063F800290E3F6FA50E406F416B426B95EC2DF057
:10640800390E1EEC13F012000A0E02017803F3CFC6
:1064180028F2795128272E6B2F6B306B316B780E51
:10642800326F336BF00E346F356B366B376B45EC70
:1064380013F00001BC6B0B0E20EC2EF08A532EE0FB
:106448003D0E3B6FA30E3C6F800E3D6F040E3E6FFA
:106458004791290E3F6FA50E406F416B426B95EC3B
:106468002DF0590E296F98C22AF299C22BF222DC1C
:106478007A0E2C6F77C22DF2290E2E6FA50E2F6F74
:1064880058DD774D07D0AE0E296F28C22AF22B6946
:106498002C69D9DCE8EC3EF0020156D0885329E09B
:1064A8003D0E3B6F600E3C6F800E3D6F050E3E6FDC
:1064B8004791290E3F6FA50E406F416B426B95ECDB
:1064C8002DF0590E42DC7A0E2C6F77C22DF2290E70
:1064D8002E6FA50E2F6F2DDD774D07D0AE0E296FCD
:1064E80028C22AF22B692C69AEDCE8EC3EF00201E6
:1064F8002BD0080E486F496B3D0E4A6F4B6B680EE8
:106508004C6F4D6B120E4E6F4F6B250E506F0E0E6B
:10651800516F52695369546B556B87EC13F0620ED7
:106528002C6F77C22DF2290E2E6FA50E2F6F01DD6D
:10653800774D07D09C0E296F28C22AF22B692C6947
:1065480082DCE8EC3EF00201120002012E6B2F6B98
:10655800306B316B780E326F336BF00E346F356BF6
:10656800366B376B45EC13F0080E3B6F2B0E3C6F08
:10657800800E3D6F040E3E6F4791290E3F6FA50EAA
:10658800406F416B426B95EC2DF0080E486F496BDC
:10659800200E4A6F4B6B680E4C6F4D6B040E4E6F9E
:1065A8004F6B760E506F260E516F290E526FA50E47
:1065B800536F546B556B87EF13F02E6B2F6B306B4B
:1065C800316B780E326F336BF00E346F356B366B80
:1065D800376B45EC13F0080E2D6FD1C02EF2290E43
:1065E8002F6FA50E306FAED8080E486F496B3A0E64
:1065F8004A6F4B6B680E4C6F4D6B040E4E6F4F6BB2
:10660800760E506F260E516F290E526FA50E536FDE
:10661800546B556B87EF13F02E6B2F6B306B316B10
:10662800780E326F336BF00E346F356B366B376B19
:1066380045EC13F00C0E486F496B2E0E4A6F4B6BEE
:10664800600E4C6F4D6B570E4E6F4F6B100E506FA8
:106658000F0E516F290E526FA50E536F546B556B69
:1066680087EC13F0950E3B6F300E3C6F800E3D6F3C
:10667800030E3E6F4791290E3F6FA50E406F416B89
:10668800426B95EC2DF0AF0E3B6FFB0E3C6F800E0E
:106698003D6F030E3E6F4791290E3F6FA50E406F69
:1066A800416B426B95EF2DF002012D6F2E6B2D5132
:1066B80007E0010A08E0030A09E0010A0AE00BD032
:1066C800300E2E6F08D0620E2E6F05D0940E2E6FEE
:1066D80002D0C60E2E6F2E5112003A6F3B6B3A5104
:1066E8000BE0010A0CE0030A0DE0010A0EE0070ABC
:1066F8000FE0010A10E011D0480E3B6F0ED0620E79
:106708003B6F0BD07C0E3B6F08D0960E3B6F05D0CD
:10671800B00E3B6F02D0CA0E3B6F3B5112002D6F7B
:106728002E6B2D5105E0010A06E0030A07E008D0A8
:10673800480E2E6F05D07A0E2E6F02D0AC0E2E6F3B
:106748002E511200180E2D25316F2E513BE0010AF3
:106758005CE0030A7DE0010AD8B49DD0070AD8B4EA
:10676800BDD0010AD8B4DDD0030AD8B4FDD0010ADF
:10677800D8B41DD10F0AD8B43DD1010AD8B45DD11F
:10678800030AD8B47DD1010AD8B49DD1070AD8B478
:10679800BDD1010AD8B4DDD1030AD8B4FDD1010AAC
:1067A800D8B41DD21F0AD8B43DD2010AD8B45DD2DC
:1067B800030AD8B47DD2010AD8B49DD2070AD8B446
:1067C800BDD2DED22DC23BF2340E3C6F800E3D6F3F
:1067D800040E3E6F47912FC23FF230C240F2416B28
:1067E800426B95EC2DF031C23BF2B00E3C6F800E3F
:1067F8003D6F040E3E6F47912FC23FF230C240F208
:10680800416B426B95EC2DF0BBD22DC23BF2390E99
:106818003C6F800E3D6F050E3E6F47912FC23FF2D1
:1068280030C240F2416B426B95EC2DF031C23BF225
:10683800910E3C6F800E3D6F030E3E6F47912FC245
:106848003FF230C240F2416B426B95EC2DF098D28A
:106858002DC23BF20C0E3C6F810E3D6F030E3E6F56
:1068680047912FC23FF230C240F2416B426B95EC28
:106878002DF031C23BF23F0E3C6F800E3D6F050E8E
:106888003E6F47912FC23FF230C240F2416B426BDC
:1068980095EC2DF075D22DC23BF20C0E3C6F810E9B
:1068A8003D6F030E3E6F47912FC23FF230C240F258
:1068B800416B426B95EC2DF031C23BF2450E3C6FBB
:1068C800800E3D6F040E3E6F47912FC23FF230C2DB
:1068D80040F2416B426B95EC2DF052D22DC23BF247
:1068E8004A0E3C6F800E3D6F030E3E6F47912FC2DC
:1068F8003FF230C240F2416B426B95EC2DF031C251
:106908003BF20C0E3C6F810E3D6F030E3E6F4791BC
:106918002FC23FF230C240F2416B426B95EC2DF032
:106928002FD22DC23BF24E0E3C6F800E3D6F050EEE
:106938003E6F47912FC23FF230C240F2416B426B2B
:1069480095EC2DF031C23BF2540E3C6F800E3D6F3A
:10695800050E3E6F47912FC23FF230C240F2416BA5
:10696800426B95EC2DF00CD22DC23BF2600E3C6FC1
:10697800800E3D6F050E3E6F47912FC23FF230C229
:1069880040F2416B426B95EC2DF031C23BF25A0E4E
:106998003C6F800E3D6F050E3E6F47912FC23FF250
:1069A80030C240F2416B426B95EC2DF0E9D12DC21B
:1069B8003BF2600E3C6F800E3D6F050E3E6F4791B7
:1069C8002FC23FF230C240F2416B426B95EC2DF082
:1069D80031C23BF2660E3C6F800E3D6F040E3E6F77
:1069E80047912FC23FF230C240F2416B426B95ECA7
:1069F8002DF0C6D12DC23BF26B0E3C6F800E3D6F61
:106A0800040E3E6F47912FC23FF230C240F2416BF5
:106A1800426B95EC2DF031C23BF2700E3C6F800E4C
:106A28003D6F030E3E6F47912FC23FF230C240F2D6
:106A3800416B426B95EC2DF0A3D12DC23BF2740E45
:106A48003C6F800E3D6F050E3E6F47912FC23FF29F
:106A580030C240F2416B426B95EC2DF031C23BF2F3
:106A68007A0E3C6F800E3D6F030E3E6F47912FC22A
:106A78003FF230C240F2416B426B95EC2DF080D171
:106A88002DC23BF27E0E3C6F800E3D6F040E3E6FB2
:106A980047912FC23FF230C240F2416B426B95ECF6
:106AA8002DF031C23BF2830E3C6F800E3D6F020E1B
:106AB8003E6F47912FC23FF230C240F2416B426BAA
:106AC80095EC2DF05DD12DC23BF2860E3C6F800E09
:106AD8003D6F040E3E6F47912FC23FF230C240F225
:106AE800416B426B95EC2DF031C23BF28B0E3C6F43
:106AF800800E3D6F050E3E6F47912FC23FF230C2A8
:106B080040F2416B426B95EC2DF03AD12DC23BF22D
:106B1800950E3C6F800E3D6F040E3E6F47912FC25D
:106B28003FF230C240F2416B426B95EC2DF031C21E
:106B38003BF2910E3C6F800E3D6F030E3E6F479106
:106B48002FC23FF230C240F2416B426B95EC2DF000
:106B580017D12DC23BF2950E3C6F800E3D6F040E8F
:106B68003E6F47912FC23FF230C240F2416B426BF9
:106B780095EC2DF031C23BF29F0E3C6F800E3D6FBD
:106B8800030E3E6F47912FC23FF230C240F2416B75
:106B9800426B95EC2DF0F4D02DC23BF29A0E3C6F6F
:106BA800800E3D6F040E3E6F47912FC23FF230C2F8
:106BB80040F2416B426B95EC2DF031C23BF2A80ECE
:106BC8003C6F800E3D6F030E3E6F47912FC23FF220
:106BD80030C240F2416B426B95EC2DF0D1D02DC202
:106BE8003BF2A30E3C6F800E3D6F040E3E6F479143
:106BF8002FC23FF230C240F2416B426B95EC2DF050
:106C080031C23BF29F0E3C6F800E3D6F030E3E6F0C
:106C180047912FC23FF230C240F2416B426B95EC74
:106C28002DF0AED02DC23BF2A30E3C6F800E3D6F0F
:106C3800040E3E6F47912FC23FF230C240F2416BC3
:106C4800426B95EC2DF031C23BF2A80E3C6F800EE2
:106C58003D6F030E3E6F47912FC23FF230C240F2A4
:106C6800416B426B95EC2DF08BD02DC23BF2AC0EF4
:106C78003C6F800E3D6F030E3E6F47912FC23FF26F
:106C880030C240F2416B426B95EC2DF031C23BF2C1
:106C9800B00E3C6F800E3D6F040E3E6F47912FC2C1
:106CA8003FF230C240F2416B426B95EC2DF068D058
:106CB8002DC23BF2B50E3C6F800E3D6F040E3E6F49
:106CC80047912FC23FF230C240F2416B426B95ECC4
:106CD8002DF031C23BF2BA0E3C6F800E3D6F030EB1
:106CE8003E6F47912FC23FF230C240F2416B426B78
:106CF80095EC2DF045D02DC23BF2BE0E3C6F800EB8
:106D08003D6F030E3E6F47912FC23FF230C240F2F3
:106D1800416B426B95EC2DF031C23BF2C20E3C6FD9
:106D2800800E3D6F050E3E6F47912FC23FF230C275
:106D380040F2416B426B95EC2DF022D02DC23BF214
:106D4800C80E3C6F800E3D6F030E3E6F47912FC2F9
:106D58003FF230C240F2416B426B95EC2DF031C2EC
:106D68003BF2CC0E3C6F800E3D6F050E3E6F479197
:106D78002FC23FF230C240F2416B426B95EC2DF0CE
:106D880012002E6B2F6B300E306F316B780E326F16
:106D9800336BC00E346F356B366B376B45EC13F0C5
:106DA8002B6B040E2B612BD0290E296FA50E2A6F91
:106DB8002B6705D02CA103D02969070E2A6F140E62
:106DC800286110D02B5170DC2D6F28C22EF229C2F9
:106DD8002FF22AC230F2B6DC285141EC42F002010F
:106DE800286F0BD02B5160DC2D6F28C22EF229C2E0
:106DF8002FF22AC230F2A6DC02D02B2BD2D7000108
:106E08001200A9EC32F0D5C028F22C91BADFD65185
:106E18004BDC2D6FD1C02EF22F69070E306F92D444
:106E2800286F28C23BF23C6B030E99EC0AF0296FDD
:106E3800290E2A6FA50E2B6F296718D02A69070E0D
:106E48002B6F000E6CDC2C6F2E6B2F6B2CC230F26C
:106E5800316B780E326F336B2C51F008346F000EA3
:106E6800356B3557366B376B45EC13F028510FE00F
:106E7800010A0DE0030A0BE0010A2AE0070A28E0EC
:106E8800010A26E0030A46E0010A44E05AD0000E4F
:106E980046DC2C6F2D6B2AC22EF22BC22FF29DECF2
:106EA8002FF0010E3CDC2C6F010E2D6F290E2E6F7A
:106EB800A50E2F6F9DEC2FF0020E31DC2C6F020E09
:106EC8002D6F290E2E6FA50E2F6F9DEC2FF039D048
:106ED800000E25DC2C6F030E2D6F2AC22EF22BC25A
