:020000040000FA
:04140000BEEF36F015
:06140800000115D81100DF
:10141800D8CF1CF1E0CF1DF101011E6F00011BD8D0
:1014280001011E511DC1E0FF1CC1D8FF1000E9CF0A
:1014380000F1EACF01F1F3CF02F1F4CF03F182EC2E
:1014480010F09E9203C1F4FF02C1F3FF00C1E9FF4F
:1014580001C1EAFF1200E9CF1FF1EACF20F1F3CF73
:1014680021F1F4CF22F1F6CF23F1F7CF24F1F8CF11
:1014780025F1F5CF26F1F40ED76E500ED66EF29404
:101488007AEC36F026C1F5FF23C1F6FF24C1F7FF39
:1014980025C1F8FF22C1F4FF21C1F3FF1FC1E9FFF5
:1014A80020C1EAFF1200386F396B110E3A6F08D06D
:1014B80039373B373851395D3BB1D880D8B0396FAF
:1014C800363737373A2FF4D736511200316B326B33
:1014D800110E336F0BD0313732372F51315D305108
:1014E800325904E3326F2F51315FD8802D372E37B0
:1014F800332FF1D72D51000112003B6B3C6B190EB5
:101508003D6F0DD03B373C3705E239513B5D3A51D1
:101518003C5905E339513B5F3A513C5BD88036373B
:10152800373738373D2FEED736511200386F396BC1
:10153800100E3A6F3637373739373B373851395D00
:101548003BB1D880D8B0396F3A2FF4D7395112004F
:101558003B6B3C6B180E3D6F3637373738373B37A8
:101568003C3705E239513B5D3A513C5904E3395166
:101578003B5F3A513C5B3D2FEFD73B511200274967
:1015880006D027C1E9FFEA6AEE2A000EEF22000121
:10159800120001011A511B6F1200010119511B6F32
:1015A8001200010118511B6F1200136F166F156B93
:1015B800146B196B1251186F176B175114271851A8
:1015C80015231951162311511427000E152316231C
:1015D800145112005D6F5E6B5D515E610ED05F6BE2
:1015E800606BB80E5F5D0B0E605905E200005F2B63
:1015F800000E6023F6D75E2BEFD712000101186F9B
:101608009E9618C1C9FF9EA6FED7C9CF19F11951D8
:1016180012009280928292849286809A929A818015
:1016280093909382818493948186939681989398DA
:10163800938A828094908292949282849494829CD9
:10164800949C829E949E83809590838295928384B5
:101658009594839695969588958A838C959C838E88
:10166800959E848E96808492969284949694120085
:10167800700ED36E400E9B6E280EC26E3D0EC16E6C
:1016880048691B0E496FC280C69A400EC76EC66A6B
:10169800C68A080ED56EF40ED76E500ED66EF1942B
:1016A800F29AF294D58EF28C5E0ECB6E380ECA6E1C
:1016B8009F829E929D92CA84D08EF28E0E0E0E014B
:1016C800D26FFF6B0C0EBA6EBA9ABA98BB6ABB0E91
:1016D800776E030E766E7684120ED76F0C0EB46E8C
:1016E800B49AB498B56A12009292808212009282DB
:1016F8001200829012008280120084841200849466
:101708001200819481868180120081848196818073
:101718001200818481868190120081948196818053
:101728001200818481968190120081948186819033
:101738001200819481968190120081848186818033
:1017480012000101296F29510FE0010A0FE0030A75
:101758000FE0010A0FE0070A0FE0010A0FE0030A91
:101768000FE0010A0FE010D0CCDF0FD0CEDF0DD094
:10177800D0DF0BD0D2DF09D0D4DF07D0D6DF05D039
:10178800D8DF03D0DADF01D0D8DF120000016051C2
:1017980005E0010A0CE0030A1CE02CD027C161F126
:1017A80029C161F02AC162F0010E606F23D0615136
:1017B800621103E06107000E625B615162111AE178
:1017C80028C161F12BC161F02CC162F0020E606F7B
:1017D80011D06151621103E06107000E625B615133
:1017E800621108E127C161F129C161F02AC162F0E3
:1017F800010E606F1200286F0001635105E0010AB5
:1018080012E0030A1CE02DD0010127519ADF28536A
:1018180004E0080E0001646F03D0010E0001646F3C
:10182800010E636F1ED0642F1CD0070E8ADF285369
:10183800000102E1070E646F020E636F12D0646745
:10184800640764670ED0010127517BDF285304E049
:10185800080E0001646F03D0010E0001646F010ED1
:10186800636F12000101276F27A3B49A27B3B48AC4
:1018780027A1B49827B1B488D8902731B56ED890ED
:10188800B5321200839E060EB9DE838E839E980EB3
:10189800B5DE838E00011200839E050EAFDE000EBA
:1018A800ADDE356F838E1200839E060EA7DE838E13
:1018B800839ED80EA3DE2BC118F12CC119F12DC1BE
:1018C8001AF167DE9BDE2BC118F12CC119F12DC16D
:1018D8001AF163DE93DE2BC118F12CC119F12DC169
:1018E8001AF15FDE8BDE838E0001D6DF0001E8B0DF
:1018F800FCD71200839E030E81DE04C118F105C1D6
:1019080019F106C11AF145DE79DE04C118F105C1E5
:1019180019F106C11AF141DE71DE04C118F105C1E1
:1019280019F106C11AF13DDE69DE000E67DE076FA8
:10193800838E00011200156F839E030E5FDE11C1B6
:1019480018F112C119F113C11AF123DE57DE11C1C2
:1019580018F112C119F113C11AF11FDE4FDE11C1BE
:1019680018F112C119F113C11AF11BDE47DE176B0A
:10197800155117610CD0000E41DE166F010EEA6E8C
:1019880017511425E96E16C1EFFF172BF1D7838E77
:101998001200346F839E060E31DE838E839E020E04
:1019A8002DDE31C118F132C119F133C11AF1F1DD5F
:1019B80025DE31C118F132C119F133C11AF1EDDD5B
:1019C8001DDE31C118F132C119F133C11AF1E9DD57
:1019D80015DE345113DE838E5FDFE8B0FDD71200C9
:1019E8002F6F306B2F51306113D02BC131F12CC1C7
:1019F80032F12DC133F1010EEA6E30512E25E96E18
:101A0800EF50C7DF2B2B000E2C232D23302BEAD7CA
:101A180012002B6B200E2B6107D001EE62F02B51C8
:101A2800E926EF682B2BF6D7626B0F0E636F030E58
:101A3800646F020E656F030E666F676B686B696B88
:101A48006A6B070E6B6F6C6B080E6D6F050E6E6F11
:101A5800010E6F6F706F0A0E716F726B736B0F0EE2
:101A6800746F030E756F766F050E776F786B796BF1
:101A78007A6B2B6B200E2B6107D001EE82F02B5175
:101A8800E926EF682B2BF6D70A0E826F030E836FB9
:101A98000A0E846F856F030E866F0A0E876F886F34
:101AA800030E896F0A0E8A6F050E8B6F8C6F8D6F10
:101AB8000A0E8E6F030E8F6F0A0E906F916F030ED2
:101AC800926F0A0E936F946F030E956F0A0E966FBE
:101AD800976F030E986F0A0E996F1200A2C162F1F8
:101AE800A6C163F1A7C164F1A8C165F1A9C166F1F6
:101AF800AAC167F1ABC168F1ACC169F1ADC16AF1C6
:101B0800AEC16BF1AFC16CF1B0C16DF1B1C16EF195
:101B1800B2C16FF1B3C170F1B4C171F1B5C172F165
:101B2800B6C173F1B7C174F1B8C175F1B9C176F135
:101B3800BAC177F1C6C118F1C7C119F1C8C11AF104
:101B480030DD786FC6C118F1C7C119F1C8C11AF1E3
:101B580024DD796FC6C118F1C7C119F1C8C11AF1DE
:101B680018DD7A6FBBC181F1A2510FE0010A14E0C0
:101B7800030A19E0010A1EE0070A23E0010A28E027
:101B8800030A2DE0010A32E037D0A3C182F1A4C1D3
:101B980083F1A5C184F130D0A3C185F1A4C186F138
:101BA800A5C187F129D0A3C188F1A4C189F1A5C134
:101BB8008AF122D0A3C18BF1A4C18CF1A5C18DF10A
:101BC8001BD0A3C18EF1A4C18FF1A5C190F114D08F
:101BD800A3C191F1A4C192F1A5C193F10DD0A3C104
:101BE80094F1A4C195F1A5C196F106D0A3C197F1CE
:101BF800A4C198F1A5C199F11200000143DE0101C9
:101C08002B6B2C6B2D6B00014FDE01012B6B2C6BAA
:101C18002D6B620E2E6F200EE3DE200E2B6F2C6BC9
:101C28002D6B820E2E6F200EDBD6C6C118F1C7C1F0
:101C380019F1C8C11AF1B5DC786FC6C118F1C7C16E
:101C480019F1C8C11AF1A9DC796FC6C118F1C7C169
:101C580019F1C8C11AF19DDC7A6FCFD7010EA263C2
:101C680003D0C96BCA6B18D0A3510A0DF3CF2BF15F
:101C7800F4CF2CF1A4512B27000E2C23200E2D6F0E
:101C88004E0E2E6F2BC12FF12CC130F11FDC2DC150
:101C9800C9F12EC1CAF101011200A26B0F0EA66F85
:101CA800030EB86FB96F050EBA6F030EA76F020E59
:101CB800A86F030EA96FAA6BAB6BAC6BAD6B070E6D
:101CC800AE6FAF6B080EB06F050EB16F010EB26F3D
:101CD800B36F0A0EB46FB56BB66B0F0EB76FA25128
:101CE8000FE0010A14E0030A19E0010A1EE0070ADE
:101CF80021E0010A26E0030A2BE0010A30E035D092
:101D08000A0EA36F030EA46F0A0EA56F2ED00A0E3B
:101D1800A36F030EA46F0A0EA56F27D00A0EA36F38
:101D2800030EA46F0A0EA56F20D0050EA36FA46F33
:101D3800A56F1BD00A0EA36F030EA46F0A0EA56F22
:101D480014D00A0EA36F030EA46F0A0EA56F0DD050
:101D58000A0EA36F030EA46F0A0EA56F06D00A0E13
:101D6800A36F030EA46F0A0EA56FD26B1200116B3E
:101D7800126B136B620E146F200EDDDD200E116FD7
:101D8800126B136B820E146F200ED5DD8151640A1D
:101D980008E081516E0A05E081516F0A02E0640E85
:101DA800816F81C1BBF174510F0A13E032DEBBC1F0
:101DB80081F123DF116B126B136B620E146F200E0F
:101DC800BADD200E116F126B136B820E146F200E8A
:101DD800B2DD2AA162C1A2F163C1A6F175C1B8F151
:101DE80076C1B9F177C1BAF164C1A7F1A7C1CDF144
:101DF80065C1A8F166C1A9F167C1AAF1AAC1CEF16E
:101E080068C1ABF1ABC1CFF169C1ACF16AC1ADF149
:101E18006BC1AEF16CC1AFF16DC1B0F16EC1B1F182
:101E28006FC1B2F170C1B3F171C1B4F172C1B5F152
:101E380073C1B6F174C1B7F178C127F179C128F13E
:101E48007AC129F1A2510FE0010A14E0030A19E04E
:101E5800010A1EE0070A23E0010A28E0030A2DE030
:101E6800010A32E037D082C1A3F183C1A4F184C151
:101E7800A5F130D085C1A3F186C1A4F187C1A5F130
:101E880029D088C1A3F189C1A4F18AC1A5F122D0C2
:101E98008BC1A3F18CC1A4F18DC1A5F11BD08EC15A
:101EA800A3F18FC1A4F190C1A5F114D091C1A3F100
:101EB80092C1A4F193C1A5F10DD094C1A3F195C12C
:101EC800A4F196C1A5F106D097C1A3F198C1A4F1D8
:101ED80099C1A5F1D890A635BC6FC0DED890AE35B3
:101EE800BE6F050EAF03F3CFBFF1D890B035BD6F0D
:101EF8000001698FD8900101B135C06F140EB2038B
:101F0800F3CFC1F127C111F128C112F12951D9EC40
:101F18000AF014C1C6F115C1C7F116C1C8F1B45110
:101F28003C0DF3CFC4F1F4CFC5F10A0EC427000E5F
:101F3800C52300018169826983698469D00E010122
:101F4800366F070E376FA55157EC0AF036C1CBF143
:101F580037C1CCF1040ECB5F000ECC5BD00E366FD0
:101F6800070E376FBA5157EC0AF036C1C2F137C1C4
:101F7800C3F1AC29D06F0A0EA903F3CFD1F1B62D66
:101F880004D0CD6B010ECE6FCF6B12008386C28258
:101F9800C2B2FED7C4CF67F083966851676102D09A
:101FA80067C068F06851675D03E368C067F000D0F8
:101FB800DB0E676503D0050E656F1BD0D60E67650F
:101FC80003D0040E656F15D0D00E676503D0030EDD
:101FD800656F0FD0CB0E676503D0020E656F09D011
:101FE800C50E676503D0010E656F03D0C50E676522
:101FF800656B1200056F060DF3CF09F1F4CF0AF1F6
:102008000451100DF3CF08F1076B066B0951062533
:10201800116F0A510721126F000E0821136F0B0E62
:10202800146F060E88DC0BC111F10CC112F10D51B1
:10203800D9EC0AF014C16BF015C16CF016C16DF043
:102048000EC111F10FC112F11051D9EC0AF014C1EF
:102058006EF015C16FF016C170F0120001012C6FFF
:10206800CD6702D000011200080E00017D6107D083
:10207800EA6A710E7D25E96E2CC1EFFF7D2B1200F7
:102088000101CD6702D00001120000017D6769815E
:102098009D8212000101046B04BF03D0080E046185
:1020A80007D0EA6A710E0425E96EEF68042BF4D7AD
:1020B80000017D6B7C6B6991796B9D921200056FB5
:1020C800045105E0010A05E0030A08E009D0056BA0
:1020D80007D0D8900533D890053302D0D89005336F
:1020E80005A3BA9A05B3BA8A05A1BA9805B1BA8800
:1020F800D8900531BB6ED890BB32120079510BE0F5
:10210800010A12E0030A1CE0010A27E0070A35E089
:10211800010A51E05BD069A159D081EC0BF07A6BD0
:102128007B6B010E796F52D07A2B000E7B23210E28
:102138007A5D030E7B594AE37C6B020E796F46D0B9
:10214800D0C104F1EA6A710E7C25E96EEF500101F5
:1021580051DF030E0001796F39D06BC004F16CC0F8
:1021680005F16DC006F17EEC0CF06A6F6B2B000E6A
:102178006C236D23040E796F29D0CDC104F16A5107
:1021880001019DDF00016E516B5D6F516C597051FB
:102198006D590EE26BC004F16CC005F16DC006F11B
:1021A8007EEC0CF06A6F6B2B000E6C236D230ED047
:1021B800050E796F0BD07D057C6104D07C2B020E57
:1021C800796F04D083EC0BF065DF796B1200030E96
:1021D80045DF6551050A0BE0010A0EE0070A11E028
:1021E800010A14E0030A17E0010A1AE01DD0480E9C
:1021F80035DF4A0E33DF18D01B0E30DF4A0E2EDFD4
:1022080013D05E0E2BDF4A0E29DF0ED02B0E26DFF1
:102218004A0E24DF09D06E0E21DF4A0E1FDF04D0DC
:10222800620E1CDF4A0E1ADF1200CE5135E0010A99
:1022380036E0030A37E0010A38E0070A39E0010A04
:102248003AE0030A3BE0010A3CE00F0A3DE0010ADC
:102258003EE0030A41E0010A42E0070A43E0010ABE
:1022680044E0030A45E0010A46E01F0A47E0010A84
:1022780048E0030A49E0010A4AE0070A4BE0010A7C
:102288004EE0030A4FE0010A52E00F0A53E0010A48
:1022980054E0030A55E056D0250EE0DE53D0170E61
:1022A800DDDE50D0070EDADE4DD0060ED7DE4AD07E
:1022B8000B0ED4DE47D00A0ED1DE44D0590ECEDE46
:1022C80041D05A0ECBDE3ED0610EC8DE3BD0510E57
:1022D800C5DE080EC3DE36D0000EC0DE33D0140EC5
:1022E800BDDE30D0360EBADE2DD0740EB7DE2AD061
:1022F800710EB4DE27D06C0EB1DE24D03B0EAEDEFC
:1023080021D0370EABDE1ED02E0EA8DE1BD02F0E2E
:10231800A5DE18D0580EA2DE680EA0DE13D0310E4E
:102328009DDE10D0310E9ADE680E98DE0BD0180EA6
:1023380095DE08D05F0E92DE05D0440E8FDE02D007
:10234800200E8CDE1200286F28510FE0010A11E0E0
:10235800030A13E0010A15E0070A17E0010A19E069
:10236800030A1BE0010A1DE01FD0430E77DE0101BE
:102378001BD0530E73DE010117D00C0E6FDE010166
:1023880013D0340E6BDE01010FD0300E67DE010171
:102398000BD0010E63DE010107D0090E5FDE0101DB
:1023A80003D0500E5BDE010112002C6F2C5139E076
:1023B800010A3AE0030A3BE0010A3CE0070A3DE073
:1023C800010A3EE0030A3FE0010A40E00F0A41E04B
:1023D800010A42E0030A43E0010A44E0070A45E033
:1023E800010A46E0030A47E0010A48E01F0A49E0FB
:1023F800010A4AE0030A4BE0010A4CE0070A4DE0F3
:102408000A0A4EE0360A4FE01A0A50E00E0A51E076
:102418007A0A52E0160A53E00A0A54E03E0A55E0E6
:1024280057D0760E2D6F56D0470E2D6F53D06F0EA6
:102438002D6F50D0660E2D6F4DD02C0E2D6F4AD0BB
:10244800280E2D6F47D05C0E2D6F44D0550E2D6F82
:1024580041D0190E2D6F3ED0400E2D6F3BD0620E2D
:102468002D6F38D01C0E2D6F35D06D0E2D6F32D0DC
:10247800640E2D6F2FD02D0E2D6F2CD0230E2D6FA7
:1024880029D05D0E2D6F26D0560E2D6F23D01A0E33
:102498002D6F20D0410E2D6F1DD06E0E2D6F1AD0CE
:1024A800650E2D6F17D02B0E2D6F14D0240E2D6FA7
:1024B80011D05E0E2D6F0ED0570E2D6F0BD01B0E48
:1024C8002D6F08D0420E2D6F05D0480E2D6F02D00B
:1024D8005B0E2D6F2D511200286F150E286106D046
:1024E800285163DF296FBADD010120D028C136F1F8
:1024F800376B0A0E57EC0AF036C12AF10A0E2A0386
:10250800F3CF2AF12A5305E02A514FDF296FA6DDC0
:10251800010128C136F1376B0A0E9AEC0AF02B6FCD
:102528002B5304E042DF296F99DD01011200286F67
:10253800285304E0460E92DD010103D0450E8EDDDE
:1025480001011200286F285105E0010A07E0030A7B
:1025580009E00BD0700E82DD010107D0290E7EDD67
:10256800010103D0720E7ADD01011200286F285193
:1025780007E0010A09E0030A0BE0010A0DE00FD0A9
:10258800450E6CDD01010BD0380E68DD010107D066
:102598003C0E64DD010103D0330E60DD0101120041
:1025A800286F285105E0010A07E0030A0BE00FD065
:1025B800120E54DD01010BD0020E50DD6F0E4EDD00
:1025C800010105D0020E4ADD660E48DD0101120048
:1025D800286F285105E0010A07E0030A09E00BD03B
:1025E800450E3CDD010107D0380E38DD010103D06E
:1025F800330E34DD01011200286F285304E00E0E5B
:102608002DDD010103D01F0E29DD01011200286F05
:10261800285304E0450E22DD010103D0380E1EDDEB
:1026280001011200286F285304E0330E17DD010161
:1026380003D0380E13DD010112002C6F83808392C2
:1026480083942B5102EC0BF0838483822C5303E098
:102658002C51EEEF0AF012005B6F83808392839413
:10266800585102EC0BF083845C6B5A515C610AD0C0
:10267800010EEA6E5C515925E96EEF5002EC0BF041
:102688005C2BF3D783825B5303E05B51EEEF0AF0D8
:102698001200536F546B50C155F1566B51C157F12D
:1026A8002A0E586F540E596F040E5A6F000ED4DF5D
:1026B800546B52C155F1566B53C157F12B0E586FDD
:1026C800540E596F040E5A6F000EC6D7010E2B6FA9
:1026D8000A0EB3DF110E2B6F0A0EAFDF550E276FF0
:1026E8003A0E586F270E596F010E5A6F000EB4DF5D
:1026F800276B360E586F270E596F010E5A6F000E52
:10270800ABDF506BEF0E516F526BC3DF210E2B6F97
:10271800000E93DF130E2B6F000E8FDF280E2B6F2A
:10272800000E8BD72DC118F12EC119F11A6BD1ECFF
:102738000AF0326F2DC118F12EC119F11A6BD5ECC0
:102748000AF0336F2C512A03F3CF34F1F4CF35F16B
:1027580029C150F129052A25516F2BC152F12B05AA
:102768002C2597DF8380839283942C0E02EC0BF048
:1027780083842F6B306B316B315112E13551305DF1
:1027880004E30EE134512F610BD0325102EC0BF00F
:10279800335102EC0BF02F2B000E30233123ECD7F2
:1027A80083821200296BF00E2A6F2B6B2C6F27C1C6
:1027B8002DF128C12EF1B6DF000112007FCF18F1EC
:1027C8007FCF19F101011A6BD1EC0AF07F6E7FCF30
:1027D80018F17FCF19F11A6BD5EC0AF07F6E7FCF15
:1027E80050F17FCF51F17FCF52F17F5052DF83807C
:1027F800839283942C0E02EC0BF083847F5002ECBE
:102808000BF07F5002EC0BF083821200476B486B91
:10281800496B3FC118F140C119F11A6BD1EC0AF0AC
:102828004A6F3FC118F140C119F11A6BD5EC0AF093
:102838004B6F41C118F142C119F11A6BD1EC0AF082
:102848004C6F41C118F142C119F11A6BD5EC0AF06D
:102858004D6F3C513B03F3CF4EF1F4CF4FF139C1EB
:1028680050F139053B25516F3AC152F13A053C25E3
:1028780010DF8380839283942C0E02EC0BF0838408
:10288800446B456B4E51445D4F5145592BE24767A8
:102898000CD048513D25506F49513E21516FC1EC34
:1028A80036F0466F482B000E4923800E4615436FBD
:1028B800D8904637472B080E476301D0476B4353E0
:1028C80007E04A5102EC0BF04B5102EC0BF006D03A
:1028D8004C5102EC0BF04D5102EC0BF0442B000E66
:1028E8004523D0D7838212002AC139F12BC13AF18E
:1028F8000A0E3B6F3C6F2D0E3D6F110E3E6F2CC1C3
:102908003FF12DC140F12EC141F12FC142F17EDFCF
:10291800070E2A5D396F0A0E2B253A6F0B0E3B6F97
:102928000A0E3C6F3A0E3D6F110E3E6F2CC13FF1FF
:102938002DC140F12EC141F12FC142F167D70101EC
:10294800296F27C139F128C13AF14B0E3B6F1E0E92
:102958003C6F130E3D6F100E3E6F3F694069416B2F
:10296800426B54DF2951010A0AE0030A15E0010A03
:102978002EE0070A54E0010AD8B486D0C6D0390E32
:1029880027252A6F050E28252B6F2C6BF80E2D6F27
:102998002E6B2F6BA9DFB9D02E0E27252A6F050EB7
:1029A80028252B6F200E2C6FFD0E2D6F2E6B2F6B95
:1029B8009BDF390E27252A6F050E28252B6F200E41
:1029C8002C6FFD0E2D6F2E6B2F6B8EDF9ED0230E7E
:1029D80027252A6F050E28252B6FE00E2C6F070E72
:1029E8002D6F2E6B2F6B80DF2E0E27252A6F050E7D
:1029F80028252B6FE00E2C6F070E2D6F2E6B2F6B7B
:102A080073DF390E27252A6F050E28252B6FE00E58
:102A18002C6F070E2D6F2E6B2F6B66DF76D0180E7E
:102A280027252A6F050E28252B6FE00E2C6F070E21
:102A38002D6F2E6B2F6B58DF230E27252A6F050E5F
:102A480028252B6FE00E2C6F070E2D6F2E6B2F6B2A
:102A58004BDF2E0E27252A6F050E28252B6FE00E3B
:102A68002C6F070E2D6F2E6B2F6B3EDF390E27252F
:102A78002A6F050E28252B6FE00E2C6F070E2D6F81
:102A88002E6B2F6B31DF41D00D0E27252A6F050ED7
:102A980028252B6FE00E2C6F070E2D6F2E6B2F6BDA
:102AA80023DF180E27252A6F050E28252B6FE00E29
:102AB8002C6F070E2D6F2E6B2F6B16DF230E27251D
:102AC8002A6F050E28252B6FE00E2C6F070E2D6F31
:102AD8002E6B2F6B09DF2E0E27252A6F050E282552
:102AE8002B6FE00E2C6F070E2D6F2E6B2F6BFCDEFD
:102AF800390E27252A6F050E28252B6FE00E2C6F1F
:102B0800070E2D6F2E6B2F6BEFDE1200296F2953E6
:102B180014E027C139F128C13AF1180E3B6F1F0E96
:102B28003C6F480E3D6F110E3E6FD30E3F6F9C0EEB
:102B3800406F416B426B6ADE13D027C139F128C15F
:102B48003AF1180E3B6F1F0E3C6FA60E3D6F110E2B
:102B58003E6FD30E3F6F9C0E406F416B426B56D653
:102B680012000101296F295108E0010A2DE0030A2A
:102B780066E0010AD8B49DD0C1D0020E275D396F36
:102B8800060E28253A6F330E3B6F0B0E3C6FBE0EB8
:102B98003D6F120E3E6F3F6B406B416B426B36DEF2
:102BA80027C139F128C13AF1320E3B6F190E3C6F3B
:102BB800040E3D6F120E3E6FE00E3F6F070E406F22
:102BC800416B426B23DE9AD0020E275D396F060EE9
:102BD80028253A6F330E3B6F0B0E3C6FBE0E3D6FD0
:102BE800120E3E6F3F6B406B416B426B0FDE27C18D
:102BF80039F128C13AF1320E3B6F190E3C6F040EC1
:102C08003D6F120E3E6FE00E3F6F070E406F416B37
:102C1800426BFCDD140E2725396F070E28253A6F05
:102C28000A0E3B6F3C6FA10E3D6F120E3E6FE00E19
:102C38003F6F070E406F416B426BE8DD5FD0020EBD
:102C4800275D396F060E28253A6F330E3B6F0B0E42
:102C58003C6FBE0E3D6F120E3E6F3F6B406B416B7B
:102C6800426BD4DD27C139F128C13AF1320E3B6FEE
:102C7800190E3C6F040E3D6F120E3E6F3F6BF80E3F
:102C8800406F416B426BC2DD140E2725396F070E6A
:102C980028253A6F0C0E3B6F0A0E3C6FAE0E3D6F47
:102CA800120E3E6F3F6BF80E406F416B426BAEDD0C
:102CB80025D027C139F128C13AF1320E3B6F190EE0
:102CC8003C6F040E3D6F120E3E6F3F6B406B416BC5
:102CD800426B9CDD020E275D396F060E28253A6F80
:102CE800330E3B6F0B0E3C6FBE0E3D6F120E3E6FE8
:102CF8003F6BF80E406F416B426B88DD1200296F05
:102D0800010A10E0030A22E0020A34E0030A46E05E
:102D1800060A58E0030A6AE0020A7CE0030AD8B40B
:102D28008DD09FD027C139F128C13AF14C0E3B6FA5
:102D38000A0E3C6F660E3D6F140E3E6F590E3F6FC4
:102D4800CE0E406F416B426B61DD8BD027C139F1EC
:102D580028C13AF1430E3B6F0A0E3C6FC60E3D6F19
:102D6800140E3E6F590E3F6FCE0E406F416B426B93
:102D78004DDD77D027C139F128C13AF14B0E3B6FB1
:102D88000A0E3C6F1A0E3D6F150E3E6F590E3F6FBF
:102D9800CE0E406F416B426B39DD63D027C139F1EC
:102DA80028C13AF14B0E3B6F0A0E3C6F780E3D6F0F
:102DB800150E3E6F590E3F6FCE0E406F416B426B42
:102DC80025DD4FD027C139F128C13AF14B0E3B6FB1
:102DD8000A0E3C6FD60E3D6F150E3E6F590E3F6FB3
:102DE800CE0E406F416B426B11DD3BD027C139F1EC
:102DF80028C13AF1320E3B6F0A0E3C6F340E3D6F1C
:102E0800160E3E6F590E3F6FCE0E406F416B426BF0
:102E1800FDDC27D027C139F128C13AF14B0E3B6FB1
:102E28000A0E3C6F730E3D6F160E3E6F590E3F6FC4
:102E3800CE0E406F416B426BE9DC13D027C139F1EC
:102E480028C13AF14B0E3B6F0A0E3C6FD10E3D6F15
:102E5800160E3E6F590E3F6FCE0E406F416B426BA0
:102E6800D5DC1200346F345117E0010A29E0030A57
:102E78003BE0010A4DE0070A5FE0010A71E0030A3E
:102E8800D8B482D0010AD8B493D00F0AD8B4A4D049
:102E9800010AD8B4B5D0C9D032C139F133C13AF139
:102EA8000B0E3B6F0C0E3C6F3B0E3D6F090E3E6FD9
:102EB800590E3F6FCE0E406F416B426BA7DCC7D0F7
:102EC80032C139F133C13AF10B0E3B6F0C0E3C6F36
:102ED8004C0E3D6F090E3E6F590E3F6FCE0E406F80
:102EE800416B426B93DCB3D032C139F133C13AF153
:102EF8000B0E3B6F0C0E3C6F5D0E3D6F090E3E6F67
:102F0800590E3F6FCE0E406F416B426B7FDC9FD0F6
:102F180032C139F133C13AF10B0E3B6F0C0E3C6FE5
:102F28006E0E3D6F090E3E6F590E3F6FCE0E406F0D
:102F3800416B426B6BDC8BD032C139F133C13AF152
:102F48000B0E3B6F0C0E3C6F7F0E3D6F090E3E6FF4
:102F5800590E3F6FCE0E406F416B426B57DC77D0F6
:102F680032C139F133C13AF10B0E3B6F0C0E3C6F95
:102F7800900E3D6F090E3E6F590E3F6FCE0E406F9B
:102F8800416B426B43DC63D032C139F133C13AF152
:102F98000B0E3B6F0C0E3C6FA10E3D6F090E3E6F82
:102FA800590E3F6FCE0E406F416B426B2FDC4FD0F6
:102FB80032C139F133C13AF10B0E3B6F0C0E3C6F45
:102FC800B20E3D6F090E3E6F590E3F6FCE0E406F29
:102FD800416B426B1BDC3BD032C139F133C13AF152
:102FE8000B0E3B6F0C0E3C6FC30E3D6F090E3E6F10
:102FF800590E3F6FCE0E406F416B426B07DC27D0F6
:1030080032C139F133C13AF10B0E3B6F0C0E3C6FF4
:10301800D40E3D6F090E3E6F590E3F6FCE0E406FB6
:10302800416B426B0AEC14F012D032C139F133C152
:103038003AF10B0E3B6F0C0E3C6F2A0E3D6F090EDA
:103048003E6F3F6B406B416B426B0AEC14F0120011
:10305800366F365113E0010A14E0030A15E0010A3D
:1030680016E0070A17E0010A18E0030A19E0010A46
:103078001AE00F0A1BE0010A1CE01ED01B0E376F76
:103088001CD00F0E376F19D0180E376F16D0170EC9
:10309800376F13D01C0E376F10D0170E376F0DD047
:1030A800190E376F0AD0190E376F07D0180E376F01
:1030B80004D0180E376F01D0376B37511200386FB4
:1030C800385117E0010A2AE0030A3DE0010A50E0FE
:1030D800070A63E0010A76E0030AD8B488D0010A37
:1030E800D8B499D00F0AD8B4ABD0010AD8B4BDD09F
:1030F800D0D036C139F137C13AF11B0E3B6F110EF2
:103108003C6FE50E3D6F090E3E6F590E3F6FCE0EB8
:10311800406F416B426B0AEC14F0BBD036C139F1F9
:1031280037C13AF10F0E3B6F110E3C6F1F0E3D6F0A
:103138000A0E3E6F590E3F6FCE0E406F416B426BC9
:103148000AEC14F0A6D036C139F137C13AF1180E9D
:103158003B6F110E3C6F3F0E3D6F0A0E3E6F590ECE
:103168003F6FCE0E406F416B426B0AEC14F091D06A
:1031780036C139F137C13AF1170E3B6F110E3C6F6A
:10318800730E3D6F0A0E3E6F590E3F6FCE0E406FA5
:10319800416B426B0AEC14F07CD036C139F137C16F
:1031A8003AF11C0E3B6F110E3C6FA40E3D6F0A0ED8
:1031B8003E6F590E3F6FCE0E406F416B426B0AEC6B
:1031C80014F067D036C139F137C13AF1170E3B6FA9
:1031D800110E3C6FE00E3D6F0A0E3E6F590E3F6FA9
:1031E800CE0E406F416B426B0AEC14F052D036C1E0
:1031F80039F137C13AF1190E3B6F110E3C6F3D6F33
:103208000B0E3E6F590E3F6FCE0E406F416B426BF7
:103218000AEC14F03ED036C139F137C13AF1190E33
:103228003B6F110E3C6F470E3D6F0B0E3E6F590EF4
:103238003F6FCE0E406F416B426B0AEC14F029D001
:1032480036C139F137C13AF1180E3B6F110E3C6F98
:103258007D0E3D6F0B0E3E6F590E3F6FCE0E406FC9
:10326800416B426B0AEC14F014D036C139F137C106
:103278003AF1180E3B6F110E3C6FB10E3D6F0B0EFD
:103288003E6F590E3F6FCE0E406F416B426B0AEC9A
:1032980014F0120038A103D0366B376B02D03669B0
:1032A8003769355117E0010A28E0030A3AE0010AB4
:1032B8004DE0070A60E0010A73E0030AD8B485D03C
:1032C800010AD8B497D00F0AD8B4A9D0010AD8B443
:1032D800BBD0CFD033C139F134C13AF1290E3B6F9D
:1032E8002D0E3C6F3D6B3E6B36C13FF137C140F14F
:1032F800416B426B0AEC14F0D0D033C139F134C1C0
:103308003AF1290E3B6F2D0E3C6FE70E3D6F3E6B79
:1033180036C13FF137C140F1416B426B0AEC14F002
:10332800BCD033C139F134C13AF1290E3B6F2D0EAF
:103338003C6FCE0E3D6F010E3E6F36C13FF137C177
:1033480040F1416B426B0AEC14F0A7D033C139F15C
:1033580034C13AF1290E3B6F2D0E3C6FB50E3D6F0F
:10336800020E3E6F36C13FF137C140F1416B426BEF
:103378000AEC14F092D033C139F134C13AF1290E74
:103388003B6F2D0E3C6F9C0E3D6F030E3E6F36C19A
:103398003FF137C140F1416B426B0AEC14F07DD02C
:1033A80033C139F134C13AF1290E3B6F2D0E3C6F10
:1033B800830E3D6F040E3E6F36C13FF137C140F1B9
:1033C800416B426B0AEC14F068D033C139F134C157
:1033D8003AF1290E3B6F2D0E3C6F6A0E3D6F050EBC
:1033E8003E6F36C13FF137C140F1416B426B0AEC89
:1033F80014F053D033C139F134C13AF1290E3B6F7F
:103408002D0E3C6F510E3D6F060E3E6F36C13FF1DB
:1034180037C140F1416B426B0AEC14F03ED033C126
:1034280039F134C13AF1290E3B6F2D0E3C6F380E3D
:103438003D6F070E3E6F36C13FF137C140F1416B1A
:10344800426B0AEC14F029D033C139F134C13AF196
:10345800290E3B6F2D0E3C6F1F0E3D6F080E3E6F01
:1034680036C13FF137C140F1416B426B0AEC14F0B1
:1034780014D033C139F134C13AF1110E3B6F0F0E3C
:103488003C6F060E3D6F090E3E6F36C13FF137C1E6
:1034980040F1416B426B0AEC14F01200286F8AC0AD
:1034A80036F18BC037F10A0E57EC0AF036C129F114
:1034B8008AC036F18BC037F10A0E9AEC0AF02A6FEF
:1034C80029C136F1376B0A0E57EC0AF036C12BF1D9
:1034D80029C136F1376B0A0E9AEC0AF02C6F2B5380
:1034E80007E027C132F128C133F12B51BBDC06D0EC
:1034F80027C132F128C133F10A0EB4DC090E2725A1
:10350800326F28C133F12C51ADDC150E2725396FE8
:10351800070E28253A6F040E3B6F3C6FEA0E3D6F8D
:10352800190E3E6F590E3F6FCE0E406F416B426BC6
:103538000AEC14F01C0E2725326F28C133F12A51EA
:1035480091D4286F90C036F191C037F192C038F10C
:10355800E80E396F030E3A6F81EC0AF036C129F193
:1035680090C036F191C037F192C038F1E80E396F4A
:10357800030E3A6FACEC0AF03BC12AF13CC12BF1C7
:1035880029C136F1376B0A0E57EC0AF036C12CF117
:1035980029C136F1376B0A0E9AEC0AF02D6F2AC151
:1035A80036F12BC137F1640E57EC0AF036C12EF113
:1035B8002AC136F12BC137F1640E9AEC0AF02F6F4D
:1035C8002FC136F1376B0A0E57EC0AF036C130F1CD
:1035D8002FC136F1376B0A0E9AEC0AF0316F295376
:1035E8003BE02C5306E027C132F128C133F12C51BE
:1035F80039DC0B0E2725326F28C133F12D5132DC0F
:10360800170E2725396F070E28253A6F040E3B6FD2
:10361800070E3C6F260E3D6F090E3E6F590E3F6F29
:10362800CE0E406F416B426B0AEC14F01D0E27253D
:10363800326F28C133F12E5115DC280E2725326F41
:1036480028C133F130510EDC330E2725326F28C1E3
:1036580033F1315107DC36D02E5319E01D0E2725E2
:10366800326F28C133F12E5136EC17F0280E27257A
:10367800326F28C133F1305136EC17F0330E27255D
:10368800326F28C133F1315136EC17F01BD030536B
:1036980011E0280E2725326F28C133F1305136EC5E
:1036A80017F0330E2725326F28C133F1315136EC2C
:1036B80017F008D0330E2725326F28C133F1315166
:1036C80036EF17F0120029C136F12AC137F13C0E46
:1036D80057EC0AF036C12BF129C136F12AC137F16E
:1036E8003C0E9AEC0AF02C6F2BC136F1376B0A0EA0
:1036F80057EC0AF036C12DF12BC136F1376B0A0EA3
:103708009AEC0AF02E6F2CC136F1376B0A0E57EC83
:103718000AF036C12FF12CC136F1376B0A0E9AEC3C
:103728000AF0306F2D510001811901010AE027C10B
:1037380033F128C134F12DC135F13891ABDD2DC1FC
:1037480081F02E510001821901010BE02A0E272574
:10375800336F28C134F12EC135F138919BDD2EC16C
:1037680082F02F510001831901010BE0770E272504
:10377800336F28C134F12FC135F138918BDD2FC15A
:1037880083F03051000184190CE0A10E01012725B6
:10379800336F28C134F130C135F138917BDD30C148
:1037A80084F0010112004E0E396F350E3A6F530E38
:1037B8003B6F4B0E3C6F2F0E3D6F170E3E6F670E23
:1037C8003F6FD50E406F416B426B0AEC14F0170E39
:1037D800396F940E3A6FC10E3B6F260E3C6F3A0E4E
:1037E8003D6F1A0E3E6F3F694069416B426B0AEFAD
:1037F80014F00C0E396F3A6FD80E3B6F060E3C6F03
:10380800CD0E3D6F0E0E3E6F670E3F6FD50E406FAB
:10381800416B426B0AEC14F00C0E396F460E3A6F8E
:10382800D80E3B6F060E3C6F700E3D6F0F0E3E6F4D
:10383800670E3F6FD50E406F416B426B0AEC14F078
:103848000C0E396FBD0E3A6FD80E3B6F060E3C6FEB
:10385800CD0E3D6F0E0E3E6F670E3F6FD50E406F5B
:10386800416B426B0AEC14F00C0E396FE00E3A6FA4
:10387800D80E3B6F060E3C6F700E3D6F0F0E3E6FFD
:10388800670E3F6FD50E406F416B426B0AEC14F028
:103898000D0E276F1D0E286F00016551A3EC14F063
:1038A8006C0E276F1B0E286F000E83BA010E8AEC70
:1038B80015F0A40E276F200E286F0001B751B5EC44
:1038C80015F0B55342E00E0E396F4E0E3A6F410EA9
:1038D8003B6F0A0E3C6F050E3D6F130E3E6F590E7F
:1038E8003F6FCE0E406F416B426B0AEC14F0710EC5
:1038F800396F740E3A6F110E3B6F0F0E3C6F060E48
:103908003D6F090E3E6F3F694069416B426B0AEC9F
:1039180014F06E0E396F850E3A6F110E3B6F0F0E55
:103928003C6F060E3D6F090E3E6F3F694069416B63
:10393800426B0AEC14F0130E276F6E0E286FC4C189
:1039480029F1C5C12AF1BFDE14D04E0E396F5E0EC3
:103958003A6F530E3B6F4B0E3C6F2F0E3D6F170E99
:103968003E6F670E3F6FD50E406F416B426B0AEC9E
:1039780014F0B35338E00E0E276FB30E286FA25120
:1039880083EC16F0BF0E396FB10E3A6F240E3B6F01
:103998000C0E3C6F570E3D6F130E3E6F590E3F6F66
:1039A800CE0E406F416B426B0AEC14F0960E276FF7
:1039B800B10E74DD0E0E396FC60E3A6F4B0E3B6FAB
:1039C800170E3C6F8E0E3D6F130E3E6F590E3F6FF4
:1039D800CE0E406F416B426B0AEC14F09A0E276FC3
:1039E800CC0EAFDD1FD00E0E276FCC0E286FA25164
:1039F80083EC16F0BF0E396FCC0E3A6F240E3B6F76
:103A08000C0E3C6F570E3D6F130E3E6F590E3F6FF5
:103A1800CE0E406F416B426B0AEC14F0960E276F86
:103A2800CC0E3CDDB65314E0B10E396F4E0E3A6F32
:103A3800180E3B6F080E3C6FE10E3D6F1D0E3E6F7A
:103A4800E00E3F6F070E406F416B426B0AEF14F0B8
:103A58001200316F410A63E0030A69E0010A6FE06E
:103A6800070A75E0010A7BE0030AD8B480D0010A8E
:103A7800D8B485D00F0AD8B48AD0010AD8B48FD068
:103A8800030AD8B494D0010AD8B498D0070AD8B495
:103A98009DD0010AD8B4A2D0030AD8B4A7D0010A8D
:103AA800D8B4ACD01F0AD8B4B1D0020AD8B4B6D0B2
:103AB800010AD8B4BBD0070AD8B4C0D0010AD8B418
:103AC800C5D0030AD8B4CAD0010AD8B4CFD00F0AD7
:103AD800D8B4D4D0010AD8B4D9D0790AD8B4DED0B1
:103AE800100AD8B4E3D0010AD8B4E8D0030AD8B48D
:103AF800EDD0010AD8B4F2D0070AD8B4F6D0010A3A
:103B0800D8B4FBD0030AD8B4FFD0010AD8B404D182
:103B18000F0AD8B409D1010AD8B40ED114D1E50ED0
:103B28000001856F0B0E866F110E876F0CD1FD0E8D
:103B38000001856F0B0E866F0F0E876F04D1120E72
:103B48000001856F0C0E866F0F0E876FFCD0270E55
:103B58000001856F0C0E866F0F0E876FF4D03C0E38
:103B68000001856F0C0E866F0E0E876FECD0500E1D
:103B78000001856F0C0E866F0E0E876FE4D0640E01
:103B88000001856F0C0E866F110E876FDCD07C0EDE
:103B98000001856F0C0E866F100E876FD4D0930EC0
:103BA8000001856F0C0E866F070E876FCCD09D0EB7
:103BB8000001856F0C0E866F876FC5D0AE0E0001B1
:103BC800856F0C0E866F0E0E876FBDD0C20E00017A
:103BD800856F0C0E866F0E0E876FB5D0D60E00015E
:103BE800856F0C0E866F150E876FADD0F30E000132
:103BF800856F0C0E866F0F0E876FA5D0080E00011B
:103C0800856F0D0E866F110E876F9DD0200E0001F7
:103C1800856F0D0E866F0F0E876F95D0350E0001DC
:103C2800856F0D0E866F100E876F8DD04C0E0001BC
:103C3800856F0D0E866F0F0E876F85D0610E0001A0
:103C4800856F0D0E866F100E876F7DD0780E000180
:103C5800856F0D0E866F0F0E876F75D08D0E000164
:103C6800856F0D0E866F110E876F6DD0A50E000142
:103C7800856F0D0E866F1A0E876F65D0C90E00010D
:103C8800856F0D0E866F100E876F5DD0E00E0001F8
:103C9800856F0D0E866F100E876F55D0640E00016C
:103CA800856F0F0E866F080E876F4DD0F70E0001D7
:103CB800856F0D0E866F110E876F45D00F0E0001B0
:103CC800856F0E0E866F0D0E876F3DD0210E000199
:103CD800856F0E0E866F0F0E876F35D0360E00017A
:103CE800856F0E0E866F876F2ED04A0E0001856F86
:103CF8000E0E866F120E876F26D0630E0001856F39
:103D08000E0E866F876F1FD0770E0001856F0E0E1F
:103D1800866F0F0E876F17D08C0E0001856F0E0E01
:103D2800866F110E876F0FD0A30E0001856F0E0EE0
:103D3800866F0F0E876F07D0B80E0001856F0E0EC5
:103D4800866F0F0E876F000112002D6B2E6B2F6B85
:103D58002F6B2C512F6110D02F512A25316F000E57
:103D68002B21326FC8EC45F074DE875101012D27F5
:103D7800020E2D272F2BEDD7020E2D5F2D51F008A7
:103D88002E6FD8902E332F6B2C512F6144D02F518A
:103D98002A25316F000E2B21326FC8EC45F059DE11
:103DA800010130B108D0640E0001856317D00F0EF1
:103DB800866314D001012EC139F129C13AF187C0B7
:103DC8003BF10B0E3C6F85C03DF186C03EF13F6B69
:103DD800406B416B426B0AEC14F015D02EC139F1DF
:103DE80029C13AF187C03BF10B0E01013C6F85C038
:103DF8003DF186C03EF1590E3F6FCE0E406F416BCC
:103E0800426B0AEC14F00001875101012E27020EC3
:103E18002E272F2BB9D71200C6C136F1C7C137F1EB
:103E2800C8C138F1E80E396F030E3A6F81EC0AF019
:103E380036C128F137C129F1C6C136F1C7C137F1FA
:103E4800C8C138F1E80E396F030E3A6FACEC0AF0CE
:103E58003BC12AF13CC12BF128C136F129C137F108
:103E6800640E57EC0AF036C12CF128C136F129C18D
:103E780037F1640E9AEC0AF02D6F2DC136F1376BCD
:103E88000A0E57EC0AF036C12EF12DC136F1376B08
:103E98000A0E9AEC0AF02F6F2AC136F12BC137F1BE
:103EA800640E57EC0AF036C130F12AC136F12BC145
:103EB80037F1640E9AEC0AF0316F31C136F1376B85
:103EC8000A0E57EC0AF036C132F131C136F1376BC0
:103ED8000A0E9AEC0AF0336F346B2C512CEC18F064
:103EE8003427060E34272E512CEC18F03427060EF2
:103EF80034272F512CEC18F03427060E3427305174
:103F08002CEC18F03427060E342732512CEC18F01C
:103F18003427060E342733512CEC18F0342734514B
:103F2800F008356FD890353335C136F17C0E376FD0
:103F38002C5163EC18F02C512CEC18F03527060E98
:103F4800352735C136F17C0E376F2E5163EC18F0EA
:103F58002E512CEC18F03527060E352735C136F1D1
:103F68007C0E376F2F5163EC18F02F512CEC18F0A2
:103F78003527060E352735C136F17C0E376F30519F
:103F880063EC18F030512CEC18F03527060E352765
:103F980035C136F17C0E376F325163EC18F032516F
:103FA8002CEC18F03527060E352735C136F17C0E76
:103FB800376F335163EF18F00C0E0101396F3A6F08
:103FC800D80E3B6F060E3C6FCD0E3D6F0E0E3E6F4A
:103FD800670E3F6FD50E406F416B426B0AEC14F0D1
:103FE8000C0E396F460E3A6FD80E3B6F060E3C6FBB
:103FF800700E3D6F0F0E3E6F670E3F6FD50E406F10
:10400800416B426B0AEC14F00C0E396FBD0E3A6F1F
:10401800D80E3B6F060E3C6FCD0E3D6F0E0E3E6FF9
:10402800670E3F6FD50E406F416B426B0AEC14F080
:104038000C0E396FE00E3A6FD80E3B6F060E3C6FD0
:10404800700E3D6F0F0E3E6F670E3F6FD50E406FBF
:10405800416B426B0AEC14F01E0E296F2A6B2B6B16
:104068000B0E2C6F309171DE2F0E296F0C0E2A6FFC
:104078002B6B040E2C6F309168DECC0E296F3C0E32
:104088002A6F010E2B6F060E2C6F30915ED60C0E28
:104098000101396F3A6FD80E3B6F060E3C6FCD0E9B
:1040A8003D6F0E0E3E6F670E3F6FD50E406F416B32
:1040B800426B0AEC14F00C0E396F460E3A6FD80EAC
:1040C8003B6F060E3C6F700E3D6F0F0E3E6F670E16
:1040D8003F6FD50E406F416B426B0AEC14F00C0E2B
:1040E800396FBD0E3A6FD80E3B6F060E3C6FCD0E82
:1040F8003D6F0E0E3E6F670E3F6FD50E406F416BE2
:10410800426B0AEC14F00C0E396FE00E3A6FD80EC1
:104118003B6F060E3C6F700E3D6F0F0E3E6F670EC5
:104128003F6FD50E406F416B426B0AEC14F028913B
:1041380009D8CC0E296F110E2A6F2B6B070E2C6F26
:10414800309103D628A103D0CFC027F102D0CEC02A
:1041580027F127514AE0010A54E0030A5EE0010A08
:1041680068E0070A72E0010A7CE0030AD8B485D047
:10417800010AD8B499D00F0AD8B4ADD0010AD8B47E
:10418800C1D0030AD8B4D5D0010AD8B4DFD0070A01
:10419800D8B4E9D0010AD8B4F3D0030AD8B4FDD012
:1041A800010AD8B407D11F0AD8B41BD1010AD8B460
:1041B8002FD1030AD8B438D1010AD8B442D1070A9A
:1041C800D8B44CD1010AD8B460D1030AD8B46AD1A2
:1041D800010AD8B47FD10F0AD8B489D1010AD8B45A
:1041E8009DD1030AD8B4A7D1B3D1260E296FAE0E3C
:1041F8002A6F2B6B0B0E2C6F309128B13081A5DD07
:10420800A7D1260E296FBA0E2A6F2B6B050E2C6FBD
:10421800309128B1308199DD9BD1260E296FC00ECF
:104228002A6F2B6B090E2C6F309128B130818DDDF0
:104238008FD1260E296FCA0E2A6F2B6B080E2C6F92
:10424800309128B1308181DD83D1260E296FD30EBC
:104258002A6F2B6B0A0E2C6F309128B1308175DDD7
:1042680077D1260E296F190E2A6F2B6B0B0E2C6F28
:10427800309128B1308169DD6BD11E0E296F2E0E69
:104288002A6F2B6B050E2C6F309128B130815DDDC4
:104298002F0E296F250E2A6F2B6B080E2C6F30916D
:1042A80028B1308152DD54D11E0E296F2E0E2A6F8F
:1042B8002B6B050E2C6F309128B1308146DD2F0E07
:1042C800296F340E2A6F2B6B0A0E2C6F309128B190
:1042D80030813BDD3DD11E0E296F3F0E2A6F2B6BBF
:1042E800070E2C6F309128B130812FDD2F0E296FEA
:1042F800470E2A6F2B6B060E2C6F309128B1308138
:1043080024DD26D11E0E296F4E0E2A6F2B6B060E4A
:104318002C6F309128B1308118DD2F0E296F550E82
:104328002A6F2B6B0A0E2C6F309128B130810DDD6E
:104338000FD1260E296F190E2A6F010E2B6F080E4A
:104348002C6F309128B1308100DD02D1260E296F03
:10435800220E2A6F010E2B6F090E2C6F309128B197
:104368003081F3DCF5D0260E296F2C0E2A6F010E52
:104378002B6F090E2C6F309128B13081E6DCE8D024
:10438800260E296F360E2A6F010E2B6F0C0E2C6F1E
:10439800309128B13081D9DCDBD0260E296F430E4D
:1043A8002A6F010E2B6F0B0E2C6F309128B13081C4
:1043B800CCDCCED01E0E296F600E2A6F2B6B070E39
:1043C8002C6F309128B13081C0DC2F0E296F730E0D
:1043D8002A6F2B6B080E2C6F309128B13081B5DC19
:1043E800B7D01E0E296F680E2A6F2B6B0A0E2C6F22
:1043F800309128B13081A9DC2F0E296F730E2A6FF6
:104408002B6B080E2C6F309128B130819EDCA0D028
:10441800260E296F7C0E2A6F2B6B0C0E2C6F309199
:1044280028B1308192DC94D0260E296F6D0E2A6F48
:10443800010E2B6F040E2C6F309128B1308185DC72
:1044480087D0260E296F720E2A6F010E2B6F0A0E67
:104458002C6F309128B1308178DC7AD01E0E296F0C
:10446800890E2A6F2B6B0C0E2C6F309128B130817E
:104478006CDC2F0E296F960E2A6F2B6B060E2C6F95
:10448800309128B1308161DC63D0260E296F890E06
:104498002A6F010E2B6F0A0E2C6F309128B13081D4
:1044A80054DC56D01E0E296F890E2A6F010E2B6F11
:1044B8000A0E2C6F309128B1308147DC2F0E296FFE
:1044C800960E2A6F2B6B060E2C6F309128B1308117
:1044D8003CDC3ED0260E296FA00E2A6F010E2B6FF2
:1044E800080E2C6F309128B130812FDC31D01E0E90
:1044F800296F9D0E2A6F2B6B080E2C6F309128B1F7
:10450800308123DC2F0E296FA60E2A6F2B6B070E26
:104518002C6F309128B1308118DC1AD0260E296F03
:10452800B20E2A6F010E2B6F080E2C6F309128B136
:1045380030810BDC0DD0260E296FBB0E2A6F010EC1
:104548002B6F0B0E2C6F309128B13081A9EC1EF027
:1045580012002DA103D0296B2A6B04D0E00E296F1D
:10456800070E2A6F2B6B2C6B28510EE0010A39E0DD
:10457800030A64E0010AD8B48ED0070AD8B4B8D0C8
:10458800010AD8B4E2D00DD10C0E396F540E3A6F2F
:10459800060E3B6F0B0E3C6FCF0E3D6F1D0E3E6F30
:1045A80029C13FF12AC140F12BC141F12CC142F18F
:1045B8000AEC14F0DE0E396F540E3A6F060E3B6F9C
:1045C8000B0E3C6FD80E3D6F1D0E3E6F29C13FF19B
:1045D8002AC140F12BC141F12CC142F10AEC14F07F
:1045E800E0D00C0E396F650E3A6F060E3B6F0B0E5E
:1045F8003C6FCF0E3D6F1D0E3E6F29C13FF12AC1A2
:1046080040F12BC141F12CC142F10AEC14F0DE0E4D
:10461800396F650E3A6F060E3B6F0B0E3C6FD80E66
:104628003D6F1D0E3E6F29C13FF12AC140F12BC1DC
:1046380041F12CC142F10AEC14F0B3D00C0E396FE1
:10464800760E3A6F060E3B6F0B0E3C6FCF0E3D6F2A
:104658001D0E3E6F29C13FF12AC140F12BC141F126
:104668002CC142F10AEC14F0DE0E396F760E3A6F67
:10467800060E3B6F0B0E3C6FD80E3D6F1D0E3E6F46
:1046880029C13FF12AC140F12BC141F12CC142F1AE
:104698000AEC14F086D00C0E396F870E3A6F060EAE
:1046A8003B6F0B0E3C6FCF0E3D6F1D0E3E6F29C149
:1046B8003FF12AC140F12BC141F12CC142F10AEC72
:1046C80014F0DE0E396F870E3A6F060E3B6F0B0E35
:1046D8003C6FD80E3D6F1D0E3E6F29C13FF12AC1B8
:1046E80040F12BC141F12CC142F10AEC14F059D030
:1046F8000C0E396F980E3A6F060E3B6F0B0E3C6F1F
:10470800CF0E3D6F1D0E3E6F29C13FF12AC140F10A
:104718002BC141F12CC142F10AEC14F0DE0E396FC5
:10472800980E3A6F060E3B6F0B0E3C6FD80E3D6F1E
:104738001D0E3E6F29C13FF12AC140F12BC141F145
:104748002CC142F10AEC14F02CD00C0E396FA90ED2
:104758003A6F060E3B6F0B0E3C6FCF0E3D6F1D0E72
:104768003E6F29C13FF12AC140F12BC141F12CC153
:1047780042F10AEC14F0DE0E396FA90E3A6F060EFC
:104788003B6F0B0E3C6FD80E3D6F1D0E3E6F29C15F
:104798003FF12AC140F12BC141F12CC142F10AEC91
:1047A80014F012000C0E0101296FD80E2A6F4C0E5E
:1047B8002B6F710E2C6F2D6B2E6B96EC13F0A25194
:1047C800060A03E0010A04E006D0000150D905D02A
:1047D8000001A5DA02D0000101D81200CE513BE059
:1047E800010A39E0030A37E0010A35E0070A33E035
:1047F8000C0A31E0010A6EE0030A6CE0010A6AE083
:10480800070A68E0010A66E0030A64E0010AD8B40E
:10481800A5D01F0AD8B4A2D0010AD8B49FD0030AE1
:10482800D8B49CD0010AD8B499D0070AD8B496D085
:10483800010AD8B4D7D0030AD8B4D4D0010AD8B45E
:10484800D1D00F0AD8B4CED0010AD8B4CBD0030A3D
:10485800D8B4C8D00AD1540E0101296FAE0E2A6F00
:104868002B6B0B0E2C6F3091A9EC1EF0650E296F87
:10487800BA0E2A6F2B6B050E2C6F3091A9EC1EF027
:10488800760E296FC00E2A6F2B6B090E2C6F309194
:10489800A9EC1EF0870E296FCA0E2A6F2B6B080E23
:1048A8002C6F3091A9EC1EF0980E296FD30E2A6F49
:1048B8002B6B0A0E2C6F3091A9EC1EF0A90E296FF4
:1048C800020E2A6F010E2B6F0B0E2C6F3091A9EC84
:1048D8001EF0CBD0540E0101296F0E0E2A6F010E67
:1048E8002B6F0A0E2C6F3091A9EC1EF0650E296F04
:1048F800190E2A6F010E2B6F080E2C6F3091A9EC40
:104908001EF0760E296F220E2A6F010E2B6F090EEC
:104918002C6F3091A9EC1EF0870E296F2C0E2A6F90
:10492800010E2B6F090E2C6F3091A9EC1EF0980E1A
:10493800296F360E2A6F010E2B6F0C0E2C6F3091DB
:10494800A9EC1EF0A90E296F430E2A6F010E2B6FDA
:104958000B0E2C6F3091A9EC1EF087D0540E01017C
:10496800296F4F0E2A6F010E2B6F0A0E2C6F309194
:10497800A9EC1EF0650E296F5A0E2A6F010E2B6FD7
:10498800070E2C6F3091A9EC1EF0760E296F620E7F
:104998002A6F010E2B6F0A0E2C6F3091A9EC1EF0B6
:1049A800870E296F6D0E2A6F010E2B6F040E2C6F68
:1049B8003091A9EC1EF0980E296F720E2A6F010E25
:1049C8002B6F0A0E2C6F3091A9EC1EF0A90E296FDF
:1049D8007D0E2A6F010E2B6F0B0E2C6F3091A9ECF8
:1049E8001EF043D0540E0101296F890E2A6F010E63
:1049F8002B6F0A0E2C6F3091A9EC1EF0650E296FF3
:104A0800940E2A6F010E2B6F0B0E2C6F3091A9ECB0
:104A18001EF0760E296FA00E2A6F010E2B6F080E5E
:104A28002C6F3091A9EC1EF0870E296FA90E2A6F02
:104A3800010E2B6F080E2C6F3091A9EC1EF0980E0A
:104A4800296FB20E2A6F010E2B6F080E2C6F309152
:104A5800A9EC1EF0A90E296FBB0E2A6F010E2B6F51
:104A68000B0E2C6F3091A9EC1EF001011200CE51F3
:104A78003EE0010A3CE0030A3AE0010A38E0070A8E
:104A880036E0010A34E00D0A70E0010A6EE0030A1C
:104A98006CE0010A6AE0070A68E0010A66E0030AB6
:104AA800D8B4A7D0010AD8B4A4D01F0AD8B4A1D0CA
:104AB800010AD8B49ED0030AD8B49BD0010AD8B44E
:104AC80098D0070AD8B4D9D0010AD8B4D6D0030AE6
:104AD800D8B4D3D0010AD8B4D0D00F0AD8B4CDD026
:104AE800010AD8B4CAD0030AD8B40BD116D1540ECF
:104AF8000101296FAE0E2A6F2B6B0B0E2C6F3091B4
:104B0800A9EC1EF0650E296FBA0E2A6F2B6B050EE5
:104B18002C6F3091A9EC1EF0760E296FC00E2A6F0B
:104B28002B6B090E2C6F3091A9EC1EF0870E296FA4
:104B3800CA0E2A6F2B6B080E2C6F3091A9EC1EF051
:104B4800980E296FD30E2A6F2B6B0A0E2C6F30919B
:104B5800A9EC1EF0A90E296FDE0E2A6F2B6B090E29
:104B68002C6F3091A9EC1EF0D8D0540E0101296F9A
:104B7800020E2A6F010E2B6F0B0E2C6F3091A9ECD1
:104B88001EF0650E296F0E0E2A6F010E2B6F0A0E8E
:104B98002C6F3091A9EC1EF0760E296F190E2A6F32
:104BA800010E2B6F080E2C6F3091A9EC1EF0870EAA
:104BB800296F220E2A6F010E2B6F090E2C6F309170
:104BC800A9EC1EF0980E296F2C0E2A6F010E2B6F80
:104BD800090E2C6F3091A9EC1EF0A90E296F360E24
:104BE8002A6F010E2B6F0C0E2C6F3091A9EC1EF062
:104BF80094D0540E0101296F430E2A6F010E2B6FBA
:104C08000B0E2C6F3091A9EC1EF0650E296F4F0E1C
:104C18002A6F010E2B6F0A0E2C6F3091A9EC1EF033
:104C2800760E296F5A0E2A6F010E2B6F070E2C6F06
:104C38003091A9EC1EF0870E296F620E2A6F010EC3
:104C48002B6F0A0E2C6F3091A9EC1EF0980E296F6D
:104C58006D0E2A6F010E2B6F040E2C6F3091A9EC8C
:104C68001EF0A90E296F720E2A6F010E2B6F0A0E05
:104C78002C6F3091A9EC1EF050D0540E0101296F11
:104C88007D0E2A6F010E2B6F0B0E2C6F3091A9EC45
:104C98001EF0650E296F890E2A6F010E2B6F0A0E02
:104CA8002C6F3091A9EC1EF0760E296F940E2A6FA6
:104CB800010E2B6F0B0E2C6F3091A9EC1EF0870E96
:104CC800296FA00E2A6F010E2B6F080E2C6F3091E2
:104CD800A9EC1EF0980E296FA90E2A6F010E2B6FF2
:104CE800080E2C6F3091A9EC1EF0A90E296FB20E98
:104CF8002A6F010E2B6F080E2C6F3091A9EC1EF055
:104D08000CD0540E0101296FBB0E2A6F010E2B6FB8
:104D18000B0E2C6F3091A9EC1EF001011200CE5140
:104D280044E0010A42E0030A40E0010A3EE0070AC3
:104D38003CE0010A3AE0030A76E0010A74E00F0A4F
:104D480072E0010A70E0030A6EE0010A6CE0070AEB
:104D5800D8B4ABD0010AD8B4A8D0030AD8B4A5D027
:104D6800010AD8B4A2D01F0AD8B49FD0010AD8B477
:104D78009CD0030AD8B4DDD0010AD8B4DAD0070A27
:104D8800D8B4D7D0010AD8B4D4D0030AD8B4D1D073
:104D9800010AD8B4CED00F0AD8B40FD1010AD8B4BA
:104DA8000CD1030AD8B409D12AD1540E0101296FB4
:104DB800AE0E2A6F2B6B0B0E2C6F3091A9EC1EF0E8
:104DC800650E296FBA0E2A6F2B6B050E2C6F30916A
:104DD800A9EC1EF0760E296FC00E2A6F2B6B090EF8
:104DE8002C6F3091A9EC1EF0870E296FCA0E2A6F1E
:104DF8002B6B080E2C6F3091A9EC1EF0980E296FC2
:104E0800D30E2A6F2B6B0A0E2C6F3091A9EC1EF073
:104E1800A90E296FDE0E2A6F2B6B090E2C6F3091AD
:104E2800A9EC1EF0ECD0540E0101296FE80E2A6F90
:104E38002B6B0C0E2C6F3091A9EC1EF0650E296FB0
:104E4800F50E2A6F2B6B0C0E2C6F3091A9EC1EF00F
:104E5800760E296F020E2A6F010E2B6F0B0E2C6F28
:104E68003091A9EC1EF0870E296F0E0E2A6F010EE5
:104E78002B6F0A0E2C6F3091A9EC1EF0980E296F3B
:104E8800190E2A6F010E2B6F080E2C6F3091A9ECAA
:104E98001EF0A90E296F220E2A6F010E2B6F090E24
:104EA8002C6F3091A9EC1EF0AAD0540E0101296F85
:104EB8002C0E2A6F010E2B6F090E2C6F3091A9EC66
:104EC8001EF0650E296F360E2A6F010E2B6F0C0E21
:104ED8002C6F3091A9EC1EF0760E296F430E2A6FC5
:104EE800010E2B6F0B0E2C6F3091A9EC1EF0870E64
:104EF800296F4F0E2A6F010E2B6F0A0E2C6F3091FF
:104F0800A9EC1EF0980E296F5A0E2A6F010E2B6F0E
:104F1800070E2C6F3091A9EC1EF0A90E296F620EB6
:104F28002A6F010E2B6F0A0E2C6F3091A9EC1EF020
:104F380066D0540E0101296F6D0E2A6F010E2B6F7A
:104F4800040E2C6F3091A9EC1EF0650E296F720EBD
:104F58002A6F010E2B6F0A0E2C6F3091A9EC1EF0F0
:104F6800760E296F7D0E2A6F010E2B6F0B0E2C6F9C
:104F78003091A9EC1EF0870E296F890E2A6F010E59
:104F88002B6F0A0E2C6F3091A9EC1EF0980E296F2A
:104F9800940E2A6F010E2B6F0B0E2C6F3091A9EC1B
:104FA8001EF0A90E296FA00E2A6F010E2B6F080E96
:104FB8002C6F3091A9EC1EF022D0540E0101296FFC
:104FC800A90E2A6F010E2B6F080E2C6F3091A9ECD9
:104FD8001EF0650E296FB20E2A6F010E2B6F080E98
:104FE8002C6F3091A9EC1EF0760E296FBB0E2A6F3C
:104FF800010E2B6F0B0E2C6F3091A9EC1EF00101E6
:10500800120029C136F1376B640E57EC0AF036C12D
:105018002AF129C136F1376B640E9AEC0AF02B6F2E
:105028002BC136F1376B0A0E57EC0AF036C12CF15A
:105038002BC136F1376B0A0E9AEC0AF02D6F030E6E
:105048002E6F020E2F6F2A6706D02C6704D0010E30
:105058002E6F2F6B06D02A6704D0020E2E6F010E1A
:105068002F6F290E2E03F3CF30F12F5130273051F7
:10507800F008316FD89031332E51010A05E0030A48
:105088000FE0010A25E047D031C133F128C134F1DE
:105098002DC135F1389132B138814EEC19F03BD041
:1050A80031C133F128C134F12CC135F1389132B115
:1050B80038814EEC19F02A0E3125336F28C134F1AE
:1050C8002DC135F1389132B138814EEC19F023D029
:1050D80031C133F128C134F12AC135F1389132B1E7
:1050E80038814EEC19F02A0E3125336F28C134F17E
:1050F8002CC135F1389132B138814EEC19F0540E8B
:105108003125336F28C134F12DC135F1389132B1D1
:1051180038814EEC19F01200A2510FE0010A0DE09F
:10512800030A0BE0010A09E0070A07E0010A05E0A3
:10513800030A46E0010A44E059D0540E296FC70E0D
:105148002A6F010E2B6F030E2C6F3091A9EC1EF005
:10515800650E296FD20E2A6F010E2B6F040E2C6F6D
:105168003091A9EC1EF0760E296FCB0E2A6F010E36
:105178002B6F0B0E2C6F3091A9EC1EF0870E296F48
:10518800D70E2A6F010E2B6F040E2C6F3091A9ECED
:105198001EF0980E296FDC0E2A6F010E2B6F090E78
:1051A8002C6F3091A9EC1EF0A90E296FE60E2A6F1C
:1051B800010E2B6F090E2C6F3091A9EC1EF016D042
:1051C800540E296FF00E2A6F010E2B6F050E2C6FEF
:1051D8003091A9EC1EF0650E296FF60E2A6F010EAC
:1051E8002B6F070E2C6F3091A9EC1EF01200540E95
:1051F800296F360E2A6F020E2B6F030E2C6F30911B
:10520800A9EC1EF0650E296FAB0E2A6F2B6B020EF0
:105218002C6F3091A9EF1EF0540E296FFE0E2A6FE5
:10522800010E2B6F060E2C6F3091A9EC1EF0650E47
:10523800296F050E2A6F020E2B6F060E2C6F309108
:10524800A9EF1EF0540E296F360E2A6F020E2B6F2F
:10525800030E2C6F3091A9EC1EF0650E296F3A0EE3
:105268002A6F020E2B6F030E2C6F3091A9EC1EF0E3
:10527800760E296F0C0E2A6F020E2B6F060E2C6FFE
:105288003091A9EC1EF0870E296F3E0E2A6F020E90
:105298002B6F040E2C6F3091A9EF1EF0BB51640ADE
:1052A80005E00A0A0FE0010A24E044D0540E296FF1
:1052B800130E2A6F020E2B6F070E2C6F3091A9EC7C
:1052C8001EF038D0540E296F130E2A6F020E2B6F62
:1052D800070E2C6F3091A9EC1EF0650E296F1B0E7E
:1052E8002A6F020E2B6F060E2C6F3091A9EC1EF060
:1052F80021D0540E296F130E2A6F020E2B6F070E42
:105308002C6F3091A9EC1EF0650E296F1B0E2A6FC9
:10531800020E2B6F060E2C6F3091A9EC1EF0760E44
:10532800296F220E2A6F020E2B6F060E2C6F3091FA
:10533800A9EC1EF01200540E296F360E2A6F020EC9
:105348002B6F030E2C6F3091A9EC1EF0650E296FA0
:105358003A0E2A6F020E2B6F030E2C6F3091A9ECB8
:105368001EF0760E296F3E0E2A6F020E2B6F040E6A
:105378002C6F3091A9EF1EF0540E296F290E2A6F59
:10538800020E2B6F040E2C6F3091A9EC1EF0650EE7
:10539800296F2E0E2A6F020E2B6F070E2C6F30917D
:1053A800A9EF1EF0540E296F3A0E2A6F020E2B6FCA
:1053B800030E2C6F3091A9EC1EF0650E296F360E86
:1053C8002A6F020E2B6F030E2C6F3091A9EF1EF07F
:1053D800540E296F3A0E2A6F020E2B6F030E2C6F94
:1053E8003091A9EC1EF0650E296F3E0E2A6F020E51
:1053F8002B6F040E2C6F3091A9EF1EF00001CE51D7
:105408004DE0010A5BE0030A72E0010AD8B487D0D4
:10541800070AD8B4A9D0010AD8B4BED0030AD8B4B0
:10542800C6D0010AD8B4CED00F0AD8B4D6D0010A53
:10543800D8B4DED0030AD8B4E6D0010AD8B400D173
:10544800070AD8B408D1010AD8B410D1030AD8B4CD
:1054580018D1010AD8B420D11F0AD8B436D1010A0C
:10546800D8B44CD1030AD8B462D1010AD8B478D1DF
:10547800070AD8B492D1010AD8B49AD1030AD8B489
:10548800B0D1010AD8B4B8D10F0AD8B4C0D1010A32
:10549800D8B4F7D1030AD8B4F8D101D201013CDE5F
:1054A800A2C136F1376B060E9AEC0AF0286F2D91DF
:1054B800ADEC22F0A251A7EC11F0F1D15F0E010181
:1054C800286FA6C129F132919CDD9E0E296F430EEB
:1054D8002A6F020E2B6F0C0E2C6F3091A9EC1EF068
:1054E800A65170EC12F03D0E32EC10F0D8D15F0EE0
:1054F8000101286FA3C129F1329183DD9E0E296F26
:10550800DA0E2A6F2B6B030E2C6F3091A9EC1EF06C
:10551800A35170EC12F0050E32EC10F0C0D14E0E13
:105528000101336F7C0E346F0A0E356F38914EECE3
:1055380019F05F0E286FA4C129F1329162DD9E0E29
:10554800296FDA0E2A6F2B6B030E2C6F3091A9ECA2
:105558001EF04B0E32EC10F00101A45170EC12F069
:10556800050E32EC10F09BD15F0E0101286FA5C12A
:1055780029F1329146DD9E0E296FDA0E2A6F2B6BC8
:10558800030E2C6F3091A9EC1EF0A55170EC12F0AF
:10559800050E32EC10F083D16E0E0101286FB8C1F0
:1055A80029F132912EDDB85170EC12F078D16E0EDF
:1055B8000101286FB9C129F1329123DDB95170EC8D
:1055C80012F06DD16E0E0101286FBAC129F1329126
:1055D80018DDBA5170EC12F062D1010133DEA7C1B7
:1055E80028F12D91ADEC22F0A751BAEC12F057D169
:1055F8000101A1DEA8C128F12D91ADEC22F0A8513E
:10560800ECEC12F04CD15F0E0101286F0A0EA903D1
:10561800F3CF29F13291F5DC9E0E296F480E2A6FDF
:10562800020E2B6F070E2C6F3091A9EC1EF00A0E9C
:10563800A903F35070EC12F0520E32EC10F02FD197
:105648000101B0DEAAC128F12D91ADEC22F0AA51DA
:105658000BEC13F024D10101BBDEABC128F12D9175
:10566800ADEC22F0AB5116EC13F019D1010116DEA6
:10567800ACC128F12D91ADEC22F0AC51D4EC12F074
:105688000ED10101C9DDADC128F12D91ADEC22F09B
:10569800AD51A6EC12F003D15F0E0101286FAEC127
:1056A80029F13291AEDC9E0E296F430E2A6F020E4D
:1056B8002B6F0C0E2C6F3091A9EC1EF0AE5170ECD4
:1056C80012F03D0E32EC10F0EAD05F0E0101286FA7
:1056D800AFC129F1329195DC9E0E296F430E2A6FD6
:1056E800020E2B6F0C0E2C6F3091A9EC1EF0AF51EF
:1056F80070EC12F03D0E32EC10F0D1D05F0E0101CB
:10570800286FB0C129F132917CDC9E0E296F430EBF
:105718002A6F020E2B6F0C0E2C6F3091A9EC1EF025
:10572800B05170EC12F03D0E32EC10F0B8D05F0EB4
:105738000101286FB1C129F1329163DC9E0E296FF6
:10574800430E2A6F020E2B6F0C0E2C6F3091A9ECB2
:105758001EF0B15170EC12F03D0E32EC10F09FD0FB
:105768005F0E0101286F140EB203F3CF29F13291B5
:1057780048DC9E0E296F480E2A6F020E2B6F070E0B
:105788002C6F3091A9EC1EF0140EB203F35070EC9C
:1057980012F0520E32EC10F082D0010128DDB3C1B4
:1057A80028F12D91ADEC22F0B3519BEC12F077D09B
:1057B8005F0E0101286FB4C129F1329122DC9E0EDF
:1057C800296F500E2A6F020E2B6F070E2C6F309127
:1057D800A9EC1EF0B45170EC12F03E0E32EC10F051
:1057E8005ED0010104DDB5C128F12D91ADEC22F0A8
:1057F800B5519BEC12F053D00101F9DCB6C128F188
:105808002D91ADEC22F0B6519BEC12F048D0290E48
:105818000101276F27C133F16E0E346F010E356F0A
:1058280038914EEC19F02F0E272727C133F18C0E33
:10583800346F0A0E356F38914EEC19F0170E272782
:1058480027C133F16E0E346F010E356F38914EEC6F
:1058580019F02F0E272727C133F16E0E346F050E6E
:10586800356F38914EEC19F0470E32EC10F04B0EB4
:1058780032EC10F0470E32EC10F0280E32EC10F03B
:105888000ED0010110EC1FF00AD0010175DDD2C164
:1058980028F12D91ADEC22F0D25100EC13F001016A
:1058A80012000D0E276F1D0E286F00016551A3EF22
:1058B80014F06C0E276F1B0E286F000E83BA010EB2
:1058C8008AEF15F0A40E276F200E286F0001B7513C
:1058D800B5EF15F0B35306E0960E276FB10E52ECF4
:1058E8001AF005D0960E276FCC0E52EF1AF0120060
:1058F800130E276F6E0E286FC4C129F1C5C12AF196
:1059080067EF1BF09A0E276FCC0EA5EF1AF0D25353
:10591800010103E10001D6EC23F0D3C028F12D8169
:10592800ADEC22F0D2C028F12D91ADEC22F00001AF
:1059380012004BEC20F000011200F29E7EA104D070
:105948000101AFDF00017E917EA304D00101B1DF28
:1059580000017E937EA504D00101B4DF00017E958D
:105968007EA704D00101B6DF00017E977EA904D08E
:105978000101BEDF00017E997EAB04D00101C2DFC8
:1059880000017E9B7EAD02D0C2DF7E9D7EAF02D03D
:10599800D0DF7E9FF28E1200936B946B956B966BA3
:1059A8001200932B000E9423D00E935D070E94598A
:1059B80007E3936B946B950E0101276FC3EF0AF011
:1059C8001200100E95630AD00E0E966307D04EECA7
:1059D80010F04C0E32EC10F044EC10F0110E955D06
:1059E8000E0E965902E369A132D01200B55303E0B6
:1059F800000169B302D0000112009B2B000E9C230A
:105A08008A0E9B5D070E9C590BE39B6B9C6B0101F7
:105A1800C451C51105E0C407000EC55B00017E89AD
:105A280000011200976B986B996B9A6B1200972B79
:105A3800000E9823D00E975D070E985907E3976BD1
:105A4800986B990E0101276FC3EF0AF01200A5A900
:105A580004D0010172EC0DF00001010119EC0EF007
:105A68007BEC0BF00001FFD780A40CD0A16BA26BDC
:105A78009D0E0101276FC3EC0AF09DC09FF09EC0E8
:105A8800A0F007D09D6B9E6BA10E0101276FC3EF9D
:105A98000AF01200A65105E0010A10E0030A1BE013
:105AA8003AD0140E9D6337D09E6735D0CAEC0FF0FC
:105AB80073DFB8DFA76B010EA66F2DD0500EA16360
:105AC8002AD0A26728D0A72B020EA76301D0A583EE
:105AD800020EA66F20D0140E9D6305D09E6703D0DA
:105AE800010EA66F1200E90EA15D030EA25913E381
:105AF800A72D0FD0080EAA630CD0D10EAB5D070EF0
:105B0800AC5907E3A5B905D00101B55302E000017E
:105B180069830001A66B1200A5B516D0A5B914D0EB
:105B2800BD5103E14F0EBC650FD0010EAA650CD024
:105B3800070EAA6109D0A5854EEC10F0A00EAB6F38
:105B48000F0EAC6F070EAA6FAA5124E0010A66E097
:105B5800030AD8B4B3D0010AD8B4C0D0070AD8B45D
:105B6800C2D0010AD8B4CED0030AD8B4D0D0010A22
:105B7800D8B4D9D00F0AD8B4FAD0010AD8B40BD106
:105B8800030AD8B422D1010AD8B427D1070AD8B455
:105B98003BD142D1AB2B000EAC23940EAB6304D0A7
:105BA800110EAC6301D053DFA5B306D0B80E9D63C8
:105BB80033D10B0E9E6330D1A5A904D0040E010188
:105BC800616F03D0020E0101616F6AEC13F0276B5D
:105BD800286BD6EC13F00101D7EC1BF0290E2B6FC4
:105BE800000E21EC13F00001B8D94D0E32EC10F084
:105BF8005B0E32EC10F069AB0AD0699B690E32EC8F
:105C080010F0460E32EC10F05B0E32EC10F044EC63
:105C180010F0AB6BAC6B010EAA6F1200AB2B000E31
:105C2800AC23D00EAB5D070EAC59D8A0F5D0A2516D
:105C380003E14F0EA165F0D069B1EED0A5A92DD032
:105C4800CE6B280E01012B6F000E21EC13F0276B91
:105C5800286BD6EC13F0CE6BD26BE0EC1FF0000192
:105C6800D6EC23F0D2C028F12D91ADEC22F0290E0C
:105C78002B6F000E21EC13F04E0E32EC10F03F0E9D
:105C880032EC10F0390E32EC10F019EC11F044EC53
:105C980010F06997080EAA6FBFD00101CD5309E033
:105CA800750E32EC10F044EC10F06997020EAA6FF2
:105CB800B3D000016997070EAA6FAED0CAEC0FF0F7
:105CC800010EAE6FAF6BB06BB16BEBEC10F044EC48
:105CD80010F0AB6BAC6B030EAA6F9ED069B19CD071
:105CE800040EAA6F99D0250E32EC10F00101A251D2
:105CF800A7EC11F0000144EC10F0AB6BAC6B050E97
:105D0800AA6F8AD069B188D0060EAA6F85D080B6EE
:105D180005D0600E32EC10F044EC10F0AB6BAC6BBD
:105D2800070EAA6F79D069B177D0B729806F280E8E
:105D380001012B6F000E21EC13F0276B286BD6ECBA
:105D480013F0AFD80001FFD87E6B7F6B0101FDEC2B
:105D58001BF0290E2B6F000E21EC13F00001A59308
:105D680069951ADEAB6BAC6B080EAA6F55D0AB0EFB
:105D78000101276FC3EC0AF0A5A305D0A5B903D08C
:105D8800090EAA6F1200A00E9D5D0F0E9E5944E3E6
:105D98000B0EAA6F41D0020E0101AD630AD06AC191
:105DA800ADF10001B76B730E32EC10F044EC10F05B
:105DB80009D0020EAD6F0001B76F720E32EC10F011
:105DC80044EC10F00A0EAA6F27D069B125D0A5932C
:105DD800AB6BAC6B080EAA6F1FD069856989070E7B
:105DE8000101616F4C0E32EC10F044EC10F0280EFB
:105DF80001012B6F000E21EC13F0276B286BD6ECFA
:105E080013F00C0EAA6F08D069B106D0A25103E1B5
:105E1800130EA16501D01BDE1200AE5103E0010A8A
:105E28000FE01AD0CAEC0FF06651651903E07E81C5
:105E380065C066F0AF6BB06BB16B010EAE6F0CD086
:105E4800AF2B000EB023B123C00EAF5DD40EB059F6
:105E5800010EB15901E3AE6B1200B25103E0010A21
:105E68000BE01ED084B002D0A58B01D0A59B7DECA1
:105E78000BF0010EB26F14D084A008D0B36BB46BD2
:105E8800B50E0101276FC3EC0AF007D0B56BB66BEE
:105E9800B30E0101276FC3EC0AF07FEC0BF0B26B75
:105EA8001200B75107E0010A1AE0030A21E0010ACB
:105EB8002FE040D0020E0101276F070E286FF40E65
:105EC800296F010E2A6FF40E2B6F010E2C6FCAEC8E
:105ED8000BF0B551B6112EE0010EB76F2BD0020EA4
:105EE8000101616F0001B351B41124E0B76B22D0F6
:105EF800030E0101276F070E286FF40E296F010E9C
:105F08002A6FF40E2B6F010E2C6FCAEC0BF012D017
:105F18000101276B070E286FF40E296F010E2A6FF7
:105F2800F40E2B6F010E2C6FCAEC0BF0B351B411A9
:105F380001E0B76B0001B851B71903E07E85B7C01F
:105F4800B8F001011200A36B83BAA32BA351A419C3
:105F580003E07E83A3C0A4F012000101A85105E06C
:105F6800010A07E0030A09E00BD0000E36EC0CF03A
:105F780007D0660E36EC0CF003D0F30E36EC0CF0BE
:105F88000001A5A907D0F30E36EC0CF0030ECD6F77
:105F9800010ECF6F0101120099519A110DE197512D
:105FA80098110AE1080EAA6307D0D7DF290E2B6FD4
:105FB800000E21EC13F0000199510101D1631CD0AE
:105FC80000019A6719D09751981116E10101A8515B
:105FD800010A02E0030A10E1CE2D0AD0000E36ECC9
:105FE8000CF0280E2B6F000E21EC13F0000104D0EA
:105FF8000D0E36EC0CF000010001120083B80FD032
:10600800C06BC16BBC0E0101276FC3EC0AF09D5138
:106018009E110CE0BCC0BEF0BDC0BFF007D0BC6B89
:10602800BD6BC00E0101276FC3EF0AF01200CE51FD
:1060380035E0010A36E0030A37E0010A38E0070ACA
:1060480039E0010A46E0030A50E0010A51E00F0A6C
:1060580052E0010A53E0030A54E0010A55E0070A36
:1060680056E0010A57E0030A58E0010A59E01F0AFE
:106078005AE0010A5BE0030A5CE0010A5DE0070AF6
:106088005EE0010A5FE0030A60E0010A61E00F0ACE
:1060980062E0010A63E0030A64E064D0010ECE6F97
:1060A80061D0020ECE6F5ED0030ECE6F5BD0040EB1
:1060B800CE6F58D00101A251060A03E0070EA26371
:1060C80004D0050E0001CE6F4DD0080E0001CE6F32
:1060D80049D0070E0101A26304D0060E0001CE6F5D
:1060E80041D0080E0001CE6F3DD0070ECE6F3AD0DA
:1060F800080ECE6F37D0090ECE6F34D00A0ECE6F91
:1061080031D00B0ECE6F2ED00C0ECE6F2BD00D0EC5
:10611800CE6F28D00E0ECE6F25D00F0ECE6F22D0A8
:10612800100ECE6F1FD0110ECE6F1CD0120ECE6F78
:1061380019D0130ECE6F16D0140ECE6F13D0150EC5
:10614800CE6F10D0160ECE6F0DD0170ECE6F0AD0B0
:10615800180ECE6F07D0190ECE6F04D01A0ECE6F60
:1061680001D0CE6B1200296F276102D0272B02D0F5
:1061780028C127F127511200CE514FE0010AD8B4A7
:1061880081D0030AD8B495D0010AD8B4A9D0070A97
:10619800D8B4BCD0010AD8B4D0D0030AD8B4E4D05B
:1061A800010AD8B4F8D00F0AD8B40CD1010AD8B46F
:1061B8001ED1030AD8B430D1010AD8B444D1070A91
:1061C800D8B456D1010AD8B468D1030AD8B490D14A
:1061D800010AD8B4A2D11F0AD8B4B6D1010AD8B4DA
:1061E800C9D1030AD8B4DCD1010AD8B4EFD1070A5F
:1061F800D8B403D2010AD8B415D2030AD8B429D224
:10620800010AD8B43BD20F0AD8B461D2010AD8B473
:106218005ED2030AD8B447D25AD2A2C136F10101DC
:10622800376B060E9AEC0AF0286F2D81ADEC22F040
:10623800A2C127F1286B070E96DFA26F2A81BBEC5B
:106248000EF0A25303E0060EA2630ED00C0E296FC7
:10625800D80E2A6F4C0E2B6F710E2C6F2D6B2E6B78
:1062680096EC13F090EC28F0A2C136F1376B060ECD
:106278009AEC0AF0286F2D91ADEC22F0A251A7EC10
:1062880011F025D2A6C127F1040E0101286F190EBD
:106298006ADFA66F0C0E296FD80E2A6F5F0E2B6F60
:1062A8002D0E2C6F2D6B2E6B96EC13F002EC2AF052
:1062B8000ED2A3C127F1040E0101286F0F0E53DF80
:1062C800A36F0C0E296FD80E2A6F5F0E2B6F2D0E41
:1062D8002C6F2D6B2E6B96EC13F002EC2AF0F7D195
:1062E800A4C127F10101286B090E3DDFA46F0C0E34
:1062F800296FD80E2A6F5F0E2B6F2D0E2C6F2D6B0A
:106308002E6B96EC13F002EC2AF0E1D1A5C127F12F
:10631800060E0101286F0F0E26DFA56F0C0E296FE0
:10632800D80E2A6F5F0E2B6F2D0E2C6F2D6B2E6BD8
:1063380096EC13F002EC2AF0CAD1B8C127F1020E8C
:106348000101286F040E0FDFB86F0C0E296FD80EED
:106358002A6F4C0E2B6F710E2C6F2D6B2E6B96ECDB
:1063680013F002EC2AF0B3D1B9C127F1010E0101F3
:10637800286F050EF8DEB96F0C0E296FD80E2A6F3C
:106388004C0E2B6F710E2C6F2D6B2E6B96EC13F041
:1063980002EC2AF09CD1BAC127F1020E0101286F44
:1063A8000A0EE1DEBA6F0C0E296FD80E2A6F4C0E5A
:1063B8002B6F710E2C6F2D6B2E6B96EC13F002EC7D
:1063C8002AF085D1A7C128F101012D81ADEC22F079
:1063D800A7C127F1286B030EC6DEA76FA7C128F156
:1063E8002D91ADEC22F0A751BAEC12F070D1A8C1F2
:1063F80028F101012D81ADEC22F0A8C127F1286B0D
:10640800020EB1DEA86FA8C128F12D91ADEC22F0E3
:10641800A851ECEC12F05BD1A9C127F1010E0101E2
:10642800286F060EA0DEA96F0C0E296FD80E2A6FF2
:106438005F0E2B6F2D0E2C6F2D6B2E6B96EC13F0C1
:1064480002EC2AF044D1AAC128F101012D81ADEC5A
:1064580022F0AAC127F1286B010E85DEAA6FAAC116
:1064680028F12D91ADEC22F0AA510BEC13F02FD1AD
:10647800ABC128F101012D81ADEC22F0ABC127F1B0
:10648800286B010E70DEAB6FABC128F12D91ADEC1E
:1064980022F0AB5116EC13F01AD1ACC128F101016E
:1064A8002D81ADEC22F0BB51640A05E00A0A0AE02E
:1064B800010A0FE014D0ACC127F1286B000E53DE9F
:1064C800AC6F0DD0ACC127F1286B010E4CDEAC6F60
:1064D80006D0ACC127F1286B020E45DEAC6FACC10B
:1064E80028F12D91ADEC22F0AC51D4EC12F0EFD0A4
:1064F800ADC128F101012D81ADEC22F0ADC127F12C
:10650800286B010E30DEAD6FADC128F12D91ADECD9
:1065180022F0AD51A6EC12F0DAD0AEC127F1010E8F
:106528000101286F190E1FDEAE6F0C0E296FD80EF1
:106538002A6F5F0E2B6F2D0E2C6F2D6B2E6B96EC2A
:1065480013F002EC2AF0C3D0AFC127F10101286B88
:106558000A0E09DEAF6F0C0E296FD80E2A6F5F0E78
:106568002B6F2D0E2C6F2D6B2E6B96EC13F002EC0F
:106578002AF0ADD0B0C127F10101286B0F0EF3DD71
:10658800B06F0C0E296FD80E2A6F5F0E2B6F2D0E71
:106598002C6F2D6B2E6B96EC13F002EC2AF097D033
:1065A800B1C127F10101286B190EDDDDB16F0C0EA9
:1065B800296FD80E2A6F5F0E2B6F2D0E2C6F2D6B47
:1065C8002E6B96EC13F002EC2AF081D0B2C127F1C1
:1065D800010E0101286F050EC6DDB26F0C0E296F82
:1065E800D80E2A6F5F0E2B6F2D0E2C6F2D6B2E6B16
:1065F80096EC13F002EC2AF06AD0B3C128F101013D
:106608002D81ADEC22F0B3C127F1286B010EABDD73
:10661800B36FB3C128F12D91ADEC22F0B3519BECCF
:1066280012F055D0B4C127F1010E0101286F3C0EBC
:106638009ADDB46F0C0E296FD80E2A6F5F0E2B6F80
:106648002D0E2C6F2D6B2E6B96EC13F002EC2AF0AE
:106658003ED0B5C128F101012D81ADEC22F0B5C1C4
:1066680027F1286B010E7FDDB56FB5C128F12D919B
:10667800ADEC22F0B5519BEC12F029D0B6C128F14F
:1066880001012D81ADEC22F0B6C127F1286B010E76
:106698006ADDB66FB6C128F12D91ADEC22F0B65186
:1066A8009BEC12F014D0D2C128F101012D81ADEC80
:1066B80022F0D2C127F1286B010E55DDD26FD2C16D
:1066C80028F12D91ADEC22F0D25100EC13F001012C
:1066D8001200D6510FE0010A1AE0030A3AE0010A53
:1066E80053E0070A78E0010AD8B494D0030AD8B472
:1066F800A0D0D2D0C15103E14F0EC065CDD0A25178
:1067080003E14F0EA165C8D0010ED66FC5D069B19F
:1067180007D0BD5103E1130EBC6502D0020ED66F3F
:1067280069B107D09E5103E1130E9D6502D0030E97
:10673800D66F69B1B1D0CDA7AFD0E80EC05D030E5A
:10674800C159D8A0A9D0CD9719EC11F044EC10F09C
:10675800A3D069B1A1D0C15103E14F0EC0659CD04F
:10676800D2C0D3F0050ED26105D01A0ECE6102D088
:10677800D22B01D0D26BCEC0CFF059DCCD878BECB9
:106788002CF0010ED66F88D069B186D069B984D053
:10679800A25103E14F0EA1657FD0050E0101616F83
:1067A800280E2B6F000E21EC13F0276B286BD6EC0C
:1067B80013F0540E32EC10F04BEC20F002EC2AF0FF
:1067C800290E2B6F000E21EC13F0000144EC10F0A1
:1067D800040ED66F61D069B107D0BD5103E1130E25
:1067E800BC6502D0050ED66F69B107D09E5103E192
:1067F800130E9D6502D0060ED66F69B14DD0CDA996
:106808004BD0E80EC05D030EC15946E3CD9944EC68
:1068180010F042D069B140D0C15103E14F0EC065BC
:106828003BD04EEC10F0A8DC0001CD89040ED66FE9
:1068380033D069B131D069B92FD0A25103E14F0EDD
:10684800A1652AD0040E0101616F280E2B6F000E7E
:1068580021EC13F0276B286BD6EC13F0E0EC1FF05B
:106868000001D6EC23F0D2C028F12D91ADEC22F036
:10687800290E2B6F000E21EC13F0390E32EC10F0BC
:106888005B0E32EC10F044EC10F00101D24D51ECEB
:106898000EF0010E0001D66F1200FF0EC25DFF0E52
:1068A800C3590CE2C22B000EC323C251C45DC351AD
:1068B800C55904E2C2C0C4F0C3C0C5F0950596111D
:1068C80006E19351941103E1C66B8E698F69060E38
:1068D80095630BD0966709D09351941106E1080E81
:1068E800AA6303D08A6B8B6B7E87B95105E0010AD6
:1068F8001FE0020A27E02ED0BC51BD112BE069B57C
:1069080029D0A58DC2C0C4F0C3C0C5F0C26BC36B8B
:10691800C63DC62B9B0EC05D020EC15904E30101A2
:10692800BF51BE270001D0EC2CF0010EB96F12D078
:10693800C15105E10101BE510001C05D0BE3A58F06
:10694800B96B08D0AA5306E0C15103E1C70EC06570
:1069580001D0B96B12000001A5AD04D0A59D010EB0
:10696800C76FCD8112000001A5AD04D0A59D010E11
:10697800C76FCD911200A5AD04D0A59D010EC76FBC
:10698800CD91A5AF04D0A59F010EC76FCD91120080
:106998000101276F0001A5AD04D0A59D27C1C7F04F
:1069A800CD911200020EC66102D0D5DF08D0B92DF4
:1069B80004D0010EC76FCD9102D0A59DC76B120000
:1069C800910EC45D010EC55903E2020EE1DF01D04C
:1069D800C66B1200040EC661F3D7C5DF910EC45D05
:1069E800010EC55902E3010EC66F1200C65101011E
:1069F800B95D03E3B0DF01010FD00001C45101010B
:106A0800C25D0001C5510101C35904E3B851C0DF9B
:106A1800010102D0A0DF01011200A251010A0FE01A
:106A2800030A10E0020A11E0030A13E0060A14E060
:106A3800030A16E0020A18E0030A1AE01BD08BDFEB
:106A4800010118D090DF010115D00001C3DF010159
:106A580011D089DF01010ED000018DDF01010AD0BC
:106A6800B85196DF010106D000019CDF010102D078
:106A78000001BCDF1200B351B4110CE00101AD2DCF
:106A880009D0D00E0001BC6305D0070EBD6302D04B
:106A9800698DA58D00011200000195510101C163A6
:106AA80004D000019653D8B4698F00011200886B96
:106AB800896BD10E8E5D070E8F5918E2200E0101E9
:106AC8002D6F4E0E2E6F8EC02FF18FC030F16AECF5
:106AD8000AF02DC188F02EC189F088518A5D89514C
:106AE8008B5904E288C08AF089C08BF012009505A2
:106AF80096110CE19351941109E1080EAA6306D08E
:106B08007E870101B35302E000017E8B0001120071
:106B1800C80E276FC3EC0AF0CA5109E0010A13E056
:106B2800030A34E0010A4BE0070A69E0B5D069B509
:106B3800B3D0C753D8B4B0D0CDB1C707CB6BCC6BEB
:106B4800010ECA6F1200B751020A02E0A5AB03D0CA
:106B5800030ECA6F120069AD04D0699D030ECA6F97
:106B68001200B65103E1010EB56503D0020ECA6FDB
:106B78001200CB2B000ECC23C80ECB638DD0CC6774
:106B88008BD0CB6BCC6B020ECA6F86D0B65105E1A9
:106B98000101BD510001B55D03E3030ECA6F120088
:106BA800B45103E1630EB36577D0150E32EC10F0E3
:106BB80044EC10F0C76BCB6BCC6BCA6B6DD001018A
:106BC800C9510001C85D0101CA510001C95964E3F6
:106BD800808AA581D0EC2CF0C8C08EF0C9C08FF097
:106BE800C86BC96B64DF69AF05D0699F0101C051EB
:106BF800BC270001CD93CD95040ECA6F4DD0CDB3FF
:106C080024D0C95105E10101BC510001C85D1DE353
:106C1800809AA591CDA1C7073F0E0101C65D420E1E
:106C2800C7590F0EC85904E2C62B000EC723C82344
:106C38009F0E0001905D860E9159010E925904E253
:106C4800902B000E91239223CD83CDB506D0020E52
:106C58000101AD6302D00001CD850001CDB509D099
:106C6800C95103E1270EC86504D0B351B411D8A4A3
:106C7800CD85CDB50CD00101CB510001C85D010116
:106C8800CC510001C95903E3030EB76FCD85CDA3DD
:106C980003D0CDA501D0CA6B12000EEEBFF0ED6A8D
:106CA800EA50FDE1E950FBE1EF6A0DEC0BF00F0152
:106CB8003CEC0BF001012A91BBEC0EF078EC0BF0E8
:106CC8007FEC0BF0020E616F00016869698583AA89
:106CD80007D083B805D0040E0101616F0001A589B2
:106CE80083BA02D083A8698BF28A1200D5EC2CF003
:106CF800E5EC2CF038EC2DF04EEC2DF090EC2DF06E
:106D080002EC30F061C127F10101CF51FFEC0BF02B
:106D1800A5A902D0DEDC1AD069B518D031EC2FF065
:106D280055EC2FF00001A7EC2FF011EC2FF0D0EC70
:106D38002FF00101FAEC2CF01BEC2DF0AEDD010177
:106D48006CDE000198DE0101E3DED1DE7E517F11A9
:106D580010E069B10ED0A5B10CD0F40E935D010E10
:106D68009459D8B0A1EF2CF095519611D8A4A1EF61
:106D78002CF01200000191DFFFD75051960FF66EEC
:106D88006D0E5121F76EF86A0800F55012000000E8
:106D98003FF8000001FFFFC00003FFFFF80007FFF6
:106DA800FFFE0007FFFFFF8007FFFFFFE007FFFF71
:106DB800FFF803FFFFFFFC03FFFFFFFE03FFFFFFDA
:106DC800FF81FFFFFFFFC0FFFE0FFFE07FFF07FF10
:106DD800F07FFF03FFF83FFF81FFFC1FFFC0FFFEAE
:106DE8000FFFE0FFFE07FFF07FFF07FFF03FFF8385
:106DF800FFF81FFFC1FFFC0FFFE0FFFE0FFFF07F52
:106E0800FF07FFF07FFF83FFF83FFF81FFFC1FFFB5
:106E1800C0FFFE0FFFE07FFF07FFF07FFF03FFF8D3
:106E28003FFF83FFF81FFFC1FFFC0FFFE0FFFE07D6
:106E3800FFF07FFF07FFF03FFF83FFF81FFFFFFF13
:106E4800FC0FFFFFFFFE03FFFFFFFE01FFFFFFFE3A
:106E580000FFFFFFFF003FFFFFFF000FFFFFFF00E6
:106E680003FFFFFF0000FFFFFE00001FFFFC000004
:106E780000FFE000000000000000000000FFC0006C
:106E88000001FFF0000007FFF800000FFFFC000002
:106E98003FFFFE00003FFFFF00003FFFFF80003F75
:106EA800FFFFC0001FFFFFE0001FFFFFE0000FFF14
:106EB800FFF00007FFFFF80003FFFFFC0001FFFFE2
:106EC800FE0000FFFFFF00007FFFFF00001E3FFFE6
:106ED8008000001FFFC000001FFFE000000FFFF050
